:020000040000fa
:080000000002040000000000f2
:020000040000fa
:100400008fec21000eff27000e0188000000000085
:100410000c000700a0df22000100200011000700ef
:10042000000020000000e000020032000000020096
:100430000000000024330200000000000040da0049
:100440000000fe004440a900400520000000e0003c
:100450000300320000002000a00188004440a800f2
:100460000000060091018800800078000000eb0089
:1004700015003700e280400032a0b4009101ba00bc
:10048000e280400032a0b4009102ba00e280400055
:1004900032a0b4000002eb00472bde00f507b200eb
:1004a000602ce10004003a000059eb008301e900f0
:1004b000fdff3e00040037006128e100010032002a
:1004c0000082eb00040007001101ba000200e00006
:1004d000e8ff3a00000006003159ba008301e90044
:1004e0000c0032002159ba008301e90008003200f3
:1004f0000400e00003003a00e280400032a0b400b3
:10050000f5ff370011d9ba008301e900faff3a007c
:100510008100e800e180400032a0b4000000060045
:100520000040da000000fe000a00fa0080017800b6
:10053000e20f500028003e0030f68000e10f50002e
:1005400008003200802320000000e0000500320097
:10055000042320002523200046232000800178006a
:10056000040037000422200025222000462220001b
:1005700083222000144090000004e00004003500b5
:100580008009eb00144090000074a0001042980015
:10059000154090000028a30003003a001540900089
:1005a0000024a000904298008001eb000700370073
:1005b000154090000008a300fdff320063c07800e2
:1005c0000000fb00000b78008301e800828f5100df
:1005d000f7ff3a000800370030002000b0bf9f004e
:1005e000c3bf9f00d1bf9f00e2bf9f006a8057003a
:1005f00000c0da006fb99700020078000080fa00ae
:1006000000000600020ab900001bb9000200b80091
:10061000810042008100430000000600889fbe0068
:100620008a9fbe00010578000100e000040035004b
:1006300008003c000000e000200032000500370008
:1006400060001000e080180002003b0001f02c0068
:100650001a0037000004be006011b8006b092000ca
:100660000982cf00020039000882cf000441b000a7
:10067000694252000e00320008003b008281710086
:10068000610164008904d1000884d3008b05e8006f
:100690000442e800f9ff3a0005003700080444006e
:1006a00089844c008b05e9000442e900fbff3a0015
:1006b0006b0107000af0a70001f0a0004f05be0083
:1006c0004f04be000000060003f0a200889fbe0099
:1006d0008a9fbe008c1f7800870107008e013300bf
:1006e0006450e1004f0032006420e100520032000b
:1006f00003826c0007003b000905d0000306d00010
:10070000820f54000c065d00020039000200320026
:1007100089017800030678008582550004003d00b9
:100720000003fd008103fd008502ea008b85420085
:10073000840f720002003b0060001000e08018008f
:100740006011b8000005eb007a28e1000a003900ca
:1007500006007800c75ddd00f707b20087807500ee
:100760002d003700828171000a0178006105600068
:100770008180d1000080d3008502e900f9ff3b00b1
:10078000060440008784480002003b006004140017
:10079000e0841c000988a300070032008a817100f0
:1007a00082817100610164008904d1000884d30052
:1007b0008b05e800170037000978a30013003a0002
:1007c0000b00e000130034008b05e900080444002e
:1007d00089844c000a4474000978a3000d003a0093
:1007e0000b00e000070034008b05e900080444001a
:1007f00089844c0001003a000b0020000978a30016
:10080000f7ff32000001eb00020037008281710027
:100810000a017800120107000cf0a70001f0a00007
:10082000460137006420e10002003a00838f6c002b
:10083000460133000801be000200be003f01370040
:10084000889fbe008a9fbe008c1f78002a01070087
:100850003101330003866c006450e1002400320053
:100860006420e100270032006150e10022003200e4
:100870006120e100210032008b854200eb07b100ce
:100880000134b800003ab8000804420089844a00e4
:10089000013ab8000030b8008880400009014a00e1
:1008a000040033000000400081804800020149003c
:1008b0008b05e900c909dd008301700001003200e9
:1008c00013002000c814de004814dd004709de00d4
:1008d0001200b200c808de0008847000e0000700c3
:1008e00001f0a1000cf0a70001f0a00013013700f7
:1008f0006120e100150132000801be000200be00c7
:10090000f7ff37006150e100fcff3a000f013700ac
:100910000400200010013700889fbe008a9fbe009f
:100920008c1f7800f40007001002200002003b003a
:1009300040ee8800f80037008a0062006408e10099
:1009400002003a0040ee8800000137006108e10033
:10095000fcff32000800be00030478000d00070011
:1009600001f0a1001701070008f0a60004003700fd
:100970000001be0091042400b0fd200052ff0700da
:1009800009f0a70001f0a200ec0037000081eb00a5
:1009900071013700889fbe008a9fbe008c1f7800bf
:1009a000d5000700dc00330003866c006450e100d2
:1009b0002e0032006420e100330032006150e1007b
:1009c0002f0032006120e1003100320085855500a2
:1009d000eb07b000090020000804200005003700e4
:1009e0000804440089844c000a00310006034300d7
:1009f00087834b000001530081815b00f8ff3300c7
:100a00000203be000800a0000804440089844c00d2
:100a1000f6ff3900c639dd008301730001003200a2
:100a2000130020008904d1000884d3000998a30092
:100a3000050032000800a7000300a0008904d100cf
:100a40000884d3008b05e8008904d1000884d30012
:100a50000001eb000281d2008100070001f0a1003b
:100a60000cf0a70001f0a000b40037006420e10002
:100a7000b60032000801be000200be00f7ff3700da
:100a80006120e100b10032006000b800f3ff3700e0
:100a90000000200001f82700f0ff3700889fbe000b
:100aa0008a9fbe008c1f78000004be0093010700df
:100ab0000478a30026003a006120e10025003200fe
:100ac00009f8a30025003a006420e100210032006b
:100ad000f507b1000508a300020032000000400045
:100ae000818048006044b80003102000020020000c
:100af00000004000818048000805440089854c00c2
:100b00000a0541008b8549000a0550008b85580075
:100b1000030033000a00be000204740083847400e2
:100b20008301d1000281d300830f7100f0ff3a00ee
:100b30008904d1000884d300600149008201780053
:100b4000c1adde00fb07b000450007007b003700a9
:100b50000960a0000800be007800370012022000e3
:100b600042ee8800f0ff2f00f1ff270073003700ee
:100b70000001be00610107000470a70003f0a1009e
:100b80006509b100160032000d0035006828e1004b
:100b900006003500f0ff2f00f1ff27000300e00002
:100ba00013003b0001002800000005000000400089
:100bb000818048008502e900fcff3a000800370008
:100bc000f88f420002003c008000eb0000000500ae
:100bd0008100d1000080d3008502e800fcff3a00cc
:100be0000300e00002003b0060001000e0801800fd
:100bf000000006000001be00400107000470a700cd
:100c000003f0a10003f8a30013003a006509b10046
:100c100010003200090035006928e10002003500ab
:100c2000010028000000050000004000818048000d
:100c30008502e900fcff3a0000000600f88f420040
:100c4000050035008100d1000080d3008502e80056
:100c5000fcff3a00000006008000eb0000000500e9
:100c600081002000618055000b003d000b0020003a
:100c700061fe2f000100e1001d003400828171003f
:100c8000610164008904d1000884d3000000e800f9
:100c9000faff3a0071002000610064000300700058
:100ca000020060000900320061044400e0844c004e
:100cb0000988a500050032008b05e8006808e100fe
:100cc00002003a008904d1000884d300f20f20000a
:100cd0000258e10005003d00c75ddd00f907b200e4
:100ce0008980750008007800000006000bf82700d6
:100cf0008b007800000005000004be00ff00070024
:100d00000003be000405be000200be00fb00070099
:100d1000844f7500000006000200be006450e10030
:100d2000050036006420e100020036000968a300d7
:100d300001003a000800be000160a0004f067800e4
:100d40004f05be004f04be0000000600f0ff2f005c
:100d5000f1ff2700f9ff3700889fbe008a9fbe0081
:100d6000841f7800e4ff07004f0078001100330073
:100d7000f0ff2f00838f6c0006003b000405650028
:100d80000a00a7000800370009f0a60010002000a4
:100d900008003700820f5400838f5c000300390085
:100da0001000200001003e000000200009f0a70014
:100db0000000ea004f05be004f04be000000e00046
:100dc00000000600889fbe008a9fbe008c9fbe0068
:100dd0000004be00c90007000800be0089067800b4
:100de0006420e10008003900040032000160a00026
:100df0001202200042ee88005300370091fc2300cd
:100e0000b0fd20004e0037000006eb0009f0a10005
:100e100003f82300020020000800be00cc000700f9
:100e20000600340001f82300000020000801be0085
:100e3000d8fe07000004be002c0020000800be0001
:100e400093e82300320a2300c10007001200340097
:100e50000801be00d1fd2300703d2b001bfe0700e2
:100e60000005be00b3f32300f27a26000800be009e
:100e700073fe070003f823000200200012fe0700a3
:100e80000801be0011fe07000a01be00c1fe0700f6
:100e90000004be000c06e8000800be0001f0a1003e
:100ea0000200200003982300a90007000800be00ec
:100eb000160035000801be0061fe07000005be00f7
:100ec00032cd2c0043fb230000fe0700809fbe00b4
:100ed0001269280003d52b000a00be0058fe070047
:100ee000620f210013ef2b00f8fd07000a01be007e
:100ef00053fe07004f01be00a6fe07000801be001a
:100f00004ffe07000801be00f0fd07000c00e000e6
:100f10000b0032000c10a70001f0a200b2fd20006f
:100f200093fc23006260e1000400320022a920004b
:100f300063f023000c10a70063f82300e3fd070013
:100f40000df0a70001f0a2004f06be004f05be0045
:100f50004f04be0000000600889fbe008a9fbe00ae
:100f60008c9fbe00820578000004be00630007006d
:100f70000800be006420e1000700390002003a00ca
:100f8000f1ff2700f0ff2f000160a00012022000f7
:100f900042ee8800550037006120e10003003a006e
:100fa0000b00a70001f823005000370001f0a1005a
:100fb0000200210093642400650007000800be00c1
:100fc00004003500b2fd2000930c240062000700ed
:100fd0000004be000005eb000b00a6004f0dde0074
:100fe00001f0a1000004be0032982f0023ea230084
:100ff00013fe07000001eb0003f023000b00a70025
:1010000003f82300b1fd0700d9fe07000000a70088
:101010000a00a20081fd07000b00e000030032007f
:101020000200200003f02300a7fd070001f0a2004a
:101030000006be00020020009304240000fe07000a
:101040000801be00a1fd0700809fbe000c00be008d
:1010500022a22a00d3a72300f9fd07004f01be00fa
:101060009afd07000004be0001f0a100020020006c
:1010700003982300360007000800be001900350061
:101080000001be00eefd07000006be00b2c529004b
:10109000e3622300eafd070022222b00f3942b00d9
:1010a0008afd07000c01be00e5fd0700e273280081
:1010b00083c0230085fd07000c01be00e0fd070092
:1010c00042aa2a00a3e22b0080fd07000c01be000b
:1010d000dbfd07000801be00d9fd07000801be00c6
:1010e0007afd07000a00a70001f0a2004f06be002b
:1010f0004f05be004f04be0000000600c70ade0018
:10110000f107b200f50fb20008003200e1cf420053
:10111000020032000170a00024000500810f700061
:10112000010032000408050044000500810f700032
:1011300002003a00140005008502e90000004000aa
:1011400081c04800fcff3b000170a00024000500a6
:101150001400200000ff37000400200000003700ca
:10116000889fbe008a9fbe008c1f78004f26dd003e
:10117000e1fe0700e8fe33006120e1004300320099
:101180006250e10041003e003e0039006420e10071
:101190003c003200058255000f003b000402e800cd
:1011a00038003a00800f5300818f5b003500340017
:1011b0000800be0003f0a10001f0a60003f0a000ab
:1011c0000cf0a70041fd0700dcfe370006034300da
:1011d00087834b000c4646000005530081855b0069
:1011e000020033000a03be000c00a0000402e90064
:1011f000f6ff3b00850578000602430087824b001e
:1012000004003a006000b80009f0a70001f0a00057
:10121000cafe37000002520081825a000704e00033
:10122000040033000603430087834b008b05e9006d
:10123000faff3700090578000604be000203be006d
:101240006011b80086fe0700e00f5200e08f5a00e0
:101250000700350002003c000c08a3000400320027
:101260000601be0003f0a0000cf0a70017fd070068
:101270000a85680001f0a1000af0a70001f0a000b3
:10128000aefe37000800be00acfe370010022000a2
:101290000cf0a60040ee8800acfe3700881f7800f6
:1012a000000478005001be004000be000400400071
:1012b000858048000601490087814900009cbe00e6
:1012c0000294be000400e1000588e1000690e10000
:1012d0000798e10002003100680044001008e800af
:1012e0004f04780000000600f4874700889fbe0086
:1012f0008a9fbe008c9fbe008e1f78000205be0034
:101300000004be00d4b79f00e5b79f00f6b79f006a
:1013100087bf9f000000eb00c0b79f00b0b79f00e1
:10132000a0b79f0090b79f0080b79f000d042000da
:10133000bfb097004fb09700000140000000e000f0
:101340000f003d004f08de0000007100c0b79f0095
:101350009e00070001003d0012002000a1000700d0
:1013600001003d0012002000a6000700b1000700a8
:10137000b60007000f004000c8ff0700220037003a
:101380004f08de0000067100ccb79f008f000700f9
:1013900001003d00120020009200070001003d0006
:1013a0001200200097000700a20007000fb297006c
:1013b0009fb297002fb39700bfb39700a900070013
:1013c0000000520081805a0002015b0083815b00b3
:1013d00080b79f0091b79f00a2b79f00b3b79f004f
:1013e0000007eb009f0007000020e10001a8e100da
:1013f00002b0e10003b8e100010031001e0020004e
:101400000e005600c0b79f004fb297000400e000e6
:101410000700350010002000010020006011b80016
:1014200008047000898470000a0571008b857100c2
:101430008d06e900beff3a000400e00003003d0015
:10144000820007000f00400094ff07004fa897009c
:101450000000e00004003a000fb497009fb497002a
:101460002fb59700bfb59700940007004f0778008d
:101470004f06be004f05be004f04be004f01b10035
:1014800000000600881f780018002000881f7800e0
:1014900095ff07008f87e9004f04780000000600e1
:1014a000801feb0090ff07008f87e9000000060017
:1014b000889fbe008a9fbe008c1f78006e000700c8
:1014c00007003d0073000700e00f5b00e08f5b004a
:1014d00007003d00320007000006eb000400370063
:1014e0003400070002003d002a0007001c00200015
:1014f00072000700e3ff07000203be000002be0007
:101500000c00e00001003200220007000400be00d1
:101510000601be004f0678004f05be004f04be0016
:1015200000000600889fbe008a9fbe008c1f7800c6
:101530005100070005003d0056000700e00f5b006a
:10154000e08f5b0006003d00040037001900070033
:1015500003003d006000b8006011b80010000700f3
:1015600056000700ceff07000203be000002be00c7
:101570000c00e00001003200060007000400be007d
:101580000601be004f0678004f05be004f04be00a6
:10159000000006006000b8006011b80000003700cd
:1015a00004025000858258000603590087835900c1
:1015b000000006000006eb00e00f5200e08f5a002a
:1015c000e00f5b00e08f5b00000006000180400040
:1015d00090b79f000001eb008fb097000100e00082
:1015e000000006000200700090b79f0001804000dc
:1015f00080b79f000001eb00ffa897000100e0000a
:10160000000006000200700080b79f0001804000cb
:101610006faa9700cf20de0001007000f0af9f009e
:1016200004024200250007004f18de00000272008d
:1016300000000600e4af9f000804440089844c00c9
:101640000a054d008b854d00000006003fb2970053
:10165000cfb297005fb39700efb3970000fe2f0063
:10166000000006003fb09700cfb097005fb1970031
:10167000efb19700000006000205be000004be00a6
:10168000e00f5000e08f5800e00f5900e08f590044
:10169000000006006000b8006011b80008045000a7
:1016a000898458000a0559008b8559001c002000c8
:1016b000e00f5200e08f5a00000006000800be0054
:1016c0000a01be000000060031e2a90097c0a9008f
:1016d00097e0a90087c0a90087e0a90000000600e4
:1016e000800078000001780030c2bf0066406000d2
:1016f000e64f500010003a000500370033c2bf002b
:101700000018a300fdff3a00a21188008180e800c4
:10171000110178000200e000f8ff3a000000060026
:1017200033c2bf000018a300fdff3a000100fb0018
:10173000a01188000201e800924078000104e00056
:10174000f7ff3a000000060033c2bf000004a20009
:10175000610060000000060021e2a9009560a90078
:101760009580a9008560a9008580a9000000060079
:101770008000780020c2bf0066406000e64f500045
:1017800001003200f10fb2002111880000000600b4
:101790000c00fa00889fbe0000047800cfb09700cc
:1017a000f0ff2700d0bf9f008004eb0099bf9f008f
:1017b00088bf9f00a8bf9f00200c2000b0bf9f00e3
:1017c0007881570070805700280007000fb89700f5
:1017d000094878000fb89700080450000800780006
:1017e0004f04be000080fa00000006000100200047
:1017f000e0f58800f1f5880011c0b300a0eb2100ee
:101800000148780000000600a2eb21001204e0006d
:1018100006003a001000200001002000e0f58800da
:10182000f1f5880010c0b30000497800d2e624002a
:10183000631c2400e0f58000f1f5800071fb0700d7
:101840000001be00900323000100200002004000c0
:1018500083804800e0f58800f1f588004088de00cc
:10186000cf80de0000f0a10000000600fe874700e8
:10187000889fbe008a9fbe008c9fbe008e1f78008e
:10188000f0b79f000107780082bf9f000000eb00c7
:10189000a0b79f009f0237008006eb0050c2b30044
:1018a00080cf5000090032000100fb00ffb097001c
:1018b000a3020700e10f400096023200afb097008c
:1018c0008100e800a1b79f00920237009e40780097
:1018d000d0c2b30080cf50000c00320007003c00a3
:1018e0006d40500080cf50000a0032006b40400035
:1018f00080cf50000e003a000800370000c3b3004c
:1019000080cf50000a003a00060037000d30a000da
:10191000050037000d00a000030037000d10a000e7
:10192000010037000d20a0000e07e800e7ff370098
:101930000d18a300010032000d00a1000d38a30016
:10194000010032000d20a1000100fb0002fd2f006c
:1019500002004000e90f50000e003e000002eb00c4
:10196000c4b79f0082017800cfb297006a28b900ff
:101970001e01fb000001410003014100c2b79f00ae
:101980005e00fb0003004000e90f50000b003e002a
:10199000f5ff37000006eb00ccb79f00a0c2b300f4
:1019a00080cf500005003a000fb89700c0007800c3
:1019b00080bf9f00c1b79f000e07e8000001eb0049
:1019c000b2b79f00e0c2b3009e4f100018003a006b
:1019d0000de0a0008e00e80064405000914f100020
:1019e00002003200010778000c0037000fba9700a0
:1019f000c402780084bf9f00b5b79f000e87e8003f
:101a00000b0037003fb697006a60b9000000410044
:101a100003004000b0b79f000e07e8001e01fb0066
:101a200003fd2f0003004100e90f5000f5ff3600d1
:101a3000be407800e1d79f00c0c6b30080cf500001
:101a4000220032000f003c006940500080cf50005f
:101a50007700320004003c000104e0003102320053
:101a60006b4050000f00370040c6b30080cf5000dd
:101a7000930032006540400080cf50008b003a0058
:101a80008f00370030c7b30080cf50001a003200fb
:101a900007003c006440500080cf5000110032002d
:101aa0000040e80080cf500080003a000f0037006f
:101ab00050c7b30080cf5000800032006340400028
:101ac00080cf500079003a0009003700000028005c
:101ad0000d48a30001003a00000120008086760036
:101ae000d3ff37000d60a000750037000d50a00037
:101af0000d70a000720037008fb897004100780089
:101b000081bf9f00000478000000e00001003a005f
:101b1000a8e621008004eb00010037008104e80002
:101b200089007800088044001004e000fbff3a00c0
:101b30003fb197000200e00003003200890f51001e
:101b400001003100820478000002eb00e4af9f0046
:101b5000cfb29700898f52000200360009805200f0
:101b6000e0af9f004368de00e10660001b003a0022
:101b70000d06780009003700ffb097000002200032
:101b8000ef010700e10f4000030032002fb0970083
:101b90000000e800a0b79f000c06e800efa897003f
:101ba000810f5600f4ff3a000081eb00e2af9f0086
:101bb0000a003700880078003100fb00010478003b
:101bc000ffb09700de010700e10f40000300320084
:101bd0002fb297000402e800a4b79f000900e900b3
:101be00080047800e10f4000f2ff3a000006eb00ad
:101bf0000d00e0000a003a00c6013700ffb0970070
:101c000000022000ce010700e10f40000300320077
:101c1000afb297008502e800a5b79f000c06e80068
:101c20006fa89700800f5600f4ff3a00b901370003
:101c30008fb897004100780081bf9f00cf80de0001
:101c400001017800820178000205be000004be0098
:101c50000203be000002be004822de00482edd0066
:101c600004027600e4d79f000d48a3000a0032006a
:101c70000404e00008003200e14f42000600320098
:101c800071fd2f000180470004487800184098003b
:101c90002900200002003700f0d79f001900200023
:101ca00072fd2f0002844700a1ff370064fd2f0062
:101cb00004844700190020009dff37000d0cb3007d
:101cc0000d007800000cb20028003a000d00e00082
:101cd00005003d008fba97004505be004504be00d3
:101ce00085bf9f00140037000d48a3000b00320091
:101cf0000fbe97004c00be008cbf9f004f89de00d6
:101d0000cf91de000002be0002037800820378005b
:101d10000605be000404be00070037008fb8970018
:101d20004100780081bf9f0000047800cfc4de002e
:101d3000090578008a057800e00f5400e08f5c0008
:101d4000e00f5d00e08f5d001f003d003d00b3002f
:101d50006000b8006011b800080450008984580081
:101d60000a0559008b855900170037000d00e00067
:101d700005003d000fb997004205be004204be00b9
:101d800082bf9f00100037000d48a30007003200fb
:101d90000fba97004400be0084bf9f006011b800d6
:101da0000205be000004be00070037008fba97008e
:101db0004500780085bf9f000004780009002000de
:101dc0000a0020000b0020003fb697000c00e00046
:101dd00007003a00e00f5400e08f5c00e00f5d0068
:101de000e08f5d0002003a0010002000b0b79f00b5
:101df0008d007800010cb200e1b79f0000042000c4
:101e0000808f50003000320003003c000100e000f1
:101e10000800320040003700000820006fb1970032
:101e2000800f510014003200000c2000800f510080
:101e300039003a0014c0b300a5dc21000b003700c4
:101e40000400fb004300dd00050040005001be001f
:101e50004000be000040e10001c8e10002d0e10006
:101e600003d8e1002b0039000442e800f44f52008f
:101e7000f3ff3a0027003700000120000100200096
:101e80006011b80014c0b3000040e10001c8e100d7
:101e900002d0e10003d8e1001e0039004500200017
:101ea0000000d0008180d2000281d2008381d20064
:101eb0008502e900faff3a000442e800f04f5200c0
:101ec000f1ff3a00130037008000200001002000dd
:101ed0006011b80014c0b3000040e10001c8e10087
:101ee00002d0e10003d8e1000a0039003c002000e4
:101ef0000000d0008180d2000281d2008381d20014
:101f00000c06e900faff3a000442e800f54f5200df
:101f1000f1ff3a00e4d79f00efd097000100fb00eb
:101f20003fb19700820f500002003d00e2d79f00b2
:101f3000040037003fb29700800f520001003d00bf
:101f4000b0b79f00cfb297000500e0000400320058
:101f500063806600020032008502e900c5b79f0079
:101f60000de8a3000b0032004fb697003fb097007a
:101f7000800f560003003c008000eb00c1b79f00bb
:101f8000040037004fb197003fb2970004015100a1
:101f9000c2b79f00efd297000500fb000006eb00e0
:101fa000dcaf9f00cfb09700808f5000020034005c
:101fb00000805000d0af9f000d28a30037003200f2
:101fc000e18066000d18a3000c003200d002200052
:101fd0000100e00001003a000080e900ffb0970036
:101fe000d7000700e10f40000e0032002fb197002c
:101ff0000201e800a2b79f000a0037000100e000dc
:1020000008003200ffb0970000022000cc0007005b
:10201000e10f4000030032002fb297000402e800f5
:10202000a4b79f00dfaa97000500e0000f00320070
:102030000006eb00ffb0970000032000c00007007f
:10204000e10f4000030032002fb097000000e800cd
:10205000a0b79f000c06e800dfa89700810f56008c
:10206000f4ff3a000001eb00d2af9f003fb29700af
:10207000c320dd0020dc21008080400091b79f005c
:102080004220dd006400500080b79f006320b9004b
:10209000f0af9f006306500084003700dfaa97006e
:1020a0000500e00011003200688066000f003a0071
:1020b00000067800ffb0970000022000a000070093
:1020c000e10f4000030032002fb097000000e8004d
:1020d000a0b79f000c06e800dfa89700810f56000c
:1020e000f4ff3a000001eb00d2af9f00e1806600f0
:1020f0000d18a3000c003200d00220000100e00007
:1021000001003a000080e900ffb097008c00070052
:10211000e10f4000d5ff32002fb297000402e80023
:10212000a4b79f00d1ff37000100e000cfff3200cd
:10213000ffb097000002200081000700e10f40007f
:10214000caff3200afb297008502e800a5b79f0032
:10215000c6ff370000042000efb09700808f5000ca
:102160003100320003003c000100e00008003200b2
:102170003e003700000820006fb19700800f51002b
:1021800011003200000c2000800f510037003a008f
:102190001fb097003002be002003be000800be0042
:1021a0000a01be00b7fc0700a400200005002000c3
:1021b0006033b800bafc070004c3b3000442400017
:1021c000e4d79f002900370015e72100d5b79f000d
:1021d0000d58a30002003a0020e82100d0b79f006c
:1021e00014002000050020006033b8008fb0970075
:1021f0008100e900050033000402d0008582d2008e
:102200000683d2008783d200f9ff37000800be00a2
:102210000a01be009bfc07006f0060005fb19700e1
:1022200062407800100037001400200005002000f4
:102230006033b8000c0078000000e90005003300ae
:102240000402d0008582d2000683d2008783d200a8
:10225000f9ff37000800be000a01be0089fc070034
:10226000674060000043b000e0d79f00efd09700c8
:102270000100fb00ffb0970031000700e10f4000b4
:10228000030032002fb197000201e800a2b79f00bf
:102290001fb297006802520094b79f008fb2970058
:1022a000e482520085b79f0063065600d0ff2f00de
:1022b0003fb197000090b9007faa9700000042004c
:1022c00063005000800f5600a2ff3a000d38a300b3
:1022d00010003200dfaa97000500e0000d00340076
:1022e0000006eb00ffb0970000022000140007007a
:1022f000e10f4000030032002fb097000000e8001b
:10230000a0b79f000c06e800dfa89700810f5600d9
:10231000f4ff3a00be407800e1d79f000104e000de
:102320005dfd3a002fb097004f0778004f06be00c2
:102330004f05be004f04be00ef01b10000000600d3
:10234000889fbe000001780001047800b100900071
:102350000118a3003d0032000198a30003003a00d9
:10236000180090000000e00038003a000190a00042
:102370003104980082047800f90fb2001800900030
:102380000000e00002003a0028009000000c7800f5
:10239000ea8f540006003a00380090000078a3004d
:1023a00003003a0088007800d0002000e4ff070016
:1023b0009800900058009000808f50000b00320071
:1023c0000100e8001004980018007800095878000f
:1023d000000c780011c0b30040ec210001487800e7
:1023e000ea8f540006003200190037008800780098
:1023f00009407800190007008004780014003700b5
:10240000380090000088a3001100320018019000ed
:10241000a80090004800900043f807009800900042
:10242000810f500004003200380090000003b30018
:10243000300498008084eb000000eb00100498004a
:1024400028009000000c7800010037008084eb0029
:10245000090078004f04be00000006000200fa00e8
:10246000889fbe00a0ff9f0001047800b10090008b
:10247000810478000904b200020032000000fb0071
:10248000360037000118a30005003a000103b3002d
:1024900031049800190498000080eb002f003700e9
:1024a000580090000000e00006003a00480090004c
:1024b00012002000e68057001bf80700190498005e
:1024c00024003700280090000000e00008003a00d7
:1024d00000ec210020049800000c7800200020006f
:1024e00050049800100498000130a00031049800b6
:1024f00018019000a8009000480090000af807001a
:1025000028009000000c78000080eb001004980078
:1025100018007800aff8970001587800000c780098
:102520002ff89700ea4f50000a003a003800900058
:102530000088a3000700320018019000a800900056
:1025400048009000f8f7070019049800a8009000d0
:10255000010c7800aff897000100fb004f04be00ab
:082560000080fa0000000600f3
:020000040000fa
:0200000401f009
:04000c00f8ff0000f9
:020000040000fa
:0200000401f009
:040010007dff000070
:020000040000fa
:0200000401f009
:040014007fff00006a
:020000040000fa
:1000080090020000900200009002000090020000a0
:100018009002000090020000900200009002000090
:1000280090020000900200009002000000320000e0
:10003800900200009002000090020000f0310000e1
:10004800e416000090020000900200008a210000df
:10005800642100009002000090020000900200005d
:10006800e62a0000900200009002000090020000c2
:100078009002000090020000900200009002000030
:100088009002000090020000900200009002000020
:100098009002000090020000241f00001c1f0000b6
:1000a8009002000090020000900200009002000000
:1000b80090020000900200009002000090020000f0
:1000c80090020000900200009002000090020000e0
:1000d80090020000900200009002000090020000d0
:1000e80090020000900200009002000090020000c0
:1000f80090020000900200009002000090020000b0
:10010800900200009002000090020000900200009f
:10011800900200009002000090020000900200008f
:10012800900200009002000090020000900200007f
:10013800900200009002000090020000900200006f
:10014800900200009002000090020000900200005f
:10015800900200009002000090020000900200004f
:10016800900200009002000090020000900200003f
:10017800900200009002000090020000900200002f
:10018800900200009002000090020000900200001f
:10019800900200009002000090020000900200000f
:1001a80090020000900200009002000090020000ff
:1001b80090020000900200009002000090020000ef
:1001c80090020000900200009002000090020000df
:1001d80090020000900200009002000090020000cf
:1001e80090020000900200009002000090020000bf
:0801f8009002000090020000db
:020000040000fa
:10020800900200009002000090020000900200009e
:10021800900200009002000090020000900200008e
:1002280090020000900200009002000000320000de
:10023800900200009002000090020000f0310000df
:10024800e416000090020000900200008a210000dd
:10025800642100009002000090020000900200005b
:10026800e62a0000900200009002000090020000c0
:10027800900200009002000090020000900200002e
:10028800900200009002000090020000900200001e
:100298009002000090020000241f00001c1f0000b4
:1002a80090020000900200009002000090020000fe
:1002b80090020000900200009002000090020000ee
:1002c80090020000900200009002000090020000de
:1002d80090020000900200009002000090020000ce
:1002e80090020000900200009002000090020000be
:1002f80090020000900200009002000090020000ae
:10030800900200009002000090020000900200009d
:10031800900200009002000090020000900200008d
:10032800900200009002000090020000900200007d
:10033800900200009002000090020000900200006d
:10034800900200009002000090020000900200005d
:10035800900200009002000090020000900200004d
:10036800900200009002000090020000900200003d
:10037800900200009002000090020000900200002d
:10038800900200009002000090020000900200001d
:10039800900200009002000090020000900200000d
:1003a80090020000900200009002000090020000fd
:1003b80090020000900200009002000090020000ed
:1003c80090020000900200009002000090020000dd
:1003d80090020000900200009002000090020000cd
:1003e80090020000900200009002000090020000bd
:0803f8009002000090020000d9
:020000040000fa
:10256800526500006365000069760000656400003c
:102578003a200000257800000a0d00000044000001
:102588006174000061510000756500007565000008
:102598003a20000025580000202500007520000082
:1025a8002575000020250000752000002558000032
:1025b8000a0d000000000000452d000050550000e5
:1025c800434b000020520000414e000047450000e8
:1025d800204100004e440000204200004541000018
:1025e800524900004e4700002053000054410000ab
:1025f80052540000454400000a0d0000000000008d
:08260800257500002000000010
:020000040000fa
:102610000200fa000000eb00000f78000300370012
:102620001e007800cd0007001e0fe800b00020005b
:102630009e0f1000faff34007d10070013e1a9007f
:102640001221a90012c1a900810a2000914078003e
:1026500080cfb30000c060000004a000a8e0b70075
:102660008500a9009500a800211120009140780064
:10267000f0ccb30000c0600012e1b7000000eb0036
:102680005008880000fa20007008880013e1a800b4
:10269000008020008808070040392100fe0807005c
:1026a0000000eb00000f78002f0037001e007800bc
:1026b000aa0007001e00780080004000804321002f
:1026c000808040000000eb00800878001e00780049
:1026d0008000400000452100808040000000eb00a9
:1026e000800878001e0078008000400080462100ad
:1026f000808040000000eb00800878001e00780019
:102700008000400000482100808040000000eb0075
:10271000800878001e00780080004000a050210052
:10272000808040000000eb00800878009e00780068
:10273000400e20000088b90080007800408e200004
:10274000008040005c0807001e0078006a00b900a5
:10275000e8004000605221008080400010c0b300bb
:10276000804878001e0fe800b00020009e0f100087
:10277000ceff34000000eb0050a688000000eb0004
:1027800040a888000000eb00f0a788000000eb00e4
:1027900000a888000080eb0010a888000000eb0073
:1027a00020a888000000eb0030a888000000eb00a3
:1027b00010a988000000eb00a0a1880021000700fc
:1027c0000000eb00000f78000e0037001e007800bc
:1027d00080004000605b2100008040001000780015
:1027e000801f780040302900801f7800c04c2100f5
:1027f000e7fb0700e4875700c04c21008505070070
:102800001e0fe800b00020009e0f1000efff340004
:10281000c04c2100a1c0b300014878000000e800ce
:10282000d1c0b300014878000000e8008040eb0010
:1028300001487800c04c2100760507000080fa00ae
:10284000000006000000fa00605b210002000700a3
:102850000080fa00000006000400fa00881f7800db
:10286000100798000000eb00000f78000a00370006
:102870001e00780000004000800078001e009000dc
:10288000008440009e00780074804000081007001b
:10289000000c78001e0fe800b00020009e0f100012
:1028a000f3ff34004f0478000080fa0000000600b7
:1028b0000600fa0010079800414798004e4090002b
:1028c0000000fb0074004000f90f0700000f7800c3
:1028d0001e0178004e4090000000fb008000400088
:1028e000605b210000804000100078000000510073
:1028f000000f78001e00e000040034009e00780005
:102900001e00900001087800030037009e00900030
:102910000000eb00800878000080fa00000006004c
:102920000000fa00e202a800e222a800e802a800e3
:10293000e822a800e982a800e9a2a800e9c2a8004c
:10294000e9e2a800c4a2a800c482a800c422a8008a
:10295000c402a8000080fa00000006000800fa0087
:10296000204798002e4090000000fb006101b90054
:102970002207980033079800b000200001002000d3
:102980002e019000be019000800f5100818f5900f0
:1029900092003e002e009000be00900000600100fa
:1029a0000b003700150037001f00370029003700e3
:1029b000330037003d003700470037005100370033
:1029c0005b003700650037006f0037007900370083
:1029d000e202a8000000eb00000f780002003700c0
:1029e000000000001e0fe800300620009e0f1000bf
:1029f000fbff3400e202a90078003700e222a800c1
:102a00000000eb00000f780002003700000000001b
:102a10001e0fe800300620009e0f1000fbff340060
:102a2000e222a9006d003700e802a8000000eb00d8
:102a3000000f780002003700000000001e0fe800c1
:102a4000300620009e0f1000fbff3400e802a900b2
:102a500062003700e822a8000000eb00000f7800b9
:102a600002003700000000001e0fe80030062000c2
:102a70009e0f1000fbff3400e822a900570037002a
:102a8000e982a8000000eb00000f78000200370088
:102a9000000000001e0fe800300620009e0f10000e
:102aa000fbff3400e982a9004c003700e9a2a8002e
:102ab0000000eb00000f780002003700000000006b
:102ac0001e0fe800300620009e0f1000fbff3400b0
:102ad000e9a2a90041003700e9c2a8000000eb000c
:102ae000000f780002003700000000001e0fe80011
:102af000300620009e0f1000fbff3400e9c2a90041
:102b000036003700e9e2a8000000eb00000f780073
:102b100002003700000000001e0fe8003006200011
:102b20009e0f1000fbff3400e9e2a9002b003700e4
:102b3000c4a2a8000000eb00000f780002003700dc
:102b4000000000001e0fe800300620009e0f10005d
:102b5000fbff3400c4a2a90020003700c482a800f3
:102b60000000eb00000f78000200370000000000ba
:102b70001e0fe800300620009e0f1000fbff3400ff
:102b8000c482a90015003700c422a8000000eb0091
:102b9000000f780002003700000000001e0fe80060
:102ba000300620009e0f1000fbff3400c422a90055
:102bb0000a003700c402a8000000eb00000f7800f4
:102bc00002003700000000001e0fe8003006200061
:102bd0009e0f1000fbff3400c402a9000080fa0021
:102be000000006000000fa00e202a900e222a900ab
:102bf000e802a900e822a900e982a900e9a2a90047
:102c0000e9c2a900e9e2a900c4a2a900c482a900fe
:102c1000c422a900c402a9000080fa000000060036
:102c20000600fa00004f78001e00fb006101b900a9
:102c30001207980023079800b00020000100200030
:102c40001e019000ae019000800f5100818f59004d
:102c500026003e001e009000ae00900000600100c3
:102c60000b0037000c0037000d0037000e00370056
:102c70000f00370010003700110037001200370036
:102c80001300370014003700150037001600370016
:102c9000e202a90015003700e222a9001300370064
:102ca000e802a90011003700e822a9000f00370050
:102cb000e982a9000d003700e9a2a9000b00370046
:102cc000e9c2a90009003700e9e2a90007003700be
:102cd000c4a2a90005003700c482a9000300370080
:102ce000c422a90001003700c402a9000080fa0034
:102cf000000006000600fa00004f78001e00fb00ee
:102d00006101b9001207980023079800b000200065
:102d1000010020001e019000ae019000800f5100c4
:102d2000818f590026003e001e009000ae009000ea
:102d3000006001000b0037000c0037000d00370069
:102d40000e0037000f003700100037001100370069
:102d50001200370013003700140037001500370049
:102d600016003700e202a80015003700e222a80092
:102d700013003700e802a80011003700e822a8007d
:102d80000f003700e982a8000d003700e9a2a80073
:102d90000b003700e9c2a80009003700e9e2a800eb
:102da00007003700c4a2a80005003700c482a800ad
:102db00003003700c422a80001003700c402a800a5
:102dc0000080fa00000006003600f800809fbe0078
:102dd000829fbe00849fbe00869fbe001c00fa003a
:102de0000000eb0050088800a116800000ff2f00b3
:102df00000806000100798001e009000f00f400057
:102e00002e003a00f0a78000e10f500007003c00c0
:102e10009e00900000802000b4060700f0a780000c
:102e20000000e800f0a788002100370000a880001b
:102e3000e10f50001e003a000000eb00000f780088
:102e4000160037001e007800004178001e00780050
:102e5000000040008000780064004700010040004e
:102e60008240780092fe07001e007800e4004700d0
:102e700000004000608178009e007800400e200035
:102e80000088b90080007800408e2000008040005b
:102e900082007800950607001e0fe800b0002000b1
:102ea0009e0f1000e7ff34000000eb0000a8880030
:102eb0000000eb0030a888001500370000a8800053
:102ec0000000e0000d003a0030a880000000e8009b
:102ed00030a8880030a88000e30f500001003a00bd
:102ee0008ffe070030a88000e50f500003003a0075
:102ef0003cff07001000200000a888000000eb0045
:102f0000f0a788009e009000008020007706070050
:102f10008500a9000080fa004f03be004f02be00ea
:102f20004f01be004f00be003600f9000040060011
:102f30000200fa00000f78009e0078000080200058
:102f40008f0607000000fb000080fa00000006006a
:102f50000200fa00000f78009e0078000080200038
:102f6000620607000000fb000080fa000000060077
:102f70005800fa00881f7800804c2100ecff070001
:102f80000004e000550332000000eb0010a98800a7
:102f900050a68000302f9800be289000e18f50008e
:102fa000630032003e289000e20f5000f200320031
:102fb000be2890000100e0000100320085013700ca
:102fc0000000eb0050179800550037005e1090008d
:102fd0006a00b900e8004000605221000080400013
:102fe00010407800e14f50004a003a0041a68000ae
:102ff0005e109000640040000008de006100600088
:10300000b0a188005e10900080004000a050210018
:103010000080400090007800b0a18000808f5000b8
:103020000b003a00de1090000181400000452100b5
:1030300000004100100078000001e800818040009d
:103040000045210000804000020878001000370091
:103050005e1090006a00b900e80040006052210054
:10306000808040000040eb008048780040a880004d
:103070000000e80040a888005e109000800040003a
:1030800000452100808040000000eb0080087800af
:103090005e1090008000400000452100008040004c
:1030a00010007800e60f50001a003a0010002000cf
:1030b00050a688005e10900080004000004521006e
:1030c000808040000000eb00800878005e109000d7
:1030d00080004000804621008080400000012000e8
:1030e000800878005e1090008000400000482100b9
:1030f000808040000000eb00800878005e109000a7
:1031000080004000004b2100808040000000eb0068
:10311000800878005e1090000000e80050179800ca
:103120005e109000eb0f5000a8ff3400290137001b
:103130000000eb00501798008b0037005e109000e5
:103140006a00b900e80040006052210000804000a1
:1031500010407800e14f500080003a0041a6800006
:103160005e109000640040000008de006100600016
:10317000b0a188005e109000800040000045210052
:1031800000804000100078000000e00011003a00cc
:10319000de10900001814000004521000000410048
:1031a000100078000001e800818040000045210007
:1031b00000804000020878005e109000b2a18000fc
:1031c0008000400080432100008040000208780019
:1031d000470037005e10900080004000004521004d
:1031e000808040000000eb00800878005e109000b6
:1031f0008000400080432100008040009000780063
:10320000b0a18000808f50002f0032005e1290002d
:103210005e109000800040000048210000804000c7
:1032200010017800b3a180005e1090008000400083
:1032300080462100008040001000780070001000df
:103240000018dd0000014100840042000048210018
:103250000080400002087800de10900001814000ec
:103260008046210000004100100078000001e900c4
:1032700081804000804621000080400002087800e4
:103280005e109000800040008043210000804000dc
:10329000100078000000e00015003a00de109000f9
:1032a00001814000004b2100000041001000780027
:1032b0000001e80081804000004b210000804000b8
:1032c000020878000a0037005e1090006a00b9001a
:1032d000e800400060522100808040000040eb0088
:1032e0008048780040a880000000e80040a88800de
:1032f0005e10900080004000804621000080400069
:10330000100078000000e00014003a0020002000c7
:1033100050a688005e10900080004000804621008a
:103320008080400040002000800878005e109000ff
:103330008000400000452100808040000000eb003c
:10334000800878005e1090008000400080492100d5
:10335000808040000000eb00800878005e10900044
:103360000000e800501798005e109000eb0f50002e
:1033700072ff3400970037000000eb0050179800f0
:10338000910037005e1090006a00b900e80040002c
:10339000605221000080400010407800e14f500052
:1033a00086003a0041a680005e1090006400400054
:1033b0000008de0061006000b0a188005e1090008f
:1033c000800040000045210000804000100078008f
:1033d0000000e00011003a00de1090000181400082
:1033e0000045210000004100100078000001e800c5
:1033f00081804000004521000080400002087800e4
:103400005e109000b2a18000800040008043210047
:103410000080400002087800360037005e109000ff
:103420008000400000452100808040000000eb004b
:10343000800878005e1090008000400080432100ea
:103440000080400090007800b0a18000808f500084
:103450001e003200de1190005e10900080004000df
:10346000804921000080400010017800b4a1800054
:103470005e109000800040008046210000804000e7
:10348000100078000000e9000020dd00000141008c
:1034900083804100804921000080400002087800bc
:1034a000de109000018140008046210000004100b4
:1034b000100078000001e900818040008046210072
:1034c00000804000020878000a0037005e1090007b
:1034d0006a00b900e800400060522100808040008e
:1034e0000040eb008048780040a880000000e80021
:1034f00040a888005e1090008000400080462100b7
:1035000000804000100078000000e0002b003a002e
:103510005e10900080004000804921000080400043
:10352000100178005e10900080004000004b2100e8
:103530000080400010007800000041006f00600033
:10354000401798004e1090000000e0000f003a0075
:103550005e1090006a00b90080007800605221007f
:103560008080400010002000800878005e109000ed
:1035700080004000004821000080400010007800da
:1035800020a988001000200010a988005e1090007b
:103590008000400000452100808040000000eb00da
:1035a000800878005e109000800040008046210076
:1035b0008080400000012000800878005e109000ac
:1035c0000000e800501798005e109000eb0f5000cc
:1035d0006cff340040a88000ec0f50001f003a0040
:1035e0000000eb0010a988000000eb0040a8880054
:1035f0000000eb0050179800150037005e10900097
:103600006a00b900e800400060522100808040005c
:1036100010c0b300804878000000eb0050a688007e
:10362000de109000400e20000088b9008000780075
:10363000408e200000804000c10220008e804000ab
:10364000cf0407005e1090000000e80050179800bb
:103650005e109000eb0f5000e8ff340010a98000ce
:10366000e10f50009d013a00a0a180000000e000a1
:1036700078013a006000b8002017980031179800d0
:103680006000b80000179800111798000000eb00c8
:10369000700f98000000eb00600f98000040eb00f6
:1036a000305f98000040eb00205f98000000eb00c6
:1036b000400f98006f0037000000eb00601f98007b
:1036c000ce089000400e20000088b90080007800ed
:1036d000408e200000804000ce0407000000e00083
:1036e000f7ff3a00ce089000400e20000088b90095
:1036f00080007800408e200000804000c103200040
:103700008e8040009e0407006e1890000000e000cc
:10371000550032004e0890006a00b9008000780021
:10372000605221000080400010007800e10f50003e
:103730004d003a006e1c90006140b900b7f30700dd
:10374000102f9800212f98000800e00007003d008e
:1037500002002000037824001e289000ae2890006c
:10376000daf30700102f9800212f98004e089000e0
:10377000c200dd00a0b82100008040001001be00a2
:103780001e289000ae2890002df407000001be0016
:103790002e109000be109000ccf307002017980068
:1037a000311798006e1c90006140b9009bf3070030
:1037b00070279800012f98000800e00007003d00e6
:1037c00002002000037824007e2090008e289000c4
:1037d000bef3070070279800012f98004e08900054
:1037e000c200dd00a0bb2100008040001001be002f
:1037f0007e2090008e28900011f407000001be008a
:103800000e1090009e109000b0f307000017980073
:1038100011179800ee1890007e089000808f5000dd
:10382000090036007e089000600f9800be58900096
:10383000215f98006e189000700f98004e0890005d
:10384000305f980008003700ee1890006e08900076
:10385000808f500004003600ee189000610f980031
:103860004e089000205f98004e0890000000e8008d
:10387000400f98004e089000eb0f50008eff340070
:103880006011b8002e109000be10900020f40700c8
:103890000000e00001003a00080037002e119000ff
:1038a000be1190000e1090009e1090001af40700b8
:1038b000200f9800310f9800030037006000b80017
:1038c000200f9800310f98007e089000cf80de0016
:1038d00052f3070050279800612798007e08900057
:1038e0000000e00007003d000200200003782400f3
:1038f0005e209000ee20900074f30700502798009f
:10390000612798007e089000cf80de0043f3070017
:1039100030279800412798007e0890000000e000c2
:1039200007003d0002002000037824003e209000a4
:10393000ce20900065f307003027980041279800bb
:103940003e219000ce2190005e209000ee2090005d
:10395000bbf30700000f9800110f98000e099000ac
:103960009e0990000e0890009e089000b4f3070096
:10397000000f9800110f98006e089000cf80de00b5
:1039800026f3070010279800212798006e08900062
:103990000000e00007003d00020020000378240042
:1039a0001e209000ae20900048f3070010279800da
:1039b000212798006e089000cf80de0017f30700e3
:1039c000701f9800012798006e0890000000e0002a
:1039d00007003d0002002000037824007e189000bc
:1039e0008e20900039f30700701f9800012798007f
:1039f0007e1990008e2190001e209000ae20900035
:103a00008ff3070060079800710798006e0190001f
:103a1000fe0190006e009000fe00900088f3070009
:103a200060079800710798003e5890000000fb0066
:103a3000c200dd00a0be2100008040001001be00d9
:103a40002e089000be0890001ff30700cff3070078
:103a500040079800510798004e019000de01900049
:103a60004e009000de00900075f3070040079800bc
:103a7000510798002e5890000000fb00c200dd00a6
:103a8000a0be2100008040001001be002e08900062
:103a9000be0890000cf30700bcf307002007980055
:103aa000310798002e019000be0190002e0090007a
:103ab000be00900062f307002007980031079800cd
:103ac0004e019000de0190000e0890009e089000cc
:103ad000b0f30700000f9800110f98002e0190001e
:103ae000be0190006e009000fe009000a9f3070058
:103af00060079800710798006e019000fe01900029
:103b00000e0890009e089000f0f20700e3f3070013
:103b1000e2f30700008fbe0021a98000e002200030
:103b20000e0040000108780002002400c361240058
:103b30002e089000be08900041f307000cf4070027
:103b400080007800e00220000e0040006100980034
:103b50001e00be0027f4070080007800e00220006d
:103b60000e00400031009800e00220000e004000ee
:103b7000fe08900041009800be589000e00220002e
:103b80000e004000214898002e089000be089000ca
:103b9000e20220000e01410010019800210198006e
:103ba000e00220000e00400090007800100190001c
:103bb000a001900030029000c002900050039000dd
:103bc000e003900040392100c0030700860207008f
:103bd0000004e00001003200ab0107000000eb0030
:103be00010a988000000eb0040a888000000eb004e
:103bf000400f9800130037004e0890006a00b9008b
:103c0000e8004000605221008080400010c0b300f6
:103c1000804878000000eb0050a688004e08900015
:103c20006a00b90080007800605221008080400066
:103c30000000eb00800878004e0890000000e800cb
:103c4000400f98004e089000eb0f5000eaff340040
:103c5000220037000000eb005017980019003700d1
:103c6000de109000400e20000088b900800078002f
:103c7000408e200000804000660307000000e00046
:103c8000f7ff3a005e1090006a00b900e4004000bf
:103c90006052210000814000de109000400e2000a4
:103ca0000088b90080007800408e2000008040002d
:103cb00082007800320307005e1090000000e800e8
:103cc000501798005e109000eb0f5000e4ff340096
:103cd00021a9800060522100ea0807004f04780003
:103ce0000080fa00000006000200fa00000f7800d1
:103cf0009e00780040392100a30307000000fb006c
:103d00000080fa00000006000e00fa00000f7800a4
:103d1000110798002207980033079800440798007d
:103d200055079800660798008e00780040392100fa
:103d3000950307000000fb000080fa000000060069
:103d40000000fa00a0a180000000fb000080fa0043
:103d5000000006000200fa00004f78001e00fb0081
:103d6000a0a188000080fa00000006000000fa0010
:103d700031e2a80031a2a8003182a900112320005d
:103d800091407800c0cfb30000c0600031e2b700be
:103d900030e2a90030c2a90030a2a9003082a900f7
:103da0003062a900012320009140780090cfb30039
:103db00000c0600030e2b7003002a90033e2a90081
:103dc00033a2a90033c2a9003362a9003342a8007c
:103dd0003322a90032c2bf00f043b20032e2b70082
:103de00032a2a900a0022000c011880087e0a9002b
:103df00087c0a90097e0a80097c0a8000080fa003b
:103e0000000006000000fa002ff607000080fa000c
:103e1000000006000200fa00000f78001e00780083
:103e20002ff6070048f607000004e000fdff3a0007
:103e30000080fa00000006000000fa0087e0a900f8
:103e40000080fa00004006003600f800809fbe00a7
:103e5000829fbe00849fbe00869fbe003c00fa0089
:103e600087c0a9000040eb0040479800b0118000d7
:103e7000404798000080eb00100798004e409000eb
:103e80000000fb006101b900f0fc2f00f1ff2f00e2
:103e90000201400083814800421f9800531f980090
:103ea00050032000010020004e199000de19900000
:103eb000800f5100818f590078003e004e1890000d
:103ec000de18900000600100350037003700370031
:103ed000390037003b0037003d0037003f00370016
:103ee0004100370043003700450037006b003700c2
:103ef0006a00370069003700680037006700370044
:103f00006600370065003700520037005400370064
:103f100056003700580037005a0037005c00370061
:103f20005e0037005d0037005c0037005b00370043
:103f30005a00370059003700580037005700370043
:103f40005600370055003700540037005300370043
:103f50005200370051003700500037004f00370043
:103f60004e0037004d0037004c0037004b00370043
:103f70004a00370049003700480037004700370043
:103f80004600370045003700200037002200370088
:103f90002400370026003700280037002a003700a9
:103fa00010002000100798003e003700200020007d
:103fb000100798003b0037003000200010079800e1
:103fc0003800370040002000100798003500370007
:103fd00050002000100798003200370060002000d9
:103fe000100798002f00370070002000100798007d
:103ff0002c003700800020001007980029003700af
:10400000900020001007980026003700a000200034
:104010001007980023003700b00020001007980018
:1040200020003700c0002000100798001d00370056
:10403000d0002000100798001a003700e000200090
:104040001007980017003700f000200010079800b4
:1040500014003700a000200010079800110037005e
:10406000b0002000100798000e003700c0002000ac
:10407000100798000b003700d000200010079800b0
:1040800008003700e0002000100798000500370006
:10409000f000200010079800020037000080eb00bd
:1040a000100798001e009000ef0f50002a003c00ff
:1040b000bbddbf000000fb00c1db210000004000b1
:1040c000010040009e00900001087800bbddbf00a9
:1040d0000040e800bbfdb700bbddbf00e34f500070
:1040e0002b0034000040eb00bbfdb700c0db21001b
:1040f00010007800cc00dd00c0db21001000900033
:104100004800dd0080804000c0db210020009000de
:104110004400dd0080804000c0db210030009000c2
:10412000008f40001e0078003f030700e5004700b5
:104130001e017800821f7800402b2900801f780024
:104140000100780092f50700e487570065004700fa
:1041500030ff07000e0037000040eb00bbfdb7004a
:10416000c1db21000000eb0080087800c1db2100ea
:104170000000eb0090009800c1db21000000eb0084
:10418000a0009800c1db21000000eb00b000980007
:104190000080fa004f03be004f02be004f01be0078
:1041a0004f00be003600f900004006000000fa0093
:1041b000e0a82100c001070021e2a80021a2a80078
:1041c0002182a9001122200091407800c0cfb300c5
:1041d00000c0600021e2b70020e2a90020c2a900cf
:1041e00020a2a9002082a9002062a90001222000ab
:1041f0009140780090cfb30000c0600020e2b7008b
:104200002002a90023e2a90023a2a90023c2a90039
:104210002362a9002342a8002322a90022c2bf00d2
:10422000f043b20022e2b70022a2a900a0022000bf
:10423000401188008580a9008560a900910a2000ae
:1042400091407800f0c8b30000c0600001c6b30020
:1042500001407000a9e0b7009580a8009560a80013
:104260000040eb008cfab700e0a82100fd01070038
:104270000080fa00000006000000fa0036f5070092
:104280000080fa00000006000000fa000800370075
:10429000c0a7210050d4880010c0b3008cfab7002a
:1042a00050d48000104078000080fb0030f50700fb
:1042b000c0a721008cfe07000004e000f4ff3a00d4
:1042c0000080fa0000000600801f78000000fa005d
:1042d0008580a9008cdabf00eb4f50000a003c003b
:1042e00050d480000000e80050d4880050d48000f2
:1042f000104078000000fb00201188008cdabf001d
:104300000040e8008cfab7000080fa004f00780007
:10431000004006003600f800809fbe00829fbe006d
:10432000849fbe00869fbe000200fa008560a9003f
:104330000040eb00004f780030118000004f780003
:104340009e00fb00e0a82100680107000080fa0041
:104350004f03be004f02be004f01be004f00be0023
:104360003600f900004006004000fa000000eb00b3
:10437000201f98000000eb00301f9800e0a82100eb
:10438000b2010700e40f50008a003400410320000e
:104390008e804000e0a8210079010700ae1890004f
:1043a000f00f200080806000a00a2000808f500065
:1043b00080003a00810320008e804000e0a82100a8
:1043c0006f010700ce189000f00f20000080600001
:1043d000f20f500077003e00a10320008e804000c5
:1043e000e0a8210066010700c10320008e80400084
:1043f000e0a8210062010700610320008e804000d8
:10440000e0a821005e010700be189000f00f200018
:104410008080600050052000808f500065003a00c9
:10442000be189000f00f200000826000ee1890008f
:10443000f00f200080826000de189000f00f200056
:1044400000816000ce189000f00f20008081600095
:10445000ae189000f00f2000008060008e80e80011
:10446000841f7800851f7800821f7800831f7800e2
:10447000801f7800302c2900801f78000100780010
:10448000c3f40700ec8757000e80e80061fe0700c8
:10449000ce189000f00f200080806000711f9800ff
:1044a0007e189000ef0f5000140032007e1890002c
:1044b000ef0f500007003e007e189000ec0f5000f8
:1044c000120032007e189000ee0f500018003200eb
:1044d000250037007e189000f10f500011003200c7
:1044e0007e189000f10f5000060039007e189000f1
:1044f000f20f5000190032001b0037007302070052
:104500002c003700cff807002a0037005e18900013
:1045100080007800f00f2000008060002309070071
:10452000240037005e1890000afe070021003700c3
:104530005e189000c800dd0000f02f0000816000d0
:10454000ee189000f00f200000806000000f410086
:104550001e00780034020700160037005e18900035
:104560001b000700130037004e189000f10f2000c9
:1045700001006000eb0f50000e003e005e1890003e
:10458000c800dd0000f02f0000816000ee189000f0
:10459000f00f200000806000000f41004e189000d6
:1045a00080007800f00f2000008060009e007800fe
:1045b000350207000080fa00000006000000fa0043
:1045c000e0a82100270107000080fa000000060093
:1045d0000200fa00004f78001e407800bafdb700d4
:1045e0000080fa00000006000000fa00baddbf00fb
:1045f0000000fb000080fa00000006000200fa0044
:10460000000f78009e007800c044200080804000a9
:104610000000eb00800878009e007800e044200055
:104620008080400090002000800878009e00780084
:1046300000452000808040000000eb0080087800ea
:104640000080fa00000006006c00fa003037980085
:1046500041379800be3090000045200000804000a7
:1046600010007800e90f5000030034000000eb0058
:10467000503798003d003700be309000e0442000e5
:1046800000804000100078000000e800a200200038
:10469000110009000200d8008000fd000001780030
:1046a000be309000e0442000008040000208780006
:1046b0000000eb00000f78001e003700be309000b5
:1046c000e044200000804000100278009e02780044
:1046d0001e00780000004000800078004e309000fe
:1046e000008040001000780000017800be3190008a
:1046f0002003200000a0b900050040000000400099
:1047000002b079009e0178001e0078000000400091
:10471000800078004e30900000804000100078004b
:10472000000178008e80e8000380410002b078002c
:104730001e0fe800100320009e0f1000dfff340062
:10474000be3090000045200000804000100078003e
:104750000001e800be3090000045200000804000cd
:104760000208780010002000503798005e3090005a
:104770000080fa00000006000800fa001007980008
:10478000210798009e009000004520000080400016
:10479000100078000000e00003003c000000eb0087
:1047a00030079800310037000000eb00000f780060
:1047b000120037001e0078000000400080007800e2
:1047c0002e009000008240009e009000c044200017
:1047d00000804000900078001e0178009e0190004b
:1047e000200320000088b9000200400000004000c3
:1047f00060807900000a78001e0fe8001003200096
:104800009e0f1000ebff34009e009000c04420007b
:1048100000804000100078000000e800a2002000a6
:10482000110009000200d8008000fd00000178009e
:104830009e009000c04420000080400002087800e4
:104840009e0090000045200000804000100078008d
:104850000001e9009e00900000452000008040001b
:104860000208780010002000300798003e009000f9
:104870000080fa00000006000400fa00000f780033
:104880009e00780000452000008040001000780065
:104890000000e00003003c0010002000100798001a
:1048a000020037000000eb00100798001e00900087
:1048b0000080fa00000006000200fa00000f7800f5
:1048c0009e0078000000eb00f0a898009e007800a1
:1048d000d006200080b098009e0078000000eb0019
:1048e00090b098000080fa00000006000600fa0070
:1048f000000f7800110798001e00780090b090001b
:10490000d0062000808f5000030034000000eb0030
:1049100020079800170037001e00780000b09000b4
:104920000000e800e2062000110009000200d800a3
:104930008000fd00800078001e00780001b0980023
:104940001e00780000b090009e007800000040003b
:104950001e01900002b078001e00780010b0900098
:104960008000e8001e00780011b0980010002000c0
:10497000200798002e0090000080fa00000006003a
:104980000600fa00000f7800110798001e0078005a
:1049900010b090000000e00003003c000000eb00bd
:1049a00020079800180037001e00780070a89000bb
:1049b0009e00780000004000e08078001e0090001b
:1049c000010878001e00780070a890000000e80040
:1049d000e2062000110009000200d8008000fd005e
:1049e000800078001e00780071a898001e007800f2
:1049f00010b090008000e9001e00780011b098000f
:104a000010002000200798002e0090000080fa007f
:104a1000000006000400fa00000f78001e00780075
:104a200010b090000000e00003003c0010002000e7
:104a300010079800020037000000eb0010079800f4
:104a40001e0090000080fa00000006000200fa003c
:104a5000000f78001e00780010b090000080fa006f
:104a6000000006000200fa00000f78009e007800a7
:104a70000000eb00f0a898009e007800d00620000f
:104a800080b098009e0078000000eb0090b0980085
:104a90000080fa00000006000200fa00000f780013
:104aa0009e0078000000eb00d08898009e007800ff
:104ab00090002000e08898009e0078000000eb0045
:104ac000f08898000080fa00000006001200fa004a
:104ad000000f78000e80e8000108780012009800ae
:104ae0002300980034009800450098005600980074
:104af000670098001e00780070889000e90f500051
:104b0000030034000000eb00000f98001b0037008a
:104b10001e007800608890000000e800a2002000dd
:104b2000110009000200d8008000fd00800078001c
:104b30001e007800618898001e0078006088900050
:104b40001e0178006e00b900820040000e80e8006f
:104b500006000900b0187800e100b100e000b100e3
:104b60001e007800708890008000e8001e00780029
:104b70007188980010002000000f98000e08900027
:104b80000080fa00000006000600fa00000f78001e
:104b9000110798001e007800708890000000e00067
:104ba00003003c000000eb00200798001b003700ca
:104bb0001e007800508890009e0190001e01780031
:104bc0006e00b9000200400006000900b01978002c
:104bd000e300b100e000b1001e00780050889000b2
:104be0000000e800a2002000110009000200d80027
:104bf0008000fd00800078001e0078005188980039
:104c00001e007800708890008000e9001e00780087
:104c10007188980010002000200798002e00900056
:104c20000080fa00000006000400fa00000f78007f
:104c30001e007800708890000000e00003003c0037
:104c40001000200010079800020037000000eb0061
:104c5000100798001e0090000080fa000000060077
:104c60000200fa00000f78009e0078000000eb00c0
:104c7000801898009e0078000000eb0090189800c3
:104c80009e0078000000eb00a01898000080fa0059
:104c9000000006000800fa0010079800210798009d
:104ca0001e009000201890000000e0000300340077
:104cb0000000eb00300798001f0037001e00900036
:104cc0008000eb00111898000000eb00000f780046
:104cd0000f0037001e009000901990001e0278000f
:104ce0001e007800800078002e00900000804000b8
:104cf000104078008082fb001e0190006c18b90003
:104d00000400400000004000053079001e0fe8005c
:104d1000b00020009e0f1000eeff34001e00900037
:104d2000201890008000e8001e00900021189800d4
:104d300010002000300798003e0090000080fa002c
:104d4000000006000800fa001007980021079800ec
:104d50001e009000201890000000e00003003c00be
:104d60000000eb00300798001e0037000000eb0049
:104d7000000f78000e0037001e00780080007800d9
:104d80002e009000008240001e009000001890004d
:104d90001e0178009e0190006c00b90002004000e6
:104da0000000400060807900004a78001e0fe80093
:104db000b00020009e0f1000efff34009e00900016
:104dc0000000eb00801898001e0090002018900052
:104dd0008000e9001e0090002118980010002000bb
:104de000300798003e0090000080fa0000000600a6
:104df0000400fa00000f78001e00780020189000d0
:104e00000000e00003003c001000200010079800a4
:104e1000020037000000eb00100798001e00900011
:104e20000080fa00000006000400fa001007980055
:104e30000000eb00000f78000d0037001e00780026
:104e40008000400080d62100008040009e0090003d
:104e5000010878001e0078008000400000d8210082
:104e60008080400010002000800878001e0fe800bd
:104e7000b00020009e0f1000f0ff34001300070068
:104e80000080fa00000006000400fa00000f78001d
:104e9000110798001e0078008000400080d6210095
:104ea000008040009e009000010878001e007800fd
:104eb0008000400000d821008080400010002000c9
:104ec000800878000080fa0000000600fe00fa006a
:104ed0000000eb00000f78000000eb0020079800b6
:104ee0000e0037002e009000660147008000400051
:104ef0000000eb00803079002e009000820320003b
:104f00000e014100800040000000eb00803079007d
:104f10002e0090000000e800200798002e0090006e
:104f2000f60f5000efff34000000eb002007980060
:104f30000f0037002e009000e20c20000e0141000f
:104f4000800040000000eb00803079002e009000cf
:104f5000620e20000e014100800040000000eb00c6
:104f6000803079002e0090000000e80020079800b3
:104f70002e009000eb0f5000eeff34000000eb001d
:104f800010079800120037001e00900080004000bb
:104f900000d821000080400010007800e10f500090
:104fa00008003a001e0090008000400080d92100d7
:104fb0000080400090007800100020000100dd001b
:104fc0001e0f40001e0090000000e800100798002f
:104fd0001e009000eb0f5000ebff34000000eb00d0
:104fe000200798000c0037002e009000e6004700d4
:104ff000000040001eb078002e00900081032000c9
:105000008e804000000040001eb078002e0090000e
:105010000000e800200798002e009000e20f5000ea
:10502000f1ff34000000eb00200798004d0037002e
:105030000000eb0010079800440037001e009000ad
:105040008000400080d62100008040009000780061
:105050002e0090000008de00610f60002e0090001e
:10506000e30140002e00900063004000e60047008e
:1050700000004000608178001e0090008000400029
:1050800080d9210000804000900078001e00780048
:105090000100dd0000014100e600470003804100ff
:1050a00002b078001e0090008000400000d821006f
:1050b0000080400010007800e10f500015003a0019
:1050c0002e009000630240002e009000630040001c
:1050d000810320008e804000000040006081780045
:1050e0001e80ea00e10160001e0090008000400088
:1050f00080d9210000804000100078000018dd00f9
:1051000000014100810320008e8040000400420025
:1051100002b078009e0190001e009000e10c20007b
:105120008e80400000004000608078001e0140003a
:10513000e10c20008e8040000380410002b0780026
:105140001e0090000000e800100798001e0090006c
:10515000eb0f5000b9ff34002e0090000000e80073
:10516000200798002e009000ef0f5000b0ff340091
:105170000000eb0020079800ba003700ae01900055
:105180002e009000e10c20008e80400000004000c6
:10519000608078006f016000e10c20008e8040008c
:1051a0000380410002b07800ae0190002e00900014
:1051b000e10c20008e8040000000400060807800fc
:1051c00070011000e10c20008e804000038041003f
:1051d00002b0780066004700b01190002e009000e9
:1051e000e10c20008e8040000000400060807800cc
:1051f0004300de00610160002e009000800040004e
:1052000080d9210000804000100078000010dd00ef
:10521000808041006600470031109800660047001a
:10522000c01190002e009000e10c20008e80400004
:1052300000004000608078004200de0061016000f4
:105240002e0090008000400080d9210000804000a6
:10525000100078000010dd008080410066004700eb
:105260004110980066004700d01190002e00900079
:10527000e10c20008e80400000004000608078003b
:105280000000d100610160002e009000800040000d
:1052900080d9210000804000100078000010dd005f
:1052a000808041006600470051109800660047006a
:1052b000e01190002e009000e10c20008e80400054
:1052c0000000400060807800610160002e009000c6
:1052d0008000400080d9210000804000100078004c
:1052e0000010dd00808041006600470061109800da
:1052f0002e0090008000400000d821000080400077
:1053000010007800e10f500053003a0080032000a5
:105310000e004000b01190002e009000e10c200023
:105320008e80400000004000608078000080ea002d
:105330004300de00610160002e009000800040000c
:1053400080d9210000804000100078000010dd00ae
:1053500080804100800320000e0040003110980042
:10536000800320000e004000c01190002e0090002d
:10537000e10c20008e80400000004000608078003a
:105380000080ea004200de00610160002e00900013
:105390008000400080d9210000804000100078008b
:1053a0000010dd0080804100800320000e004000de
:1053b00041109800800320000e004000d0119000a2
:1053c0002e009000e10c20008e8040000000400084
:1053d000608078000080ea000000d1006101600078
:1053e0002e0090008000400080d921000080400005
:1053f000100078000010dd00808041008003200054
:105400000e00400051109800800320000e00400064
:10541000e01190002e009000e10c20008e804000f2
:1054200000004000608078000080ea0061016000b8
:105430002e0090008000400080d9210000804000b4
:10544000100078000010dd00808041008003200003
:105450000e004000611098002e0090000000e8004f
:10546000200798002e009000eb0f500043ff3400ff
:10547000e60047000000eb00f0109800e60047004f
:105480000000eb0080189800810320008e8040000f
:105490000000eb00f0109800810320008e80400097
:1054a0000000eb00801898000000eb002007980037
:1054b0001a0037002e0090000000400080017800a4
:1054c0002e009000e6004700000040006081780058
:1054d000a10620008e8040000380410002b07800c9
:1054e0002e009000000040008001e8002e00900097
:1054f000810320008e804000000040006081780021
:10550000a10620008e8040000380410002b0780098
:105510002e0090000000e800200798002e00900068
:10552000f60f5000e3ff3400a00620000e004000fc
:10553000eb0307000000eb00200798000f00370086
:105540002e0090008000400080d621008080400026
:105550000000eb00800878002e00900080004000e2
:1055600000d82100808040000000eb008008780017
:105570002e0090000000e800200798002e00900008
:10558000eb0f5000eeff34000080fa000000060030
:105590000000fa0007e2a8000742a900acc0bf0063
:1055a0007040b300ace0b7008600a9009600a800e8
:1055b00000042900301088000002200050108800ec
:1055c000670207000080fa00000006003600f800bd
:1055d000809fbe00829fbe00849fbe00869fbe004b
:1055e0000000fa0008c2bf000042b2000004e00060
:1055f00015003a0000108000a6fcb70008c2bf00ea
:10560000644060000004e0000c003200a8dcbf0031
:105610003b0007000000fb00101088000782a80074
:1056200008c2bf00614060000004e000fcff3a00d7
:1056300030c0b300a7fcb7002900370010c0b3008a
:10564000a7fcb70026003700a7dcbf00e14f5000e1
:1056500008003a0000108000a8fcb7000782a800ec
:1056600020c0b300a7fcb7000040eb00a9fcb700c6
:105670001b003700a7dcbf00e24f500006003a00d5
:105680000010800080407800a8dcbf0013010700f4
:105690000782a80012003700a7dcbf00e34f5000cc
:1056a0000f003a0081ca210091407800a9dcbf00b8
:1056b00000c04000120007000000fb00101088002e
:1056c0000782a80008c2bf00614060000004e0003b
:1056d000fcff3a00a9dcbf000040e800a9fcb700cd
:1056e0008600a9000080fa004f03be004f02be00f2
:1056f0004f01be004f00be003600f900004006001a
:105700000a00fa00204798002e4090000000fb009d
:105710006101b9003207980043079800e0022000b9
:10572000010020003e019000ce019000800f51004a
:10573000818f5900e4003e003e009000ce009000b2
:10574000006001002e0037003200370036003700bd
:105750003900370040003700460037004a00370064
:105760004d0037005100370054003700d600370095
:10577000d5003700d4003700d3003700d2003700ff
:10578000d1003700d0003700cf003700ce003700ff
:10579000cd0037004d00370052003700560037006b
:1057a000590037005d0037006000370064003700a3
:1057b000670037006b0037006e003700720037005b
:1057c00075003700790037007c0037008000370013
:1057d00083003700870037008a0037008e003700cb
:1057e0009100370095003700980037009c00370083
:1057f0009f003700a3003700a6003700aa0037003b
:1058000080c9210038f907000000fb00200798003c
:10581000af003700c0e480004800de000000fb005d
:1058200020079800aa003700c0e480000000fb00b9
:1058300020079800a600370020e580004880de00a1
:105840008040780000c0eb0000c060000000fb005a
:10585000200798009e00370020e5800080407800f7
:1058600000c0eb0000c060000000fb0020079800b3
:1058700097003700f0e480004800de000000fb00e5
:105880002007980092003700f0e480000000fb0041
:10589000200798008e00370000e580004800de00f9
:1058a0000000fb00200798008900370000e5800019
:1058b0000000fb002007980085003700a2dcbf0035
:1058c0000000fb00200798008100370061c921001b
:1058d000e0c12100290207000000fb00200798001a
:1058e0007b00370010e180004800de000000fb0074
:1058f000200798007600370010e180000000fb00d0
:10590000200798007200370060e180004800de0048
:105910000000fb00200798006d00370060e1800068
:105920000000fb002007980069003700b0e180000c
:105930004800de000000fb002007980064003700ec
:10594000b0e180000000fb002007980060003700f5
:1059500000e280004800de000000fb002007980005
:105960005b00370000e280000000fb002007980089
:105970005700370050e280004800de000000fb00c6
:10598000200798005200370050e280000000fb0022
:10599000200798004e003700a0e280004800de009b
:1059a0000000fb002007980049003700a0e28000bb
:1059b0000000fb002007980045003700f0e280005f
:1059c0004800de000000fb00200798004000370080
:1059d000f0e280000000fb00200798003c00370048
:1059e00040e380004800de000000fb002007980034
:1059f0003700370040e380000000fb0020079800dc
:105a00003300370090e380004800de000000fb0018
:105a1000200798002e00370090e380000000fb0074
:105a2000200798002a003700e0e380004800de00ed
:105a30000000fb002007980025003700e0e380000d
:105a40000000fb00200798002100370030e48000b0
:105a50004800de000000fb00200798001c00370013
:105a600030e480000000fb00200798001800370099
:105a700080e480004800de000000fb002007980062
