:020000040000fa
:080000000002040000000000f2
:020000040000fa
:100400008fe9210000ff27000001880000000000a4
:100410000c000700803223000100200011000700bb
:10042000000020000000e000020032000000020096
:10043000000000002c360200000000000040da003e
:100440000000fe004440a900400520000000e0003c
:100450000300320000002000a00188004440a800f2
:100460000000060091018800800078000000eb0089
:1004700015003700e280400032a0b4009101ba00bc
:10048000e280400032a0b4009102ba00e280400055
:1004900032a0b4000002eb00472bde00f507b200eb
:1004a000602ce10004003a000059eb008301e900f0
:1004b000fdff3e00040037006128e100010032002a
:1004c0000082eb00040007001101ba000200e00006
:1004d000e8ff3a00000006003159ba008301e90044
:1004e0000c0032002159ba008301e90008003200f3
:1004f0000400e00003003a00e280400032a0b400b3
:10050000f5ff370011d9ba008301e900faff3a007c
:100510008100e800e180400032a0b4000000060045
:100520009402040000000000881f78000204780094
:1005300025000700080040004f0478000000060076
:100540000000fa00881f7800000478003fb9970087
:10055000ea81570080007800402920002100070030
:10056000800078000000e000020035000040eb0051
:1005700000f47800010078004f0478000080fa0051
:1005800000000600881f78000004780060f48000f6
:100590000000e0000100320000000100e0e821005e
:1005a0000048eb0030f480000000e0000100320061
:1005b000000001006140b80040f4880051f4880058
:1005c0004f047800000006008001eb0002003700b5
:1005d00061f079008301e800828f5100fcff3a004e
:1005e000000006006200fa00889fbe008a9fbe00dd
:1005f0000004be00020578008300780060f92f0037
:100600000f0040000501070088979f0099979f0001
:100610000000eb00a09f9f009a4578000b80fb0034
:100620000000ea00cf04de0050c2b30080cf5500c6
:100630000200320009047800010037000904e900d3
:100640000800e0000b0034001f90970008017800bc
:100650008a0078008f9197000300010090979f0017
:100660000000e000930032002f9897000000440043
:10067000a09f9f000905450050c2b30080cf5500e0
:10068000040032000b04e000e3ff3a002f989700cb
:10069000890037000000eb00809f9f00f0979f00cb
:1006a000e0979f00d0979f00c0979f00b0979f0052
:1006b000c09f9f000900370000e821000080500023
:1006c0000000400041e72100e10078004f989700ca
:1006d00001007000c09f9f000a05e8001a447800de
:1006e0008800fb0000e82100d100070080007800ae
:1006f0000000e000f0ff3a00a0c2b300804f5400b9
:100700000e003a00bf8897000180e900b08f9f007b
:1007100010007800b09f9f000000e00005003d0041
:100720000000ea00b09f9f004f9897000020a000b3
:10073000c09f9f000a05e80010003700b19f9f008e
:1007400003fd2f00f4ff2700080037003f989700b3
:10075000840f5000040032006a00b900000041001c
:1007600003004000b09f9f000a05e8001a01fb004b
:1007700003004100e90f5000f4ff3600e0c2b3006f
:100780009a4f1000040032000080eb00909f9f0001
:100790008a0478001c0037008a04e800a0c2b30075
:1007a000994f100007003a00bf8897000180e900c8
:1007b000b08f9f0010007800909f9f008a84e8000f
:1007c000110037000000eb00909f9f0003fd2f00f9
:1007d000f4ff2700080037001f989700840f50008f
:1007e000040032006a00b90000004100030040002c
:1007f000909f9f008904e8001901fb00030041005d
:10080000e90f5000f4ff3600194478008800fb001f
:1008100000e92100860007000000e00002003a0025
:1008200000447800010037008904e800a87f9f0099
:1008300080c6b300804f540004003a00994f140062
:100840000a003a006640500006003700c0c6b300f8
:10085000804f540005003a00994f140003003a00fd
:1008600065404000a07f9f008904e8000905e8007a
:10087000cbfb2f008f8545001901fb0060f92f008d
:100880000f0040000084e8008b01780080007800b1
:10089000080078006f0007000000e00005003a0043
:1008a0008b00780008007800ad0107000000e00030
:1008b00059ff3d000080eb004f05be004f04be0015
:1008c0000080fa0000000600881f780060f48000b5
:1008d0000000e000010032000000010030f4800060
:1008e0000000e000010032000000010080ee800006
:1008f0000000e000010032000000010050ee800026
:100900000000e0000100320000000100e0e82100ea
:100910001004e00026003a0040f4800051f480000a
:100920000004eb00d260260093012000f0030700d2
:10093000f2352f00e3c6230000004100818049000a
:100940000804e800e80f5400f6ff3a0040f488007d
:1009500051f4880028dd2100d26026009301200098
:1009600040f4800051f48000e1030700f2352f00cd
:10097000e3c62300000041008180490040f4880064
:1009800051f48800009cbe0020e52100800f540037
:10099000f1ff3a0070f2800081f2800060ee880082
:1009a00071ee880011c0b300e0e821000148780032
:1009b000d26026009301200040f4800051f48000b2
:1009c000cb030700f2352f00e3c6230000004100ef
:1009d0008180490040f4880051f48800c2dc210085
:1009e000120178007f0161004211dd0023dd21004a
:1009f000030141001202be0064ee880075ee88001b
:100a00000089be0060ee800071ee80004008de00cc
:100a100000f0a1004f047800000006000200fa0078
:100a2000f1bf9f00010878000080fa000000060076
:100a3000040037000204e00001003a000000050055
:100a40000000e80010417800814f5100f9ff3a00a2
:100a500000000600889fbe008a1f7800000478000e
:100a6000010278008244780003057800e0c6b300f4
:100a7000804f5100d200320015003c006b40500006
:100a8000804f5100240032000a003c0070405000aa
:100a9000804f51000f01320065404000804f5100ef
:100aa0007400320050c2b300804f510020013a0060
:100ab0001c01370040c6b300804f51001b003200bc
:100ac00065404000804f510019013a00170037007f
:100ad00030c7b300804f5100fe00320007003c00d9
:100ae00064405000804f5100620032000040e80036
:100af000804f51000e013a00e700370050c7b300a5
:100b0000804f51005b00320063404000804f510035
:100b100007013a00570037009180e900010a780088
:100b2000780090009171780007013700a86090006c
:100b3000c0c6b30080cf50000a003a00940078008d
:100b400064805000000a78001000be004f89de006b
:100b5000cf91de000002be0002037800820378001d
:100b60001300370010c7b30080cf500003003200dd
:100b7000a0c6b30080cf500006003a009400780071
:100b800068805000000a78003002be002003be00da
:100b9000070037001480e900000a78001000780090
:100ba00000027800cfa2de000503780086037800fb
:100bb000049cbe000694be00a860900080c6b300ee
:100bc00080cf50000e00320020c6b30080cf50000e
:100bd00005003a000400fb00cf80de000101780030
:100be000820178000a00370040c7b30080cf500070
:100bf000030032006640400080cf500006003a00fb
:100c000004007800cf80de000101780082017800c6
:100c1000009cbe000294be003800be002801be0049
:100c2000e00f5000e08f5800e00f5900e08f5900ae
:100c300003003d0078009000d1c2b3000a003700e5
:100c4000081090000018a300030032007800900004
:100c5000b1c2b300040037000008a3005300320003
:100c60007800900001c2b300017578000000e80030
:100c70004d003700a8609000c0c6b30080cf500080
:100c800006003a009400780064805000000a780062
:100c90001002be006033b8001300370010c7b30065
:100ca00080cf500003003200a0c6b30080cf5000b8
:100cb00006003a009400780068805000000a78002e
:100cc0003002be002003be00070037001480e90098
:100cd000000a78001000780000027800050020006b
:100ce0000600200007002000049cbe000694be0001
:100cf000a860900080c6b30080cf50000e00320084
:100d000020c6b30080cf500005003a000480fb00ed
:100d10000100200002002000030020000a0037002c
:100d200040c7b30080cf500003003200664040004f
:100d300080cf500006003a00040078000100200037
:100d40000200200003002000009cbe000294be00b0
:100d5000081090000038a300140032003800be00d4
:100d60002801be00e00f5000e08f5800e00f59004e
:100d7000e08f59000d00320080c7b30080cf5400cf
:100d80000300320080c5b30080cf540007003a0052
:100d90007800900001c3b300017578008000e8007e
:100da00009f578000080e800700498007800900051
:100db0000000450060049800894078004200370038
:100dc000a8609000c0c6b30080cf5000250032005c
:100dd0000a003c006440500080cf500028003200e0
:100de00000c0e80080cf500014003200684050007e
:100df00080cf500022003a000a00370040c7b300fd
:100e000080cf50001e0032006640400080cf50006e
:100e10001b0032006940500080cf500018003a009b
:100e2000060037001480e900000a780010007800fe
:100e3000485c900008487800450037001480e900bd
:100e4000000a78001002780068089000cf80de0069
:100e50000101780082017800009abe000292be0073
:100e60003b0037001480e900000a78001001780088
:100e700068089000cf80de000089be003400370093
:100e80001480e900000a780010007800680c9000d7
:100e9000080878002e0037001180e90080087800eb
:100ea00010007800cf80de00010178008201780018
:100eb000009cbe000294be00780090000000450037
:100ec0006004980081c7b30008007800ee000700b6
:100ed0001f0037001480e900000a78001000780035
:100ee00060049800580990000200e00002003d00f4
:100ef0006e020700090037008000eb007202070055
:100f0000800078000000e0000300320068009000dc
:100f1000008050000100370058089000100c980025
:100f20000b0037007800900002757800060037004b
:100f300078009000800045000904e00001003a00bc
:100f400059c2b300894878000000e8007004980096
:100f50000000eb004f0578004f04be0000000600c3
:100f60000400fa00889fbe008a9fbe008c1f780094
:100f7000000478000106780070089000f8009000e6
:100f8000010050008808900001005000980890006f
:100f900001005000a808900001005000b80890001f
:100fa00001005000c8089000810550000002220096
:100fb00090bf9f0000032300a0bf9f000810900077
:100fc0000028a30018003a000b00e00016003400cf
:100fd0008b04780009057800e28f54000200360087
:100fe0002a002000020037000900e0000b00340056
:100ff00058009000c80190000a017800ee80570068
:1010000003000100500498000000e0009600320048
:101010006808900000004500600c98008a84540025
:101020004240a900ebff3c00780190000200e00084
:101030000b00340058009000c80190008c0078002c
:1010400003000100500498000000e0008600320018
:1010500068089000f800900001004000600c9800c3
:10106000880c90000900e0001500340009057800a4
:10107000e28f5400020036002a00200002003700f0
:101080000900e0000b00340058009000c8019000f7
:101090000a017800ec80570003000100500498001a
:1010a0000000e00070003200680890000000450079
:1010b000600c98008a8454004240a900ebff3c0079
:1010c000180990000200e0000b003400e8009000d6
:1010d00058009000c80190000300010050049800df
:1010e0000000e0006000320068089000980890005e
:1010f00001004000600c9800a80c90000900e0007e
:101100001500340009057800e28f54000200360013
:101110002a002000020037000900e0000b00340024
:1011200058009000c80190000a017800ec80570038
:1011300003000100500498000000e0004a00320063
:101140006808900000004500600c98008a845400f4
:101150004240a900ebff3c00380990000200e0008b
:101160000d003400e80090001808900080804000d6
:1011700058009000c801900003000100500498003e
:101180000000e0003800320068089000b8089000c5
:1011900001004000600c9800c80c90000900e000bd
:1011a0001500340009057800e28f54000200360073
:1011b0002a002000020037000900e0000b00340084
:1011c00058009000c80190000a017800ec80570098
:1011d00003000100500498000000e00022003200eb
:1011e0006808900000004500600c98008a84540054
:1011f0004240a900ebff3c00081090000028a3002b
:101200001b0032000b00e000190034008b04780052
:1012100009057800e28f5400020036002a00200001
:10122000020037000900e0000b0034005800900075
:10123000c80190000a017800ee8057000300010009
:10124000500498000000e000070032006808900099
:1012500000004500600c98008a8454004240a900b8
:1012600003003400eaff37000080eb000100370084
:101270000000eb004f0678004f05be004f04be0093
:101280000080fa00000006002f03b000889fbe0017
:101290008a9fbe008c9fbe008e1f780000077800da
:1012a00030e62100c0b79f0080c5b30080cf50005a
:1012b0000800320022e52100c2b79f0077404000bd
:1012c00080cf500003003a0083002000b3b79f0096
:1012d0000a00370080c7b30080cf500005003200fd
:1012e000a4002000b4b79f0080c5b30080cf500099
:1012f00002003a0005012000b5b79f003e04be0081
:101300002e05be0040c6b30080cf5000030032005f
:101310006540400080cf50000b003a00e00f5400c1
:10132000e08f5c00e00f5d00e08f5d0006003d0097
:101330006000b8006011b8000804500089845800ab
:101340000a0559008b855900bfb39700e88f5300f9
:1013500003003200f08f530045003a0002003700ce
:10136000360020000100370046002000e00f540046
:10137000e08f5c00e00f5d00e08f5d0005003a004b
:101380005e08900081012000a1b79f000000e000ee
:10139000080032003fb197000200e9000800600039
:1013a000cfb197006340780090df9f007401200068
:1013b000a4b79f00860278008502e900050033008b
:1013c0008b05d1000a85d3008984d3000884d3001b
:1013d000f9ff3700089fbe000a97be00afb3970021
:1013e0000700e90021fc2f008f80400000824000b0
:1013f0003fb197008202e90012003700afb39700b7
:101400008703e900a7b79f0000806200cfb0970074
:10141000615278003e00be002e01be0086037800b7
:101420008703e900050033008381d1000281d300e6
:101430008180d3000080d300f9ff3700009fbe00f9
:101440000297be003e00be002e01be00e00f50001d
:10145000e08f5800e00f5900e08f5900d6003400ab
:10146000afb397000700e000e4ff3c00d200370074
:10147000ae60900080c6b30080cf50000b003200f9
:1014800006003c000104e000080032006640500005
:1014900080cf500073003a0004003700c0c6b3008c
:1014a00080cf50006f003a0031003700080178000b
:1014b0000800e00005003a005e089000810120006d
:1014c000a1b79f000000e00009003200bfb1970003
:1014d000110009000381d8008000fd004fb2970081
:1014e0006440780090df9f0075012000a5b79f0041
:1014f000bfb39700110009000781d8008001780070
:10150000afb097000100e90022fc2f000f0141005d
:10151000000241000c003700bfb297001100090023
:101520008501d80000017800afb397008703e90078
:10153000a7b79f000590b90000805100cfb0970079
:1015400061527800820178000300e000030034005b
:101550002fb197000200e000efff3c00030078008d
:10156000cf80de0001017800820178003a00370068
:101570000806be00e00f5400e08f5c0005003a0052
:101580005e08900083012000a3b79f000000e000e8
:10159000090032003fb297006121b9000c00be0083
:1015a000f9030700cfb297006540780090df9f00f5
:1015b00077012000a7b79f003fb297006121b900d3
:1015c0000c00be00f30307000006be00afb2970098
:1015d0000500e90027fc2f008f8343008083430030
:1015e00097b79f00110037003fb197006114b90011
:1015f0000801be000c00be00f60307000005be0097
:10160000afb197008301e900a3b79f000801be00b6
:10161000b7000700000056001fb29700cfb2970036
:101620006552780094b79f000a06be00e00f56008e
:10163000e08f5e0003003400afb397000700e000c6
:10164000e9ff3c004feade00cfa2de000c00be0046
:101650000401780084017800009fbe000297be005c
:1016600055003700e00f5400e08f5c00e00f5d0094
:10167000e08f5d0005003a005e08900081012000c7
:10168000a1b79f000000e0000d0032003fb19700bd
:1016900002027800cfa2de000503780086037800fe
:1016a0000800be000a01be005a0407004fb29700ae
:1016b0006440780090df9f0075012000a5b79f006f
:1016c0003fb1970002027800cfa2de000503780048
:1016d000860378000800be000a01be004604070029
:1016e000009fbe000297be00afb197000300e90063
:1016f00024fc2f000f0242000006420020003700a9
:10170000bfb2970005047800cfc4de000905780059
:101710008a0578000802be000a03be005fa8970091
:10172000efa897007fa997008fb197003d040700ad
:10173000d0b79f00e1b79f00f2b79f0083bf9f0023
:10174000afb397008703e900a7b79f000802be0068
:101750000a03be00b90407005faa97000000520008
:10176000cfb29700655678005fb09700efb0970052
:101770007fb197008fb99700009fbe000297be000f
:101780003e00be002e01be00d0af9f00e1af9f0023
:10179000f2af9f0083b79f00e00f5000e08f58002a
:1017a000e00f5900e08f590003003400afb09700fc
:1017b0000100e000d2ff3c003fb19700e80f51006c
:1017c00013003a000e1090000038a3001000320001
:1017d000afb19700f78f510006003e0024fc2f00a8
:1017e0000f024200e4c0790000c3b30080cf500074
:1017f00007003200afb297008502e900a5b79f004d
:1018000000c3b30027fc2f008f83430080f37a00ce
:10181000afb1970078811100120f98006e00900010
:1018200024fc2f000f0242008300420066fb0700e9
:101830001e0990005e089000800f510006003d00d8
:1018400002005000000f98000e1090000040a10010
:10185000001798000f0037000000e0000d003d0069
:101860000e10900074006000f00f500009003a0064
:101870007e089000fe009000010050008e0890004d
:1018800001005000020050004240a9000100340055
:10189000000f98004f0778004f06be004f05be00ae
:1018a0004f04be002f03b100000006008000780046
:1018b000010037000000e8001004e000fdff3a00de
:1018c00001005000000006008001eb00040037001a
:1018d0008301e80090cf1000040032000000e8000f
:1018e000828f5100faff3a000000eb000000060072
:1018f000020ab900001bb9000200b80081004200d2
:101900008100430000000600889fbe008a9fbe0041
:10191000010578000100e0000400350008003c00eb
:101920000000e000200032000500370060001000d9
:10193000e080180002003b0001f02c001a00370084
:101940000004be006011b8006b0920000982cf00be
:10195000020039000882cf000441b0006942520001
:101960000e00320008003b008281710061016400ba
:101970008904d1000884d3008b05e8000442e80004
:10198000f9ff3a00050037000804440089844c0040
:101990008b05e9000442e900fbff3a006b010700f8
:1019a0000af0a70001f0a0004f05be004f04be00e2
:1019b0000000060003f0a200889fbe008a9fbe00c0
:1019c0008c1f7800870107008e0133006450e1000e
:1019d0004f0032006420e1005200320003826c00ac
:1019e00007003b000905d0000306d000820f540019
:1019f0000c065d0002003900020032008901780007
:101a0000030678008582550004003d000003fd00b8
:101a10008103fd008502ea008b854200840f72007d
:101a200002003b0060001000e08018006011b80068
:101a30000005eb007a28e1000a0039000600780072
:101a4000c75ddd00f707b200878075002d00370005
:101a5000828171000a017800610560008180d100f7
:101a60000080d3008502e900f9ff3b000604400036
:101a70008784480002003b0060041400e0841c00de
:101a80000988a300070032008a81710082817100f9
:101a9000610164008904d1000884d3008b05e8004b
:101aa000170037000978a30013003a000b00e0008c
:101ab000130034008b05e9000804440089844c00bd
:101ac0000a4474000978a3000d003a000b00e000fe
:101ad000070034008b05e9000804440089844c00a9
:101ae00001003a000b0020000978a300f7ff320044
:101af0000001eb0002003700828171000a017800ca
:101b0000120107000cf0a70001f0a0004601370009
:101b10006420e10002003a00838f6c00460133002c
:101b20000801be000200be003f013700889fbe00d2
:101b30008a9fbe008c1f78002a0107003101330004
:101b400003866c006450e100240032006420e10050
:101b5000270032006150e100220032006120e100e4
:101b6000210032008b854200eb07b1000134b80040
:101b7000003ab8000804420089844a00013ab800db
:101b80000030b8008880400009014a00040033009a
:101b90000000400081804800020149008b05e900f7
:101ba000c909dd008301700001003200130020002c
:101bb000c814de004814dd004709de001200b20040
:101bc000c808de0008847000e000070001f0a100f2
:101bd0000cf0a70001f0a000130137006120e10024
:101be000150132000801be000200be00f7ff3700f9
:101bf0006150e100fcff3a000f01370004002000b3
:101c000010013700889fbe008a9fbe008c1f78009d
:101c1000f40007001002200002003b0040ee8800a4
:101c2000f80037008a0062006408e10002003a0010
:101c300040ee8800000137006108e100fcff32003f
:101c40000800be00030478000d00070001f0a100a9
:101c50001701070008f0a600040037000001be00cd
:101c600091042400b0fd200052ff070009f0a700f6
:101c700001f0a200ec0037000081eb007101370099
:101c8000889fbe008a9fbe008c1f7800d500070089
:101c9000dc00330003866c006450e1002e0032004b
:101ca0006420e100330032006150e1002f00320077
:101cb0006120e1003100320085855500eb07b0005e
:101cc0000900200008042000050037000804440033
:101cd00089844c000a0031000603430087834b00cf
:101ce0000001530081815b00f8ff33000203be0056
:101cf0000800a0000804440089844c00f6ff390065
:101d0000c639dd008301730001003200130020009a
:101d10008904d1000884d3000998a300050032008b
:101d20000800a7000300a0008904d1000884d300a4
:101d30008b05e8008904d1000884d3000001eb0082
:101d40000281d2008100070001f0a1000cf0a70081
:101d500001f0a000b40037006420e100b6003200ba
:101d60000801be000200be00f7ff37006120e1005d
:101d7000b10032006000b800f3ff3700000020001f
:101d800001f82700f0ff3700889fbe008a9fbe0041
:101d90008c1f78000004be00930107000478a300a4
:101da00026003a006120e1002500320009f8a30076
:101db00025003a006420e10021003200f507b1005f
:101dc0000508a300020032000000400081804800a6
:101dd0006044b80003102000020020000000400012
:101de000818048000805440089854c000a054100af
:101df0008b8549000a0550008b855800030033008d
:101e00000a00be0002047400838474008301d100c0
:101e10000281d300830f7100f0ff3a008904d100e2
:101e20000884d3006001490082017800c1adde0062
:101e3000fb07b000450007007b0037000960a000e9
:101e40000800be00780037001202200042ee880031
:101e5000f0ff2f00f1ff2700730037000001be00e4
:101e6000610107000470a70003f0a1006509b1003b
:101e7000160032000d0035006828e100060035002c
:101e8000f0ff2f00f1ff27000300e00013003b00ec
:101e9000010028000000050000004000818048008b
:101ea0008502e900fcff3a0008003700f88f420085
:101eb00002003c008000eb00000005008100d10022
:101ec0000080d3008502e800fcff3a000300e00038
:101ed00002003b0060001000e080180000000600d7
:101ee0000001be00400107000470a70003f0a1003c
:101ef00003f8a30013003a006509b1001000320096
:101f0000090035006928e1000200350001002800c1
:101f10000000050000004000818048008502e900c3
:101f2000fcff3a0000000600f88f42000500350073
:101f30008100d1000080d3008502e800fcff3a0058
:101f4000000006008000eb0000000500810020007a
:101f5000618055000b003d000b00200061fe2f004a
:101f60000100e1001d003400828171006101640004
:101f70008904d1000884d3000000e800faff3a0089
:101f80007100200061006400030070000200600026
:101f90000900320061044400e0844c000988a50077
:101fa000050032008b05e8006808e10002003a00f5
:101fb0008904d1000884d300f20f20000258e10008
:101fc00005003d00c75ddd00f907b200898075009e
:101fd00008007800000006000bf827008b0078004e
:101fe000000005000004be00ff0007000003be0063
:101ff0000405be000200be00fb000700844f750010
:10200000000006000200be006450e100050036003a
:102010006420e100020036000968a30001003a00d4
:102020000800be000160a0004f0678004f05be000a
:102030004f04be0000000600f0ff2f00f1ff270054
:10204000f9ff3700889fbe008a9fbe00841f78007a
:10205000e4ff07004f00780011003300f0ff2f006d
:10206000838f6c0006003b00040565000a00a70092
:102070000800370009f0a600100020000800370013
:10208000820f5400838f5c00030039001000200091
:1020900001003e000000200009f0a7000000ea0057
:1020a0004f05be004f04be000000e0000000060027
:1020b000889fbe008a9fbe008c9fbe000004be00a9
:1020c000c90007000800be00890678006420e1000e
:1020d00008003900040032000160a0001202200054
:1020e00042ee88005300370091fc2300b0fd200031
:1020f0004e0037000006eb0009f0a10003f82300b2
:10210000020020000800be00cc00070006003400da
:1021100001f82300000020000801be00d8fe0700df
:102120000004be002c0020000800be0093e823003d
:10213000320a2300c1000700120034000801be006b
:10214000d1fd2300703d2b001bfe07000005be00e3
:10215000b3f32300f27a26000800be0073fe0700e6
:1021600003f823000200200012fe07000801be0051
:1021700011fe07000a01be00c1fe07000004be00f8
:102180000c06e8000800be0001f0a10002002000db
:1021900003982300a90007000800be0016003500c0
:1021a0000801be0061fe07000005be0032cd2c0014
:1021b00043fb230000fe0700809fbe001269280039
:1021c00003d52b000a00be0058fe0700620f210055
:1021d00013ef2b00f8fd07000a01be0053fe0700b5
:1021e0004f01be00a6fe07000801be004ffe07001b
:1021f0000801be00f0fd07000c00e0000b003200fb
:102200000c10a70001f0a200b2fd200093fc2300f7
:102210006260e1000400320022a9200063f0230084
:102220000c10a70063f82300e3fd07000df0a700e2
:1022300001f0a2004f06be004f05be004f04be00d5
:1022400000000600889fbe008a9fbe008c9fbe00d3
:10225000820578000004be00630007000800be008d
:102260006420e1000700390002003a00f1ff270076
:10227000f0ff2f000160a0001202200042ee880053
:10228000550037006120e10003003a000b00a70071
:1022900001f823005000370001f0a10002002100e6
:1022a00093642400650007000800be0004003500a8
:1022b000b2fd2000930c2400620007000004be0061
:1022c0000005eb000b00a6004f0dde0001f0a100a1
:1022d0000004be0032982f0023ea230013fe0700fb
:1022e0000001eb0003f023000b00a70003f823001c
:1022f000b1fd0700d9fe07000000a7000a00a200f8
:1023000081fd07000b00e000030032000200200006
:1023100003f02300a7fd070001f0a2000006be00a5
:10232000020020009304240000fe07000801be0004
:10233000a1fd0700809fbe000c00be0022a22a0063
:10234000d3a72300f9fd07004f01be009afd070047
:102350000004be0001f0a100020020000398230049
:10236000360007000800be00190035000001be005d
:10237000eefd07000006be00b2c52900e36223009f
:10238000eafd070022222b00f3942b008afd0700b0
:102390000c01be00e5fd0700e273280083c02300a6
:1023a00085fd07000c01be00e0fd070042aa2a00df
:1023b000a3e22b0080fd07000c01be00dbfd07003f
:1023c0000801be00d9fd07000801be007afd070024
:1023d0000a00a70001f0a2004f06be004f05be0094
:1023e0004f04be0000000600c70ade00f107b2007d
:1023f000f50fb20008003200e1cf420002003200c7
:102400000170a00024000500810f7000010032005f
:102410000408050044000500810f700002003a0026
:10242000140005008502e9000000400081c048005a
:10243000fcff3b000170a0002400050014002000f8
:1024400000ff37000400200000003700889fbe0016
:102450008a9fbe008c1f78004f26dd00e1fe07003a
:10246000e8fe33006120e100430032006250e100e9
:1024700041003e003e0039006420e1003c00320093
:10248000058255000f003b000402e80038003a00c6
:10249000800f5300818f5b00350034000800be00c0
:1024a00003f0a10001f0a60003f0a0000cf0a700cb
:1024b00041fd0700dcfe37000603430087834b0025
:1024c0000c4646000005530081855b000200330086
:1024d0000a03be000c00a0000402e900f6ff3b0066
:1024e000850578000602430087824b0004003a000d
:1024f0006000b80009f0a70001f0a000cafe370094
:102500000002520081825a000704e00004003300f8
:102510000603430087834b008b05e900faff370071
:10252000090578000604be000203be006011b80071
:1025300086fe0700e00f5200e08f5a0007003500ca
:1025400002003c000c08a300040032000601be009b
:1025500003f0a0000cf0a70017fd07000a85680033
:1025600001f0a1000af0a70001f0a000aefe3700c4
:102570000800be00acfe3700100220000cf0a600e0
:1025800040ee8800acfe3700020007000400be00e9
:10259000000006006022b800060220000000d00003
:1025a0008180d2000482d2008582d2000000a00087
:1025b0000202520083825a000300310002024200ec
:1025c00083824a000000a1000603e900f3ff3a00fd
:1025d00000000600839f68000100e00002003d004b
:1025e00060001000e08018000300e00002003d00e1
:1025f00060011100e0811900e6ff07004f00e000d4
:1026000002003b0060001000e0801800000006009f
:10261000881f7800000478005001be004000be0012
:102620000400400085804800060149008781490078
:10263000009cbe000294be000400e1000588e10099
:102640000690e1000798e1000200310068004400b4
:102650001008e8004f04780000000600f4874700e7
:10266000889fbe008a9fbe008c9fbe008e1f780090
:102670000205be000004be00d4b79f00e5b79f006e
:10268000f6b79f0087bf9f000000eb00c0b79f0018
:10269000b0b79f00a0b79f0090b79f0080b79f0082
:1026a0000d042000bfb097004fb09700000140001c
:1026b0000000e0000f003d004f08de000000710048
:1026c000c0b79f009e00070001003d0012002000df
:1026d000a100070001003d0012002000a600070035
:1026e000b1000700b60007000f004000c8ff070058
:1026f000220037004f08de0000067100ccb79f00b3
:102700008f00070001003d0012002000920007002a
:1027100001003d001200200097000700a200070002
:102720000fb297009fb297002fb39700bfb39700e7
:10273000a90007000000520081805a0002015b00de
:1027400083815b0080b79f0091b79f00a2b79f0075
:10275000b3b79f000007eb009f0007000020e100d7
:1027600001a8e10002b0e10003b8e100010031007e
:102770001e0020000e005600c0b79f004fb2970009
:102780000400e000070035001000200001002000d8
:102790006011b80008047000898470000a05710097
:1027a0008b8571008d06e900beff3a000400e00051
:1027b00003003d00820007000f00400094ff070067
:1027c0004fa897000000e00004003a000fb4970003
:1027d0009fb497002fb59700bfb5970094000700ee
:1027e0004f0778004f06be004f05be004f04be00e5
:1027f0004f01b10000000600881f7800180020007b
:10280000881f780095ff07008f87e9004f04780044
:1028100000000600801feb0090ff07008f87e90093
:1028200000000600889fbe008a9fbe008c1f7800b3
:102830006e00070007003d0073000700e00f5b001b
:10284000e08f5b0007003d00320007000006eb0050
:10285000040037003400070002003d002a00070092
:102860001c00200072000700e3ff07000203be0007
:102870000002be000c00e000010032002200070050
:102880000400be000601be004f0678004f05be00e2
:102890004f04be0000000600889fbe008a9fbe0055
:1028a0008c1f78005100070005003d00560007000e
:1028b000e00f5b00e08f5b0006003d000400370086
:1028c0001900070003003d006000b8006011b80067
:1028d0001000070056000700ceff07000203be00ed
:1028e0000002be000c00e0000100320006000700fc
:1028f0000400be000601be004f0678004f05be0072
:102900004f04be00000006006000b8006011b8006f
:102910000000370004025000858258000603590069
:1029200087835900000006000006eb00e00f52000c
:10293000e08f5a00e00f5b00e08f5b0000000600b4
:102940000180400090b79f000001eb008fb097001e
:102950000100e000000006000200700090b79f0038
:102960000180400080b79f000001eb00ffa89700a6
:102970000100e000000006000200700080b79f0028
:10298000018040006faa9700cf20de000100700098
:10299000f0af9f0004024200250007004f18de0040
:1029a0000002720000000600e4af9f00080444002b
:1029b00089844c000a054d008b854d0000000600ff
:1029c0003fb29700cfb297005fb39700efb3970085
:1029d00000fe2f00000006003fb09700cfb0970028
:1029e0005fb19700efb19700000006000205be003e
:1029f0000004be00e00f5000e08f5800e00f5900c7
:102a0000e08f5900000006006000b8006011b800b7
:102a100008045000898458000a0559008b85590024
:102a20001c002000e00f5200e08f5a00000006005a
:102a30000800be000a01be0000000600889fbe001c
:102a40008a9fbe008c1f78000205be000004be00f5
:102a50000006eb00e00f5000e08f5800e00f590037
:102a6000e08f590007003d006000b8006011b80019
:102a700008045000898458000a0559008b855900c4
:102a80001c002000e00f5200e08f5a00e00f5b00b6
:102a9000e08f5b0002003d000f0007000c00a20069
:102aa0000800be000a01be00120007000203be00bb
:102ab0000002be000c00e00001003200060007002a
:102ac0000400be000601be004f0678004f05be00a0
:102ad0004f04be00000006006000b8006011b8009e
:102ae000040250008582580006035900878359006c
:102af00000000600889fbe008a9fbe008c9fbe001b
:102b00000404b8000506b8008904460060854e003c
:102b10000606b8000a054600e0854e000706b80024
:102b20008b054600040eb800890446000a854e0055
:102b3000e0854d00050eb8000a0546008b854e0065
:102b4000060eb8008b0546000416b8000a054600bc
:102b50008b854e000516b8008b054600041eb80094
:102b60008b0546000800be000a01be004f06be00ed
:102b70004f05be004f04be000000060031e2a90070
:102b800097c0a90097e0a90087c0a90087e0a90025
:102b900000000600800078000001780030c2bf000d
:102ba00066406000e64f500010003a000500370014
:102bb00033c2bf000018a300fdff3a00a211880035
:102bc0008180e800110178000200e000f8ff3a007f
:102bd0000000060033c2bf000018a300fdff3a004a
:102be0000100fb00a01188000201e800924078007b
:102bf0000104e000f7ff3a000000060033c2bf0006
:102c00000004a200610060000000060021e2a900ab
:102c10009560a9009580a9008560a9008580a9001c
:102c2000000006008000780020c2bf0066406000ff
:102c3000e64f500001003200f10fb2002111880070
:042c4000000006008a
:020000040000fa
:0200000401f009
:04000c00f8ff0000f9
:020000040000fa
:0200000401f009
:040010007dff000070
:020000040000fa
:0200000401f009
:040014007fff00006a
:020000040000fa
:10000800fa370000fa370000fa370000fa37000024
:10001800fa370000fa370000fa370000fa37000014
:10002800fa370000fa370000fa37000008350000f8
:10003800fa370000fa370000fa370000f8340000f9
:10004800521a0000fa370000fa370000f6240000c0
:10005800d0240000fa370000fa370000fa37000011
:10006800662e0000fa370000fa370000fa37000061
:10007800fa370000fa370000fa370000fa370000b4
:10008800fa370000fa370000fa370000fa370000a4
:10009800fa370000fa370000922200008a22000096
:1000a800fa370000fa370000fa370000fa37000084
:1000b800fa370000fa370000fa370000fa37000074
:1000c800fa370000fa370000fa370000fa37000064
:1000d800fa370000fa370000fa370000fa37000054
:1000e800fa370000fa370000fa370000fa37000044
:1000f800fa370000fa370000fa370000fa37000034
:10010800fa370000fa370000fa370000fa37000023
:10011800fa370000fa370000fa370000fa37000013
:10012800fa370000fa370000fa370000fa37000003
:10013800fa370000fa370000fa370000fa370000f3
:10014800fa370000fa370000fa370000fa370000e3
:10015800fa370000fa370000fa370000fa370000d3
:10016800fa370000fa370000fa370000fa370000c3
:10017800fa370000fa370000fa370000fa370000b3
:10018800fa370000fa370000fa370000fa370000a3
:10019800fa370000fa370000fa370000fa37000093
:1001a800fa370000fa370000fa370000fa37000083
:1001b800fa370000fa370000fa370000fa37000073
:1001c800fa370000fa370000fa370000fa37000063
:1001d800fa370000fa370000fa370000fa37000053
:1001e800fa370000fa370000fa370000fa37000043
:0801f800fa370000fa3700009d
:020000040000fa
:10020800fa370000fa370000fa370000fa37000022
:10021800fa370000fa370000fa370000fa37000012
:10022800fa370000fa370000fa37000008350000f6
:10023800fa370000fa370000fa370000f8340000f7
:10024800521a0000fa370000fa370000f6240000be
:10025800d0240000fa370000fa370000fa3700000f
:10026800662e0000fa370000fa370000fa3700005f
:10027800fa370000fa370000fa370000fa370000b2
:10028800fa370000fa370000fa370000fa370000a2
:10029800fa370000fa370000922200008a22000094
:1002a800fa370000fa370000fa370000fa37000082
:1002b800fa370000fa370000fa370000fa37000072
:1002c800fa370000fa370000fa370000fa37000062
:1002d800fa370000fa370000fa370000fa37000052
:1002e800fa370000fa370000fa370000fa37000042
:1002f800fa370000fa370000fa370000fa37000032
:10030800fa370000fa370000fa370000fa37000021
:10031800fa370000fa370000fa370000fa37000011
:10032800fa370000fa370000fa370000fa37000001
:10033800fa370000fa370000fa370000fa370000f1
:10034800fa370000fa370000fa370000fa370000e1
:10035800fa370000fa370000fa370000fa370000d1
:10036800fa370000fa370000fa370000fa370000c1
:10037800fa370000fa370000fa370000fa370000b1
:10038800fa370000fa370000fa370000fa370000a1
:10039800fa370000fa370000fa370000fa37000091
:1003a800fa370000fa370000fa370000fa37000081
:1003b800fa370000fa370000fa370000fa37000071
:1003c800fa370000fa370000fa370000fa37000061
:1003d800fa370000fa370000fa370000fa37000051
:1003e800fa370000fa370000fa370000fa37000041
:0803f800fa370000fa3700009b
:020000040000fa
:102c44005265000063650000697600006564000059
:102c54003a200000257800000a0d0000004400001e
:102c64006174000061510000756500007565000025
:102c74003a2000002558000020250000752000009f
:102c8400257500002025000075200000255800004f
:102c94000a0d000000000000452d00005055000002
:102ca400434b000020520000414e00004745000005
:102cb400204100004e440000204200004541000035
:102cc400524900004e4700002053000054410000c8
:102cd40052540000454400000a0d000000000000aa
:082ce40025750000200000002e
:020000040000fa
:102cec000200fa000000eb00000f78000300370030
:102cfc001e007800cd0007001e0fe800b000200079
:102d0c009e0f1000faff34004a10070013e1a900cf
:102d1c001221a90012c1a900810a2000914078005b
:102d2c0080cfb30000c060000004a000a8e0b70092
:102d3c008500a9009500a800211120009140780081
:102d4c00f0ccb30000c0600012e1b7000000eb0053
:102d5c005008880000fa20007008880013e1a800d1
:102d6c00008020008708070040392100fd0807007b
:102d7c000000eb00000f78002f0037001e007800d9
:102d8c00aa0007001e00780080004000804321004c
:102d9c00808040000000eb00800878001e00780066
:102dac008000400000452100808040000000eb00c6
:102dbc00800878001e0078008000400080462100ca
:102dcc00808040000000eb00800878001e00780036
:102ddc008000400000482100808040000000eb0093
:102dec00800878001e00780080004000a050210070
:102dfc00808040000000eb00800878009e00780086
:102e0c00400e20000088b90080007800408e200021
:102e1c00008040005b0807001e0078006a00b900c3
:102e2c00e8004000605221008080400010c0b300d8
:102e3c00804878001e0fe800b00020009e0f1000a4
:102e4c00ceff34000000eb0050a688000000eb0021
:102e5c0040a888000000eb00f0a788000000eb0001
:102e6c0000a888000080eb0010a888000000eb0090
:102e7c0020a888000000eb0030a888000000eb00c0
:102e8c0010a988000000eb00a0a188002100070019
:102e9c000000eb00000f78000e0037001e007800d9
:102eac0080004000605b2100008040001000780032
:102ebc00801f780020672900801f7800c04c2100fb
:102ecc009cf50700e4875700c04c210085050700de
:102edc001e0fe800b00020009e0f1000efff340022
:102eec00c04c2100a1c0b300014878000000e800ec
:102efc00d1c0b300014878000000e8008040eb002e
:102f0c0001487800c04c2100760507000080fa00cb
:102f1c00000006000000fa00605b210002000700c0
:102f2c000080fa00000006000400fa00881f7800f8
:102f3c00100798000000eb00000f78000a00370023
:102f4c001e00780000004000800078001e009000f9
:102f5c00008440009e00780074804000d50f07006c
:102f6c00000c78001e0fe800b00020009e0f10002f
:102f7c00f3ff34004f0478000080fa0000000600d4
:102f8c000600fa0010079800414798004e40900048
:102f9c000000fb0074004000c60f0700000f780013
:102fac001e0178004e4090000000fb0080004000a5
:102fbc00605b210000804000100078000000510090
:102fcc00000f78001e00e000040034009e00780022
:102fdc001e00900001087800030037009e0090004e
:102fec000000eb00800878000080fa00000006006a
:102ffc000000fa00e202a800e222a800e802a80001
:10300c00e822a800e982a800e9a2a800e9c2a80069
:10301c00e9e2a800c4a2a800c482a800c422a800a7
:10302c00c402a8000080fa00000006000800fa00a4
:10303c00204798002e4090000000fb006101b90071
:10304c002207980033079800b000200001002000f0
:10305c002e019000be019000800f5100818f59000d
:10306c0092003e002e009000be0090000060010017
:10307c000b003700150037001f0037002900370000
:10308c00330037003d003700470037005100370050
:10309c005b003700650037006f00370079003700a0
:1030ac00e202a8000000eb00000f780002003700dd
:1030bc00000000001e0fe800300620009e0f1000dc
:1030cc00fbff3400e202a90078003700e222a800de
:1030dc000000eb00000f7800020037000000000039
:1030ec001e0fe800300620009e0f1000fbff34007e
:1030fc00e222a9006d003700e802a8000000eb00f6
:10310c00000f780002003700000000001e0fe800de
:10311c00300620009e0f1000fbff3400e802a900cf
:10312c0062003700e822a8000000eb00000f7800d6
:10313c0002003700000000001e0fe80030062000df
:10314c009e0f1000fbff3400e822a9005700370047
:10315c00e982a8000000eb00000f780002003700a5
:10316c00000000001e0fe800300620009e0f10002b
:10317c00fbff3400e982a9004c003700e9a2a8004b
:10318c000000eb00000f7800020037000000000088
:10319c001e0fe800300620009e0f1000fbff3400cd
:1031ac00e9a2a90041003700e9c2a8000000eb0029
:1031bc00000f780002003700000000001e0fe8002e
:1031cc00300620009e0f1000fbff3400e9c2a9005e
:1031dc0036003700e9e2a8000000eb00000f780091
:1031ec0002003700000000001e0fe800300620002f
:1031fc009e0f1000fbff3400e9e2a9002b00370002
:10320c00c4a2a8000000eb00000f780002003700f9
:10321c00000000001e0fe800300620009e0f10007a
:10322c00fbff3400c4a2a90020003700c482a80010
:10323c000000eb00000f78000200370000000000d7
:10324c001e0fe800300620009e0f1000fbff34001c
:10325c00c482a90015003700c422a8000000eb00ae
:10326c00000f780002003700000000001e0fe8007d
:10327c00300620009e0f1000fbff3400c422a90072
:10328c000a003700c402a8000000eb00000f780011
:10329c0002003700000000001e0fe800300620007e
:1032ac009e0f1000fbff3400c402a9000080fa003e
:1032bc00000006000000fa00e202a900e222a900c8
:1032cc00e802a900e822a900e982a900e9a2a90064
:1032dc00e9c2a900e9e2a900c4a2a900c482a9001c
:1032ec00c422a900c402a9000080fa000000060054
:1032fc000600fa00004f78001e00fb006101b900c7
:10330c001207980023079800b0002000010020004d
:10331c001e019000ae019000800f5100818f59006a
:10332c0026003e001e009000ae00900000600100e0
:10333c000b0037000c0037000d0037000e00370073
:10334c000f00370010003700110037001200370053
:10335c001300370014003700150037001600370033
:10336c00e202a90015003700e222a9001300370081
:10337c00e802a90011003700e822a9000f0037006d
:10338c00e982a9000d003700e9a2a9000b00370063
:10339c00e9c2a90009003700e9e2a90007003700db
:1033ac00c4a2a90005003700c482a900030037009d
:1033bc00c422a90001003700c402a9000080fa0051
:1033cc00000006000600fa00004f78001e00fb000b
:1033dc006101b9001207980023079800b000200083
:1033ec00010020001e019000ae019000800f5100e2
:1033fc00818f590026003e001e009000ae00900008
:10340c00006001000b0037000c0037000d00370086
:10341c000e0037000f003700100037001100370086
:10342c001200370013003700140037001500370066
:10343c0016003700e202a80015003700e222a800af
:10344c0013003700e802a80011003700e822a8009a
:10345c000f003700e982a8000d003700e9a2a80090
:10346c000b003700e9c2a80009003700e9e2a80008
:10347c0007003700c4a2a80005003700c482a800ca
:10348c0003003700c422a80001003700c402a800c2
:10349c000080fa00000006003600f800809fbe0095
:1034ac00829fbe00849fbe00869fbe001c00fa0057
:1034bc000000eb0050088800a116800000ff2f00d0
:1034cc0000806000100798001e009000f00f400074
:1034dc002e003a00f0a78000e10f500007003c00de
:1034ec009e00900000802000b3060700f0a780002b
:1034fc000000e800f0a788002100370000a8800039
:10350c00e10f50001e003a000000eb00000f7800a5
:10351c00160037001e007800004178001e0078006d
:10352c00000040008000780064004700010040006b
:10353c008240780092fe07001e007800e4004700ed
:10354c0000004000608178009e007800400e200052
:10355c000088b90080007800408e20000080400078
:10356c0082007800940607001e0fe800b0002000cf
:10357c009e0f1000e7ff34000000eb0000a888004d
:10358c000000eb0030a888001500370000a8800070
:10359c000000e0000d003a0030a880000000e800b8
:1035ac0030a8880030a88000e30f500001003a00da
:1035bc008ffe070030a88000e50f500003003a0092
:1035cc003cff07001000200000a888000000eb0062
:1035dc00f0a788009e00900000802000760607006f
:1035ec008500a9000080fa004f03be004f02be0008
:1035fc004f01be004f00be003600f900004006002f
:10360c000200fa00000f78009e0078000080200075
:10361c008e0607000000fb000080fa000000060088
:10362c000200fa00000f78009e0078000080200055
:10363c00610607000000fb000080fa000000060095
:10364c005800fa00881f7800804c2100ecff07001e
:10365c000004e000550332000000eb0010a98800c4
:10366c0050a68000302f9800be289000e18f5000ab
:10367c00630032003e289000e20f5000f20032004e
:10368c00be2890000100e0000100320085013700e7
:10369c000000eb0050179800550037005e109000aa
:1036ac006a00b900e8004000605221000080400030
:1036bc0010407800e14f50004a003a0041a68000cb
:1036cc005e109000640040000008de0061006000a5
:1036dc00b0a188005e10900080004000a050210036
:1036ec000080400090007800b0a18000808f5000d6
:1036fc000b003a00de1090000181400000452100d3
:10370c0000004100100078000001e80081804000ba
:10371c0000452100008040000208780010003700ae
:10372c005e1090006a00b900e80040006052210071
:10373c00808040000040eb008048780040a880006a
:10374c000000e80040a888005e1090008000400057
:10375c0000452100808040000000eb0080087800cc
:10376c005e10900080004000004521000080400069
:10377c0010007800e60f50001a003a0010002000ec
:10378c0050a688005e10900080004000004521008b
:10379c00808040000000eb00800878005e109000f4
:1037ac008000400080462100808040000001200005
:1037bc00800878005e1090008000400000482100d6
:1037cc00808040000000eb00800878005e109000c4
:1037dc0080004000004b2100808040000000eb0086
:1037ec00800878005e1090000000e80050179800e8
:1037fc005e109000eb0f5000a8ff34002901370039
:10380c000000eb00501798008b0037005e10900002
:10381c006a00b900e80040006052210000804000be
:10382c0010407800e14f500080003a0041a6800023
:10383c005e109000640040000008de006100600033
:10384c00b0a188005e10900080004000004521006f
:10385c0000804000100078000000e00011003a00e9
:10386c00de10900001814000004521000000410065
:10387c00100078000001e800818040000045210024
:10388c0000804000020878005e109000b2a1800019
:10389c008000400080432100008040000208780036
:1038ac00470037005e10900080004000004521006a
:1038bc00808040000000eb00800878005e109000d3
:1038cc008000400080432100008040009000780080
:1038dc00b0a18000808f50002f0032005e1290004b
:1038ec005e109000800040000048210000804000e5
:1038fc0010017800b3a180005e10900080004000a1
:10390c0080462100008040001000780070001000fc
:10391c000018dd0000014100840042000048210035
:10392c000080400002087800de1090000181400009
:10393c008046210000004100100078000001e900e1
:10394c008180400080462100008040000208780001
:10395c005e109000800040008043210000804000f9
:10396c00100078000000e00015003a00de10900016
:10397c0001814000004b2100000041001000780044
:10398c000001e80081804000004b210000804000d5
:10399c00020878000a0037005e1090006a00b90037
:1039ac00e800400060522100808040000040eb00a5
:1039bc008048780040a880000000e80040a88800fb
:1039cc005e10900080004000804621000080400086
:1039dc00100078000000e00014003a0020002000e5
:1039ec0050a688005e1090008000400080462100a8
:1039fc008080400040002000800878005e1090001d
:103a0c008000400000452100808040000000eb0059
:103a1c00800878005e1090008000400080492100f2
:103a2c00808040000000eb00800878005e10900061
:103a3c000000e800501798005e109000eb0f50004b
:103a4c0072ff3400970037000000eb00501798000d
:103a5c00910037005e1090006a00b900e800400049
:103a6c00605221000080400010407800e14f50006f
:103a7c0086003a0041a680005e1090006400400071
:103a8c000008de0061006000b0a188005e109000ac
:103a9c0080004000004521000080400010007800ac
:103aac000000e00011003a00de109000018140009f
:103abc000045210000004100100078000001e800e2
:103acc008180400000452100008040000208780001
:103adc005e109000b2a18000800040008043210065
:103aec000080400002087800360037005e1090001d
:103afc008000400000452100808040000000eb0069
:103b0c00800878005e109000800040008043210007
:103b1c000080400090007800b0a18000808f5000a1
:103b2c001e003200de1190005e10900080004000fc
:103b3c00804921000080400010017800b4a1800071
:103b4c005e10900080004000804621000080400004
:103b5c00100078000000e9000020dd0000014100a9
:103b6c0083804100804921000080400002087800d9
:103b7c00de109000018140008046210000004100d1
:103b8c00100078000001e90081804000804621008f
:103b9c0000804000020878000a0037005e10900098
:103bac006a00b900e80040006052210080804000ab
:103bbc000040eb008048780040a880000000e8003e
:103bcc0040a888005e1090008000400080462100d4
:103bdc0000804000100078000000e0002b003a004c
:103bec005e10900080004000804921000080400061
:103bfc00100178005e10900080004000004b210006
:103c0c000080400010007800000041006f00600050
:103c1c00401798004e1090000000e0000f003a0092
:103c2c005e1090006a00b90080007800605221009c
:103c3c008080400010002000800878005e1090000a
:103c4c0080004000004821000080400010007800f7
:103c5c0020a988001000200010a988005e10900098
:103c6c008000400000452100808040000000eb00f7
:103c7c00800878005e109000800040008046210093
:103c8c008080400000012000800878005e109000c9
:103c9c000000e800501798005e109000eb0f5000e9
:103cac006cff340040a88000ec0f50001f003a005d
:103cbc000000eb0010a988000000eb0040a8880071
:103ccc000000eb0050179800150037005e109000b4
:103cdc006a00b900e800400060522100808040007a
:103cec0010c0b300804878000000eb0050a688009c
:103cfc00de109000400e20000088b9008000780093
:103d0c00408e200000804000c10220008e804000c8
:103d1c00ce0407005e1090000000e80050179800d9
:103d2c005e109000eb0f5000e8ff340010a98000eb
:103d3c00e10f50009d013a00a0a180000000e000be
:103d4c0078013a006000b8002017980031179800ed
:103d5c006000b80000179800111798000000eb00e5
:103d6c00700f98000000eb00600f98000040eb0013
:103d7c00305f98000040eb00205f98000000eb00e3
:103d8c00400f98006f0037000000eb00601f980098
:103d9c00ce089000400e20000088b900800078000a
:103dac00408e200000804000cd0407000000e000a1
:103dbc00f7ff3a00ce089000400e20000088b900b2
:103dcc0080007800408e200000804000c10320005d
:103ddc008e8040009d0407006e1890000000e000eb
:103dec00550032004e0890006a00b900800078003f
:103dfc00605221000080400010007800e10f50005c
:103e0c004d003a006e1c90006140b900bbf60700f3
:103e1c00102f9800212f98000800e00007003d00ab
:103e2c0002002000037824001e289000ae28900089
:103e3c00def60700102f9800212f98004e089000f6
:103e4c00c200dd00a0b82100008040001001be00bf
:103e5c001e289000ae28900031f707000001be002c
:103e6c002e109000be109000d0f60700201798007e
:103e7c00311798006e1c90006140b9009ff6070046
:103e8c0070279800012f98000800e00007003d0003
:103e9c0002002000037824007e2090008e289000e1
:103eac00c2f6070070279800012f98004e0890006a
:103ebc00c200dd00a0bb2100008040001001be004c
:103ecc007e2090008e28900015f707000001be00a0
:103edc000e1090009e109000b4f60700001798008a
:103eec0011179800ee1890007e089000808f5000fb
:103efc00090036007e089000600f9800be589000b4
:103f0c00215f98006e189000700f98004e0890007a
:103f1c00305f980008003700ee1890006e08900093
:103f2c00808f500004003600ee189000610f98004e
:103f3c004e089000205f98004e0890000000e800aa
:103f4c00400f98004e089000eb0f50008eff34008d
:103f5c006011b8002e109000be10900024f70700de
:103f6c000000e00001003a00080037002e1190001c
:103f7c00be1190000e1090009e1090001ef70700ce
:103f8c00200f9800310f9800030037006000b80034
:103f9c00200f9800310f98007e089000cf80de0033
:103fac0056f6070050279800612798007e0890006d
:103fbc000000e00007003d00020020000378240010
:103fcc005e209000ee20900078f6070050279800b5
:103fdc00612798007e089000cf80de0047f607002e
:103fec0030279800412798007e0890000000e000e0
:103ffc0007003d0002002000037824003e209000c2
:10400c00ce20900069f607003027980041279800d1
:10401c003e219000ce2190005e209000ee2090007a
:10402c00bff60700000f9800110f98000e099000c2
:10403c009e0990000e0890009e089000b8f60700ac
:10404c00000f9800110f98006e089000cf80de00d2
:10405c002af6070010279800212798006e08900078
:10406c000000e00007003d0002002000037824005f
:10407c001e209000ae2090004cf6070010279800f0
:10408c00212798006e089000cf80de001bf60700f9
:10409c00701f9800012798006e0890000000e00047
:1040ac0007003d0002002000037824007e189000d9
:1040bc008e2090003df60700701f98000127980095
:1040cc007e1990008e2190001e209000ae20900052
:1040dc0093f6070060079800710798006e01900036
:1040ec00fe0190006e009000fe0090008cf6070020
:1040fc0060079800710798003e5890000000fb0084
:10410c00c200dd00a0be2100008040001001be00f6
:10411c002e089000be08900023f60700d3f6070087
:10412c0040079800510798004e019000de01900066
:10413c004e009000de00900079f6070040079800d2
:10414c00510798002e5890000000fb00c200dd00c3
:10415c00a0be2100008040001001be002e0890007f
:10416c00be08900010f60700c0f607002007980064
:10417c00310798002e019000be0190002e00900097
:10418c00be00900066f607002007980031079800e3
:10419c004e019000de0190000e0890009e089000e9
:1041ac00b4f60700000f9800110f98002e01900034
:1041bc00be0190006e009000fe009000adf607006e
:1041cc0060079800710798006e019000fe01900046
:1041dc000e0890009e089000f4f50700e7f6070023
:1041ec00e6f60700008fbe0021a98000e002200047
:1041fc000e0040000108780002002400c361240076
:10420c002e089000be08900045f6070010f7070036
:10421c0080007800e00220000e0040006100980051
:10422c001e00be002bf7070080007800e002200083
:10423c000e00400031009800e00220000e0040000b
:10424c00fe08900041009800be589000e00220004b
:10425c000e004000214898002e089000be089000e7
:10426c00e20220000e01410010019800210198008b
:10427c00e00220000e004000900078001001900039
:10428c00a001900030029000c002900050039000fa
:10429c00e003900040392100bf03070085020700ae
:1042ac000004e00001003200aa0107000000eb004e
:1042bc0010a988000000eb0040a888000000eb006b
:1042cc00400f9800130037004e0890006a00b900a8
:1042dc00e8004000605221008080400010c0b30014
:1042ec00804878000000eb0050a688004e08900033
:1042fc006a00b90080007800605221008080400084
:10430c000000eb00800878004e0890000000e800e8
:10431c00400f98004e089000eb0f5000eaff34005d
:10432c00220037000000eb005017980019003700ee
:10433c00de109000400e20000088b900800078004c
:10434c00408e200000804000650307000000e00064
:10435c00f7ff3a005e1090006a00b900e4004000dc
:10436c006052210000814000de109000400e2000c1
:10437c000088b90080007800408e2000008040004a
:10438c0082007800310307005e1090000000e80006
:10439c00501798005e109000eb0f5000e4ff3400b3
:1043ac0021a9800060522100180807004f047800f2
:1043bc000080fa00000006000200fa00000f7800ee
:1043cc009e00780040392100a20307000000fb008a
:1043dc000080fa00000006000e00fa00000f7800c2
:1043ec00110798002207980033079800440798009b
:1043fc0055079800660798008e0078004039210018
:10440c00940307000000fb000080fa000000060087
:10441c000000fa00a0a180000000fb000080fa0060
:10442c00000006000200fa00004f78001e00fb009e
:10443c00a0a188000080fa00000006000000fa002d
:10444c0031e2a80031a2a8003182a900112320007a
:10445c0091407800c0cfb30000c0600031e2b700db
:10446c0030e2a90030c2a90030a2a9003082a90014
:10447c003062a900012320009140780090cfb30056
:10448c0000c0600030e2b7003002a90033e2a9009e
:10449c0033a2a90033c2a9003362a9003342a80099
:1044ac003322a90032c2bf00f043b20032e2b7009f
:1044bc0032a2a900a0022000c011880087e0a90048
:1044cc0087c0a90097e0a80097c0a8000080fa0058
:1044dc00000006000000fa00a5f907000080fa00b1
:1044ec00000006000200fa00000f78001e007800a1
:1044fc00a5f90700bef907000004e000fdff3a0033
:10450c000080fa00000006000000fa0087e0a90015
:10451c000080fa00004006003600f800809fbe00c4
:10452c00829fbe00849fbe00869fbe003c00fa00a6
:10453c0087c0a9000040eb0040479800b0118000f4
:10454c00404798000080eb00100798004e40900008
:10455c000000fb006101b900f0fc2f00f1ff2f00ff
:10456c000201400083814800421f9800531f9800ad
:10457c0050032000010020004e199000de1990001d
:10458c00800f5100818f590078003e004e1890002a
:10459c00de1890000060010035003700370037004e
:1045ac00390037003b0037003d0037003f00370033
:1045bc004100370043003700450037006b003700df
:1045cc006a00370069003700680037006700370061
:1045dc006600370065003700520037005400370082
:1045ec0056003700580037005a0037005c0037007f
:1045fc005e0037005d0037005c0037005b00370061
:10460c005a00370059003700580037005700370060
:10461c005600370055003700540037005300370060
:10462c005200370051003700500037004f00370060
:10463c004e0037004d0037004c0037004b00370060
:10464c004a00370049003700480037004700370060
:10465c0046003700450037002000370022003700a5
:10466c002400370026003700280037002a003700c6
:10467c0010002000100798003e003700200020009a
:10468c00100798003b0037003000200010079800fe
:10469c003800370040002000100798003500370024
:1046ac0050002000100798003200370060002000f6
:1046bc00100798002f00370070002000100798009a
:1046cc002c003700800020001007980029003700cc
:1046dc00900020001007980026003700a000200052
:1046ec001007980023003700b00020001007980036
:1046fc0020003700c0002000100798001d00370074
:10470c00d0002000100798001a003700e0002000ad
:10471c001007980017003700f000200010079800d1
:10472c0014003700a000200010079800110037007b
:10473c00b0002000100798000e003700c0002000c9
:10474c00100798000b003700d000200010079800cd
:10475c0008003700e0002000100798000500370023
:10476c00f000200010079800020037000080eb00da
:10477c00100798001e009000ef0f500029003c001d
:10478c00bbddbf000000fb00c1db210000004000ce
:10479c001e01900002b07800bbddbf000040e800b5
:1047ac00bbfdb700bbddbf00e34f50002b00340056
:1047bc000040eb00bbfdb700c0db2100100078000f
:1047cc00cc00dd00c0db2100100090004800dd00b3
:1047dc0080804000c0db2100200090004400dd0000
:1047ec0080804000c0db210030009000008f400032
:1047fc001e0078003f030700e50047009e0178008b
:10480c00831f780020622900801f78000100780047
:10481c0048ef0700e48757006500470031ff0700a9
:10482c000e0037000040eb00bbfdb700c1db2100e0
:10483c000000eb0080087800c1db21000000eb00d9
:10484c0090009800c1db21000000eb00a000980054
:10485c00c1db21000000eb00b00098000080fa00e2
:10486c004f03be004f02be004f01be004f00be0002
:10487c003600f900004006000000fa00e0a8210014
:10488c00c001070021e2a80021a2a8002182a900f2
:10489c001122200091407800c0cfb30000c060000e
:1048ac0021e2b70020e2a90020c2a90020a2a900a1
:1048bc002082a9002062a9000122200091407800ea
:1048cc0090cfb30000c0600020e2b7002002a90026
:1048dc0023e2a90023a2a90023c2a9002362a900f4
:1048ec002342a8002322a90022c2bf00f043b20039
:1048fc0022e2b70022a2a900a002200040118800e9
:10490c008580a9008560a900910a2000914078005b
:10491c00f0c8b30000c0600001c6b30001407000d5
:10492c00a9e0b7009580a8009560a8000040eb00b6
:10493c008cfab700e0a82100fd0107000080fa0006
:10494c00000006000000fa00adf807000080fa0035
:10495c00000006000000fa0008003700c0a7210084
:10496c0050d4880010c0b3008cfab70050d480002b
:10497c00104078000080fb00a7f80700c0a72100ba
:10498c008dfe07000004e000f4ff3a000080fa00fe
:10499c0000000600801f78000000fa008580a90046
:1049ac008cdabf00eb4f50000a003c0050d4800062
:1049bc000000e80050d4880050d4800010407800eb
:1049cc000000fb00201188008cdabf000040e800da
:1049dc008cfab7000080fa004f0078000040060007
:1049ec003600f800809fbe00829fbe00849fbe00f0
:1049fc00869fbe000200fa008560a9000040eb0013
:104a0c00004f780030118000004f78009e00fb00b2
:104a1c00e0a82100680107000080fa004f03be00e7
:104a2c004f02be004f01be004f00be003600f90021
:104a3c00004006004000fa000000eb00201f980028
:104a4c000000eb00301f9800e0a82100b201070025
:104a5c00e40f50008a003400410320008e80400097
:104a6c00e0a8210079010700ae189000f00f20009b
:104a7c0080806000a00a2000808f500080003a00e7
:104a8c00810320008e804000e0a821006f01070008
:104a9c00ce189000f00f200000806000f20f500044
:104aac0077003e00a10320008e804000e0a821008a
:104abc0066010700c10320008e804000e0a82100a1
:104acc0062010700610320008e804000e0a82100f5
:104adc005e010700be189000f00f2000808060007f
:104aec0050052000808f500065003a00be189000e1
:104afc00f00f200000826000ee189000f00f2000f4
:104b0c0080826000de189000f00f200000816000b1
:104b1c00ce189000f00f200080816000ae1890003d
:104b2c00f00f2000008060008e80e800841f780069
:104b3c00851f7800821f7800831f7800801f780003
:104b4c0010632900801f78000100780079ee0700bf
:104b5c00ec8757000e80e80062fe0700ce1890002c
:104b6c00f00f200080806000711f98007e1890006c
:104b7c00ef0f5000140032007e189000ef0f500021
:104b8c0007003e007e189000ec0f5000120032001f
:104b9c007e189000ee0f50001800320025003700f0
:104bac007e189000f10f5000110032007e1890001a
:104bbc00f10f5000060039007e189000f20f5000e3
:104bcc00190032001b003700730207002c0037005d
:104bdc00d0f807002a0037005e189000800078009b
:104bec00f00f200000806000f1080700240037005f
:104bfc005e1890000bfe0700210037005e18900035
:104c0c00c800dd0000f02f0000816000ee1890005d
:104c1c00f00f200000806000000f41001e007800a3
:104c2c0034020700160037005e1890001b000700c6
:104c3c00130037004e189000f10f200001006000a7
:104c4c00eb0f50000e003e005e189000c800dd0017
:104c5c0000f02f0000816000ee189000f00f200093
:104c6c0000806000000f41004e189000800078001a
:104c7c00f00f2000008060009e00780035020700d5
:104c8c000080fa00000006000000fa00e0a82100f5
:104c9c00270107000080fa00000006000200fa005d
:104cac00004f78001e407800bafdb7000080fa0073
:104cbc00000006000000fa00baddbf000000fb0097
:104ccc000080fa00000006000200fa00000f7800d5
:104cdc009e007800c0442000808040000000eb0063
:104cec00800878009e007800e0442000808040001e
:104cfc0090002000800878009e007800004520007d
:104d0c00808040000000eb00800878000080fa00f2
:104d1c00000006006c00fa0030379800413798000c
:104d2c00be3090000045200000804000100078004c
:104d3c00e90f5000030034000000eb0050379800de
:104d4c003d003700be309000e04420000080400061
:104d5c00100078000000e800a200200011000900fb
:104d6c000200d8008000fd0000017800be309000e9
:104d7c00e044200000804000020878000000eb00b6
:104d8c00000f78001e003700be309000e044200079
:104d9c0000804000100278009e0278001e0078000f
:104dac0000004000800078004e30900000804000f1
:104dbc001000780000017800be3190002003200024
:104dcc0000a0b900050040000000400002b07900ce
:104ddc009e0178001e0078000000400080007800e2
:104dec004e309000008040001000780000017800e8
:104dfc008e80e8000380410002b078001e0fe800ae
:104e0c00100320009e0f1000dfff3400be30900016
:104e1c000045200000804000100078000001e800f0
:104e2c00be30900000452000008040000208780051
:104e3c0010002000503798005e3090000080fa007f
:104e4c00000006000800fa001007980021079800df
:104e5c009e0090000045200000804000100078006b
:104e6c000000e00003003c000000eb00300798005d
:104e7c00310037000000eb00000f78001200370003
:104e8c001e00780000004000800078002e0090008a
:104e9c00008240009e009000c04420000080400032
:104eac00900078001e0178009e01900020032000e5
:104ebc000088b900020040000000400060807900ca
:104ecc00000a78001e0fe800100320009e0f10004f
:104edc00ebff34009e009000c04420000080400096
:104eec00100078000000e800a2002000110009006a
:104efc000200d8008000fd00000178009e009000a8
:104f0c00c044200000804000020878009e00900001
:104f1c000045200000804000100078000001e900ee
:104f2c009e009000004520000080400002087800a0
:104f3c0010002000300798003e0090000080fa001e
:104f4c00000006000400fa00000f78009e007800b4
:104f5c000045200000804000100078000000e000b8
:104f6c0003003c00100020001007980002003700de
:104f7c000000eb00100798001e0090000080fa0063
:104f8c00000006000200fa00000f78009e00780076
:104f9c000000eb00f0a898009e007800d0062000de
:104fac0080b098009e0078000000eb0090b0980054
:104fbc000080fa00000006000600fa00000f7800de
:104fcc00110798001e00780090b09000d0062000c9
:104fdc00808f5000030034000000eb002007980085
:104fec00170037001e00780000b090000000e800a9
:104ffc00e2062000110009000200d8008000fd002c
:10500c00800078001e00780001b098001e00780027
:10501c0000b090009e007800000040001e0190003f
:10502c0002b078001e00780010b090008000e800fc
:10503c001e00780011b09800100020002007980086
:10504c002e0090000080fa00000006000600fa0016
:10505c00000f7800110798001e00780010b0900027
:10506c000000e00003003c000000eb00200798006b
:10507c00180037001e00780070a890009e00780081
:10508c0000004000e08078001e00900001087800cd
:10509c001e00780070a890000000e800e2062000d6
:1050ac00110009000200d8008000fd00800078008b
:1050bc001e00780071a898001e00780010b09000b7
:1050cc008000e9001e00780011b09800100020004c
:1050dc00200798002e0090000080fa0000000600c7
:1050ec000400fa00000f78001e00780010b0900049
:1050fc000000e00003003c001000200010079800a6
:10510c00020037000000eb00100798001e00900012
:10511c000080fa00000006000200fa00000f780080
:10512c001e00780010b090000080fa00000006000d
:10513c000200fa00000f78009e0078000000eb00df
:10514c00f0a898009e007800d006200080b098004f
:10515c009e0078000000eb0090b098000080fa00f0
:10516c00000006000200fa00000f78009e00780094
:10517c000000eb00d08898009e0078009000200082
:10518c00e08898009e0078000000eb00f088980002
:10519c000080fa00000006001200fa00000f7800f0
:1051ac000e80e80001087800120098002300980097
:1051bc00340098004500980056009800670098004d
:1051cc001e00780070889000e90f50000300340036
:1051dc000000eb00000f98001b0037001e00780049
:1051ec00608890000000e800a20020001100090077
:1051fc000200d8008000fd00800078001e007800be
:10520c00618898001e007800608890001e0178006c
:10521c006e00b900820040000e80e8000600090014
:10522c00b0187800e100b100e000b1001e00780079
:10523c00708890008000e8001e007800718898004b
:10524c0010002000000f98000e0890000080fa005b
:10525c00000006000600fa00000f78001107980005
:10526c001e007800708890000000e00003003c00f5
:10527c000000eb00200798001b0037001e00780090
:10528c00508890009e0190001e0178006e00b900bd
:10529c000200400006000900b0197800e300b100dc
:1052ac00e000b1001e007800508890000000e8007b
:1052bc00a2002000110009000200d8008000fd00af
:1052cc00800078001e007800518898001e0078003d
:1052dc00708890008000e9001e00780071889800aa
:1052ec0010002000200798002e0090000080fa008b
:1052fc00000006000400fa00000f78001e00780081
:10530c00708890000000e00003003c0010002000ba
:10531c0010079800020037000000eb0010079800ff
:10532c001e0090000080fa00000006000200fa0047
:10533c00000f78009e0078000000eb0080189800a9
:10534c009e0078000000eb00901898009e007800fa
:10535c000000eb00a01898000080fa000000060086
:10536c000800fa0010079800210798001e00900012
:10537c00201890000000e000030034000000eb0057
:10538c00300798001f0037001e0090008000eb00d3
:10539c00111898000000eb00000f78000f00370088
:1053ac001e009000901990001e0278001e007800dc
:1053bc00800078002e0090000080400010407800a3
:1053cc008082fb001e0190006c18b90004004000a4
:1053dc0000004000053079001e0fe800b0002000ee
:1053ec009e0f1000eeff34001e009000201890005d
:1053fc008000e8001e00900021189800100020008a
:10540c00300798003e0090000080fa000000060073
:10541c000800fa0010079800210798001e00900061
:10542c00201890000000e00003003c000000eb009e
:10543c00300798001e0037000000eb00000f7800ca
:10544c000e0037001e007800800078002e009000bf
:10545c00008240001e009000001890001e01780091
:10546c009e0190006c00b90002004000000040005a
:10547c0060807900004a78001e0fe800b000200020
:10548c009e0f1000efff34009e0090000000eb0018
:10549c00801898001e009000201890008000e900f1
:1054ac001e00900021189800100020003007980072
:1054bc003e0090000080fa00000006000400fa0094
:1054cc00000f78001e007800201890000000e0000b
:1054dc0003003c0010002000100798000200370069
:1054ec000000eb00100798001e0090000080fa00ee
:1054fc00000006000400fa00100798000000eb0002
:10550c00000f78000d0037001e007800800040006e
:10551c0080d62100008040009e0090000108780099
:10552c001e0078008000400000d8210080804000e0
:10553c0010002000800878001e0fe800b00020004a
:10554c009e0f1000f0ff3400130007000080fa00db
:10555c00000006000400fa00000f78001107980004
:10556c001e0078008000400080d6210000804000a2
:10557c009e009000010878001e007800800040001a
:10558c0000d82100808040001000200080087800a6
:10559c000080fa0000000600fe00fa000000eb009c
:1055ac00000f78000000eb00200798000e00370079
:1055bc002e00900066014700800040000000eb00c8
:1055cc00803079002e009000820320000e014100f3
:1055dc00800040000000eb00803079002e0090002d
:1055ec000000e800200798002e009000f60f5000f5
:1055fc00efff34000000eb00200798000f0037008d
:10560c002e009000e20c20000e01410080004000b2
:10561c000000eb00803079002e009000620e20001c
:10562c000e014100800040000000eb00803079004a
:10563c002e0090000000e800200798002e0090003b
:10564c00eb0f5000eeff34000000eb001007980049
:10565c00120037001e0090008000400000d821008e
:10566c000080400010007800e10f500008003a0064
:10567c001e0090008000400080d921000080400076
:10568c0090007800100020000100dd001e0f40008b
:10569c001e0090000000e800100798001e0090000b
:1056ac00eb0f5000ebff34000000eb0020079800dc
:1056bc000c0037002e009000e60047000000400070
:1056cc001eb078002e009000810320008e804000d8
:1056dc00000040001eb078002e0090000000e80092
:1056ec00200798002e009000e20f5000f1ff3400cc
:1056fc000000eb00200798004f0037000000eb0083
:10570c0010079800460037001e00900080004000f3
:10571c0080d6210000804000900078002e00900080
:10572c000008de00610f60002e009000e3014000d5
:10573c002e00900063004000e6004700000040008f
:10574c00608178001e0090008000400080d921000c
:10575c0000804000900078001e0078000100dd0001
:10576c0000014100e60047000380410002b07800d0
:10577c001e0090008000400000d8210000804000f6
:10578c0010007800e10f500017003a002e00900036
:10579c00e30140002e0090006300400081032000d4
:1057ac008e80400000004000608278001e0078006f
:1057bc000080ea008180ea00610160001e00900018
:1057cc008000400080d9210000804000100078004b
:1057dc000010dd0000014200810320008e8040009b
:1057ec000380410002b078009e0190001e009000e2
:1057fc00e10c20008e8040000000400060807800aa
:10580c001e014000e10c20008e804000038041000e
:10581c0002b078001e0090000000e800100798000d
:10582c001e009000eb0f5000b7ff34002e009000cc
:10583c000000e800200798002e009000ef0f5000a9
:10584c00aeff34000000eb0020079800c2003700c8
:10585c00ae0190002e009000e10c20008e804000e4
:10586c0000004000608078006f016000e10c2000b7
:10587c008e8040000380410002b07800ae019000a1
:10588c002e009000e10c20008e80400000004000b3
:10589c006080780070011000e10c20008e804000c8
:1058ac000380410002b0780066004700b011900000
:1058bc002e009000e10c20008e8040000000400083
:1058cc00608078004300de00610160002e009000d3
:1058dc008000400080d9210000804000100078003a
:1058ec000010dd00808041006600470031109800f8
:1058fc0066004700c01190002e009000e10c2000c3
:10590c008e80400000004000608078004200de0085
:10591c00610160002e0090008000400080d92100c1
:10592c0000804000100078000010dd0080804100f5
:10593c00660047004110980066004700d0119000a7
:10594c002e009000e10c20008e80400000004000f2
:10595c00608078000000d100610160002e00900092
:10596c008000400080d921000080400010007800a9
:10597c000010dd0080804100660047005110980047
:10598c0066004700e01190002e009000e10c200012
:10599c008e80400000004000608078006101600053
:1059ac002e0090008000400080d921000080400033
:1059bc00100078000010dd00808041006600470078
:1059cc00611098002e0090008000400000d821004b
:1059dc000080400010007800e10f50005b003a009e
:1059ec00800320000e004000b01190002e009000ab
:1059fc00e10c20008e8040000000400060817800a7
:105a0c00020078000080ea008180ea004300de009a
:105a1c00610160002e0090008000400080d92100c0
:105a2c0000804000100078000010dd0080804100f4
:105a3c00800320000e0040003110980080032000ed
:105a4c000e004000c01190002e009000e10c2000d0
:105a5c008e804000000040006081780002007800d9
:105a6c000080ea008180ea004200de0061016000f3
