:020000040000fa
:080000000002040000000000f2
:020000040000fa
:0400080022060000cc
:020000040000fa
:04000c0022060000c8
:020000040000fa
:0400100022060000c4
:020000040000fa
:0400140022060000c0
:020000040000fa
:0400180022060000bc
:020000040000fa
:04001c0022060000b8
:020000040000fa
:0400200022060000b4
:020000040000fa
:0400240022060000b0
:020000040000fa
:0400280022060000ac
:020000040000fa
:04002c0022060000a8
:020000040000fa
:0400300022060000a4
:020000040000fa
:04003400cc030000f9
:020000040000fa
:04003800220600009c
:020000040000fa
:04003c002206000098
:020000040000fa
:040040002206000094
:020000040000fa
:040044002206000090
:020000040000fa
:04004800320300007f
:020000040000fa
:04004c002206000088
:020000040000fa
:040050002206000084
:020000040000fa
:0400540002060000a0
:020000040000fa
:04005800e6050000b9
:020000040000fa
:04005c002206000078
:020000040000fa
:040060002206000074
:020000040000fa
:040064002206000070
:020000040000fa
:04006800bc020000d6
:020000040000fa
:04006c002206000068
:020000040000fa
:040070002206000064
:020000040000fa
:040074002206000060
:020000040000fa
:04007800220600005c
:020000040000fa
:04007c002206000058
:020000040000fa
:040080002206000054
:020000040000fa
:040084002206000050
:020000040000fa
:04008800220600004c
:020000040000fa
:04008c002206000048
:020000040000fa
:040090002206000044
:020000040000fa
:040094002206000040
:020000040000fa
:04009800220600003c
:020000040000fa
:04009c002206000038
:020000040000fa
:0400a000ac040000ac
:020000040000fa
:0400a400a8040000ac
:020000040000fa
:0400a800220600002c
:020000040000fa
:0400ac002206000028
:020000040000fa
:0400b0002206000024
:020000040000fa
:0400b4002206000020
:020000040000fa
:0400b800220600001c
:020000040000fa
:0400bc002206000018
:020000040000fa
:0400c0002206000014
:020000040000fa
:0400c4002206000010
:020000040000fa
:0400c800220600000c
:020000040000fa
:0400cc002206000008
:020000040000fa
:0400d0002206000004
:020000040000fa
:0400d4002206000000
:020000040000fa
:0400d80022060000fc
:020000040000fa
:0400dc0022060000f8
:020000040000fa
:0400e00022060000f4
:020000040000fa
:0400e40022060000f0
:020000040000fa
:0400e80022060000ec
:020000040000fa
:0400ec0022060000e8
:020000040000fa
:0400f00022060000e4
:020000040000fa
:0400f40022060000e0
:020000040000fa
:0400f80022060000dc
:020000040000fa
:0400fc0022060000d8
:020000040000fa
:0401000022060000d3
:020000040000fa
:0401040022060000cf
:020000040000fa
:0401080022060000cb
:020000040000fa
:04010c0022060000c7
:020000040000fa
:0401100022060000c3
:020000040000fa
:0401140022060000bf
:020000040000fa
:0401180022060000bb
:020000040000fa
:04011c0022060000b7
:020000040000fa
:0401200022060000b3
:020000040000fa
:0401240022060000af
:020000040000fa
:0401280022060000ab
:020000040000fa
:04012c0022060000a7
:020000040000fa
:0401300022060000a3
:020000040000fa
:04013400220600009f
:020000040000fa
:04013800220600009b
:020000040000fa
:04013c002206000097
:020000040000fa
:040140002206000093
:020000040000fa
:04014400220600008f
:020000040000fa
:0402080022060000ca
:020000040000fa
:04020c0022060000c6
:020000040000fa
:0402100022060000c2
:020000040000fa
:0402140022060000be
:020000040000fa
:0402180022060000ba
:020000040000fa
:04021c0022060000b6
:020000040000fa
:0402200022060000b2
:020000040000fa
:0402240022060000ae
:020000040000fa
:0402280022060000aa
:020000040000fa
:04022c0022060000a6
:020000040000fa
:0402300022060000a2
:020000040000fa
:04023400cc030000f7
:020000040000fa
:04023800220600009a
:020000040000fa
:04023c002206000096
:020000040000fa
:040240002206000092
:020000040000fa
:04024400220600008e
:020000040000fa
:04024800320300007d
:020000040000fa
:04024c002206000086
:020000040000fa
:040250002206000082
:020000040000fa
:04025400020600009e
:020000040000fa
:04025800e6050000b7
:020000040000fa
:04025c002206000076
:020000040000fa
:040260002206000072
:020000040000fa
:04026400220600006e
:020000040000fa
:04026800bc020000d4
:020000040000fa
:04026c002206000066
:020000040000fa
:040270002206000062
:020000040000fa
:04027400220600005e
:020000040000fa
:04027800220600005a
:020000040000fa
:04027c002206000056
:020000040000fa
:040280002206000052
:020000040000fa
:04028400220600004e
:020000040000fa
:04028800220600004a
:020000040000fa
:04028c002206000046
:020000040000fa
:040290002206000042
:020000040000fa
:04029400220600003e
:020000040000fa
:04029800220600003a
:020000040000fa
:04029c002206000036
:020000040000fa
:0402a000ac040000aa
:020000040000fa
:0402a400a8040000aa
:020000040000fa
:0402a800220600002a
:020000040000fa
:0402ac002206000026
:020000040000fa
:0402b0002206000022
:020000040000fa
:0402b400220600001e
:020000040000fa
:0402b800220600001a
:020000040000fa
:0402bc002206000016
:020000040000fa
:0402c0002206000012
:020000040000fa
:0402c400220600000e
:020000040000fa
:0402c800220600000a
:020000040000fa
:0402cc002206000006
:020000040000fa
:0402d0002206000002
:020000040000fa
:0402d40022060000fe
:020000040000fa
:0402d80022060000fa
:020000040000fa
:0402dc0022060000f6
:020000040000fa
:0402e00022060000f2
:020000040000fa
:0402e40022060000ee
:020000040000fa
:0402e80022060000ea
:020000040000fa
:0402ec0022060000e6
:020000040000fa
:0402f00022060000e2
:020000040000fa
:0402f40022060000de
:020000040000fa
:0402f80022060000da
:020000040000fa
:0402fc0022060000d6
:020000040000fa
:0403000022060000d1
:020000040000fa
:0403040022060000cd
:020000040000fa
:0403080022060000c9
:020000040000fa
:04030c0022060000c5
:020000040000fa
:0403100022060000c1
:020000040000fa
:0403140022060000bd
:020000040000fa
:0403180022060000b9
:020000040000fa
:04031c0022060000b5
:020000040000fa
:0403200022060000b1
:020000040000fa
:0403240022060000ad
:020000040000fa
:0403280022060000a9
:020000040000fa
:04032c0022060000a5
:020000040000fa
:0403300022060000a1
:020000040000fa
:04033400220600009d
:020000040000fa
:040338002206000099
:020000040000fa
:04033c002206000095
:020000040000fa
:040340002206000091
:020000040000fa
:04034400220600008d
:020000040000fa
:10040000afe521000eff27000e018800000000006c
:10041000000020000000e000020032000001200087
:10042000200288000e000700602922000100200041
:10043000810f70000100320014000700000020004e
:100440000000e00002003200000002000000000096
:1004500004260200000000000040da000000fe0058
:100460004440a900400520000000e00003003200e5
:1004700000002000a00188004440a8000000060001
:100480008a1f78008b1f7800000006009101880009
:10049000800478000000eb001a003700e28444007a
:1004a00032a0b4009905ba00e284440032a0b4003e
:1004b0009906ba00e284440032a0b4000006eb00c2
:1004c000476fde00fd07b200636ce10003003a00f5
:1004d000ebff07000000eb000a003700606ce10052
:1004e00004003a00005deb008b05e900fdff3e00d3
:1004f000040037006168e100010032000086eb0073
:100500000b00070019c7ba001905ba000e04e00075
:1005100003003a000a00e000e0ff3a000000060095
:10052000fe07b2009e0188008a047800f5ff3700bc
:10053000395dba008b05e9000c003200295dba0074
:100540008b05e900080032000c00e00003003a00cf
:10055000e284440032a0b400f5ff370019ddba0090
:100560008b05e900faff3a008904e800e1844400c1
:1005700032a0b400000006003600f800809fbe00e4
:10058000829fbe00849fbe00869fbe0008a2ab0073
:1005900011003a000010800040e8b7000842ab00ac
:1005a0000a00320042c8bf00440e07000000fb00f2
:1005b000101088000782a8000802ab00feff3a0076
:1005c00030c0b30041e8b7001f00370010c0b300cf
:1005d00041e8b7001c00370041c8bf00e14f5000a0
:1005e00007003a000010800042e8b7000782a80028
:1005f00020c0b30041e8b7004368ef0012003700a5
:10060000e24f500005003a000110800042c8bf00d0
:10061000c70e07000782a8000b003700e34f500009
:1006200009003a0042c8bf004348b400230e070047
:100630000000fb00101088000782a8000802ab0031
:10064000feff3a004368ec008600a9004f03be009d
:100650004f02be004f01be004f00be003600f90041
:10066000004006003600f800809fbe00829fbe005a
:10067000849fbe00869fbe00889fbe008a9fbe00ea
:100680001800fa0008ff2f00a01680000004640084
:10069000f00f440029003a0070408000e10f500044
:1006a00010003c0005c8bf00e14f500008003a00b0
:1006b0000568ef00d50807000000eb00000000000f
:1006c0000000e800f40f5000fcff3a00aa09070000
:1006d00088007800e0842000640c07000e28ec00fd
:1006e0001400370080408000e10f500011003a00f4
:1006f000fa8457000004eb004a0e20002b932000e0
:1007000008004400f88057000080400088407800ce
:10071000ae0807000ac0b90000804500d900780083
:10072000520c07000804e800ec0f5400f4ff3a00f4
:100730001028ef001628ef000d0037001008e20027
:1007400007003a001608ec00b0408800e60f5000a1
:1007500003003a00100020008040880005e8b70040
:100760000e28ef0088007800e08420003f0c07008e
:100770008500a9000080fa004f05be004f04be00ae
:100780004f03be004f02be004f01be004f00be002f
:100790003600f900004006003600f800809fbe00d9
:1007a000829fbe00849fbe00869fbe00881f780087
:1007b0005816800023c8bf00e14f50000a003a00dd
:1007c0002008ec0000418800e1022000810f500069
:1007d00002003a002028ef002368ef00ca22ef0051
:1007e0008460a9005300370024c8bf00e14f5000c7
:1007f00038003a002468ef002248e20027003a005f
:100800004ac8bf0041c6b300814f500003003e00fc
:100810000000eb007011070015003700f1cab300ab
:10082000814f500006003e000080fb0000004000a9
:10083000800cb10060418800671107000c00370090
:10084000a1cdb300814f500007003e0032c0b3007d
:100850000440bc000280d100f007b1006041880074
:100860005d11070002003700800c20005a110700bc
:1008700010c0b30022e8b7005166210011088800bb
:10088000612c20006108880031162000110c8800be
:10089000010c880023e8b7000e0037004ac8bf00eb
:1008a0000080fb004c1107002268ef0000fa2000d6
:1008b000100888009005200060088800c002200011
:1008c000100c8800000c88001e68ef0010c0b300f8
:1008d00023e8b700680cb2001ec8bf00e14f50000b
:1008e0000f003a000041800080004000426021007b
:1008f000e2807800088470000000e8000041880071
:10090000e1022000810f500008003a002028ef008b
:100910001e68ef0010c0b30024e8b70003003700e2
:1009200040602100fe1007001ee8b700581688003e
:100930008460a9004f0478004f03be004f02be0040
:100940004f01be004f00be003600f9000040060017
:1009500087e0a900004006003600f800809fbe0036
:10096000829fbe00849fbe00869fbe00881f7800c5
:100970003200fa0087c0a900b01180000000fb001f
:10098000cf80de001003b1000180b10052032000cf
:10099000820f5000e08f58005b003e0000600100b5
:1009a0005b0037007d0037007e00370032003700e3
:1009b0003300370034003700350037003600370089
:1009c00037003700500037004f0037004e00370027
:1009d0004d0037004c0037004b0037004a0037000d
:1009e0003d0037003e0037003f0037004000370031
:1009f0004100370042003700430037004200370013
:100a000041003700400037003f0037003e0037000c
:100a10003d0037003c0037003b0037003a0037000c
:100a2000390037003800370037003700360037000c
:100a3000350037003400370033003700320037000c
:100a400031003700300037002f0037002e0037000c
:100a50002d0037002c0037002b0037002a0037000c
:100a60001100370012003700130037001400370060
:100a7000150037001600370042002000250037001f
:100a800052002000230037006200200021003700c0
:100a9000720020001f003700820020001d00370078
:100aa000920020001b003700a20020001900370030
:100ab000b200200017003700c200200015003700e8
:100ac000d200200013003700e200200011003700a0
:100ad000f20020000f003700a20020000d003700b8
:100ae000b20020000b003700c200200009003700d0
:100af000d200200007003700e20020000500370088
:100b0000f2002000030037000081eb0001003700f5
:100b1000120020002fc8bf008000fb008180400031
:100b20000383200082b178000040e8002fe8b7007e
:100b3000e34f50001d0034002f68ef0003007800e1
:100b4000100478004c44dd0090009000c808dd00df
:100b500001044400b0009000010444002000900013
:100b60004400dd000004440008007800bd0c0700cc
:100b7000881f780020462900801f7800a0fc2f00e5
:100b80000f004000f0030700a0fc2f000f00400002
:100b9000b70d0700e487570004003700220020004b
:100ba000dcff370032002000daff37000080fa0057
:100bb0004f0478004f03be004f02be004f01be003d
:100bc0004f00be003600f90000400600809fbe00c6
:100bd0008580a9003ac8bf00eb4f500007003c00d9
:100be000c14180008100e800c14188009100fb0004
:100bf000211188000040e8003ae8b7004f00be002d
:100c0000004006003600f800809fbe00829fbe00b4
:100c1000849fbe00869fbe008560a90031118000c0
:100c20008100fb0000ac2100100b07004f03be0049
:100c30004f02be004f01be004f00be003600f9005b
:100c4000004006000040da000000fe0000c0da00ac
:100c5000000006000a00fa00e20f500034003e00d7
:100c6000c0f28000e10f500003003200e20f50009c
:100c700011003a000c003700032220000300e000be
:100c800001003a000040da002002e20002003500d4
:100c90002822ef0021e2a8002342ab000d003a0019
:100ca0002342a8000b003700032320000300e000cc
:100cb00001003a000040da003002e2000200350094
:100cc0003822ef0031e2a8003342ab0001003a00c5
:100cd0003342a800820178000b0037003102fb008c
:100ce000e10f500004003a002322ab00feff3a005f
:100cf00024118800030037003322ab00feff3a00c6
:100d0000a41188008301e9000300e000f3ff3a002a
:100d1000e10f500003003a002302ab00feff320057
:100d20000b0037003302ab00feff32000800370033
:100d300033002000b3bf9f00c0bf9f00d1bf9f0002
:100d4000e2bf9f006a805700c0ff07006fb997009d
:100d5000020078000080fa00000006006011b80070
:100d600066013700889fbe008a9fbe008c1f7800f6
:100d7000910107009801330003866c006450e10084
:100d8000240032006420e100270032006150e100bd
:100d9000220032006120e100210032008b854200f8
:100da000eb07b1000134b800003ab8000804420073
:100db00089844a00013ab8000030b80088804000b9
:100dc00009014a000400330000004000818048000f
:100dd000020149008b05e900c909dd0083017000ab
:100de0000100320013002000c814de004814dd00aa
:100df0004709de001200b200c808de000884700057
:100e00008501070001f0a1000cf0a70001f0a0008f
:100e10007a0137006120e1007c0132000801be0048
:100e20000200be00f7ff37006150e100fcff3a000e
:100e30007601370003f0a200889fbe008a9fbe00a3
:100e40008c1f78005c010700630133006450e100ef
:100e50004f0032006420e1005200320003826c0037
:100e600007003b000905d0000306d000820f5400a4
:100e70000c065d0002003900020032008901780092
:100e8000030678008582550004003d000003fd0044
:100e90008103fd008502ea008b854200840f720009
:100ea00002003b0060001000e08018006011b800f4
:100eb0000005eb007a28e1000a00390006007800fe
:100ec000c75ddd00f707b200878075002d00370091
:100ed000828171000a017800610560008180d10083
:100ee0000080d3008502e900f9ff3b0006044000c2
:100ef0008784480002003b0060041400e0841c006a
:100f00000988a300070032008a8171008281710084
:100f1000610164008904d1000884d3008b05e800d6
:100f2000170037000978a30013003a000b00e00017
:100f3000130034008b05e9000804440089844c0048
:100f40000a4474000978a3000d003a000b00e00089
:100f5000070034008b05e9000804440089844c0034
:100f600001003a000b0020000978a300f7ff3200cf
:100f70000001eb0002003700828171000a01780055
:100f8000250107000cf0a70001f0a0001b013700ad
:100f90006420e10002003a00838f6c001b013300e3
:100fa0000801be000200be0014013700040020004a
:100fb0003f013700889fbe008a9fbe008c1f7800cb
:100fc000fd0007001002200002003b006042880084
:100fd000010137008a0062006408e10002003a0063
:100fe00060428800090137006108e100fcff32001f
:100ff0000800be00030478000d00070001f0a10006
:101000004601070008f0a600040037000001be00fa
:1010100091042400b0fd200086ff070009f0a7001e
:1010200001f0a200f50037000081eb00a0013700bd
:10103000889fbe008a9fbe008c1f7800de000700dc
:10104000e500330003866c006450e1002e0032009e
:101050006420e100330032006150e1002f003200d3
:101060006120e1003100320085855500eb07b000ba
:10107000090020000804200005003700080444008f
:1010800089844c000a0031000603430087834b002b
:101090000001530081815b00f8ff33000203be00b2
:1010a0000800a0000804440089844c00f6ff3900c1
:1010b000c639dd00830173000100320013002000f7
:1010c0008904d1000884d3000998a30005003200e8
:1010d0000800a7000300a0008904d1000884d30001
:1010e0008b05e8008904d1000884d3000001eb00df
:1010f0000281d200c800070001f0a1000cf0a70097
:1011000001f0a000bd0037006420e100bf00320004
:101110000801be000200be00f7ff37006120e100b9
:10112000ba0032006000b800f3ff37000000200072
:1011300001f82700f0ff3700889fbe008a9fbe009d
:101140008c1f78000004be00c20107000478a300d1
:1011500026003a006120e1002500320009f8a300d2
:1011600025003a006420e10021003200f507b100bb
:101170000508a30002003200000040008180480002
:101180006044b8000310200002002000000040006e
:10119000818048000805440089854c000a0541000b
:1011a0008b8549000a0550008b85580003003300e9
:1011b0000a00be0002047400838474008301d1001d
:1011c0000281d300830f7100f0ff3a008904d1003f
:1011d0000884d3006001490082017800c1adde00bf
:1011e000fb07b0008c000700840037000960a000f6
:1011f0000800be0081003700120220006242880011
:10120000f0ff2f00f1ff27007c0037000001be0037
:10121000900107000470a70003f0a1006509b10068
:10122000160032000d0035006828e1000600350088
:10123000f0ff2f00f1ff27000300e00013003b0048
:1012400001002800000005000000400081804800e7
:101250008502e900fcff3a0008003700f88f4200e1
:1012600002003c008000eb00000005008100d1007e
:101270000080d3008502e800fcff3a000300e00094
:1012800002003b0060001000e08018000000060033
:101290000001be006f0107000470a70003f0a10069
:1012a00003f8a30013003a006509b10010003200f2
:1012b000090035006928e10002003500010028001e
:1012c0000000050000004000818048008502e90020
:1012d000fcff3a0000000600f88f420005003500d0
:1012e0008100d1000080d3008502e800fcff3a00b5
:1012f000000006008000eb0000000500889fbe0093
:101300008a9fbe0000827000040271000482710096
:10131000260032000004be000200be006011b800ca
:101320006b092000950220000182cf000a003900dd
:101330000541b1000082cf00070039000541b1002e
:101340000982cf00040039000541b1000882cf00b6
:10135000010039000541b10005425200120032007f
:101360000a003b0082817100610164008100d100ac
:101370000080d3008984d3000884d3008b05e80063
:101380000442e800f7ff3a00070037000804440071
:1013900089844c0000004800818048008b05e900ea
:1013a0000442e900f9ff3a001b0007004f05be00a8
:1013b0004f04be00000006000004be002501070027
:1013c0000003be000405be000200be0021010700ac
:1013d000844f7500000006000200be006450e1006a
:1013e000050036006420e100020036000968a30011
:1013f00001003a000800be000160a0004f0678001e
:101400004f05be004f04be0000000600f0ff2f0095
:10141000f1ff2700f9ff37008100200061805500af
:101420000b003d000b00200061fe2f000100e100d9
:101430001d00340082817100610164008904d100c3
:101440000884d3000000e800faff3a007100200091
:1014500061006400030070000200600009003200b7
:1014600061044400e0844c000988a50005003200b6
:101470008b05e8006808e10002003a008904d10009
:101480000884d300f20f20000258e10005003d005f
:10149000c75ddd00f907b20089807500080078009b
:1014a000000006000bf827008b0078000000050004
:1014b000889fbe008a9fbe00841f7800beff070081
:1014c0004f00780011003300f0ff2f00838f6c0075
:1014d00006003b00040565000a00a700080037006d
:1014e00009f0a6001000200008003700820f540009
:1014f000838f5c00030039001000200001003e00d3
:101500000000200009f0a7000000ea004f05be001f
:101510004f04be000000e00000000600889fbe00ef
:101520008a9fbe008c9fbe000004be00c900070059
:101530000800be00890678006420e1000800390038
:10154000040032000160a000120220006242880004
:101550005300370091fc2300b0fd20004e003700ff
:101560000006eb0009f0a10003f8230002002000b0
:101570000800be00cc0007000600340001f823007c
:10158000000020000801be00a9fe07000004be0004
:101590002c0020000800be0093e82300320a23003c
:1015a000c1000700120034000801be00d1fd230075
:1015b000703d2b0020fe07000005be00b3f32300a2
:1015c000f27a26000800be00e6fd070003f82300bb
:1015d0000200200017fe07000801be0016fe0700eb
:1015e0000a01be0092fe07000004be000c06e800df
:1015f0000800be0001f0a1000200200003982300b3
:10160000a90007000800be00160035000801be0052
:10161000d4fd07000005be0032cd2c0043fb2300a3
:1016200005fe0700809fbe001269280003d52b002d
:101630000a00be00cbfd0700620f210013ef2b0054
:10164000fdfd07000a01be00c6fd07004f01be00f8
:1016500077fe07000801be00c2fd07000801be00ba
:10166000f5fd07000c00e0000b0032000c10a70095
:1016700001f0a200b2fd200093fc23006260e100b3
:101680000400320022a9200063f023000c10a70000
:1016900063f82300e8fd07000df0a70001f0a200a9
:1016a0004f06be004f05be004f04be0000000600fe
:1016b000889fbe008a9fbe008c9fbe008205780076
:1016c0000004be00630007000800be006420e100c3
:1016d0000700390002003a00f1ff2700f0ff2f0059
:1016e0000160a0001202200062428800550037000d
:1016f0006120e10003003a000b00a70001f823007d
:101700005000370001f0a100020021009364240082
:10171000650007000800be0004003500b2fd20008f
:10172000930c2400620007000004be000005eb00db
:101730000b00a6004f0dde0001f0a1000004be006a
:1017400032982f0023ea230086fd07000001eb00fa
:1017500003f023000b00a70003f82300b6fd0700e9
:10176000aafe07000000a7000a00a200520007001e
:101770000b00e000030032000200200003f0230011
:10178000acfd070001f0a2000006be000200200030
:101790009304240073fd07000801be00a6fd0700a6
:1017a000809fbe000c00be0022a22a00d3a7230007
:1017b0006cfd07004f01be009ffd07000004be0046
:1017c00001f0a1000200200003982300360007006a
:1017d0000800be00190035000001be0061fd0700d1
:1017e0000006be00b2c52900e36223005dfd0700cc
:1017f00022222b00f3942b008ffd07000c01be006a
:1018000058fd0700e273280083c023008afd07000b
:101810000c01be0053fd070042aa2a00a3e22b00e0
:1018200085fd07000c01be004efd07000801be004b
:101830004cfd07000801be007ffd07000a00a7005d
:1018400001f0a2004f06be004f05be004f04be00cf
:1018500000000600c70ade00f107b200f50fb20073
:1018600008003200e1cf4200020032000170a00007
:1018700024000500810f70000100320004080500fb
:1018800044000500810f700002003a0014000500ba
:101890008502e9000000400081c04800fcff3b00d9
:1018a0000170a000240005001400200000ff370094
:1018b00004002000030037004f89de008201780019
:1018c0004f003700889fbe008a9fbe008c1f7800a3
:1018d0004f26dd00b8fe0700bffe33006120e100a7
:1018e000430032006250e10041003e003e003900fa
:1018f0006420e1003c003200058255000f003b00ef
:101900000402e80038003a00800f5300818f5b002a
:10191000350034000800be0003f0a10001f0a6006d
:1019200003f0a0000cf0a70043fd0700b3fe370052
:101930000603430087834b000c4646000005530016
:1019400081855b00020033000a03be000c00a0008a
:101950000402e900f6ff3b0085057800060243001b
:1019600087824b0004003a006000b80009f0a7002d
:1019700001f0a000a1fe37000002520081825a004f
:101980000704e000040033000603430087834b0094
:101990008b05e900faff3700090578000604be0050
:1019a0000203be006011b8009bfe0700e00f52006a
:1019b000e08f5a000700350002003c000c08a3002d
:1019c000040032000601be0003f0a0000cf0a700e6
:1019d00019fd07000a85680001f0a1000af0a700c0
:1019e00001f0a00085fe37000800be0083fe37002e
:1019f000100220000cf0a6006042880083fe370031
:101a0000881f7800030478000300e00007003d0011
:101a100060001000e080180060011900e0811900ea
:101a200002003b0001f02d000300370033fe0700e9
:101a300008f0a70001f0a0004f04780000000600a5
:101a4000020ab900001bb9000200b8008100420080
:101a500081004300000006006022b800060220005a
:101a60000000d0008180d2000482d2008582d200a2
:101a70000000a0000202520083825a0003003100dd
:101a80000202420083824a000000a1000603e9002e
:101a9000f3ff3a000000060031e2a90097c0a90058
:101aa00097e0a90087c0a90087e0a9000000060010
:101ab00081118000e6806000e68f50000c003a0043
:101ac000030037003322ab00feff3a00a11188006b
:101ad000b00078000100e000faff3a0000000600c4
:101ae0003322ab00feff3a008100fb00a111880009
:101af000b04078000104e000f9ff3a000000060061
:101b0000001020003202b6000000e9004f00de00a5
:101b10000000060021e2a9009560a9009580a900b7
:101b20008560a9008580a9000000060001118000e1
:101b3000e6806000e68f500001003200f00fb20036
:101b400020118800000006000c00fa00889fbe00eb
:101b500000047800f0ff2700d0bf9f008004eb0056
:101b600099bf9f0088bf9f00a8bf9f00200c200046
:101b7000b0bf9f0078815700cfb0970070805700aa
:101b80002a0007000fb89700094878008fb897001f
:101b9000088050004f04be000080fa0000000600dc
:101ba0008000eb0070f2880081f2880011c0b30061
:101bb000c0e421000148780000000600c0e42100d4
:101bc0001004e00002003a0010002000f4ff0700bb
:101bd000d2e62400631c240070f2800081f28000b1
:101be00097ff07009203230003002000000141003b
:101bf0008181490072f2880083f288000300780036
:101c000000f0a10000000600d00190000281510008
:101c10004240a90003003400100178000149780017
:101c20000208e8000100780000000600f68747007f
:101c3000889fbe008a9fbe008c9fbe008e1f7800ca
:101c400000057800a1b79f00020778008004eb0030
:101c50008e023700afb097008100e800a1b79f0067
:101c600051c2b300814f500003003a00afb097005b
:101c70000004eb0011003700ba0090000000fb00e8
:101c80000168a30007003200090178008000780095
:101c90000a007800dcff07000000e00005003a00c1
:101ca0007a0237008a00780084020700e10f4000c2
:101cb000760232008904e8007402370001007800df
:101cc00031417800d3c2b300834f51000c00320081
:101cd00007003c00edc15100834f51000a00320063
:101ce000ebc14100834f51000d003a00080037005e
:101cf00003c3b300834f510009003a0006003700c8
:101d00000830a000edff37000800a000ebff37000f
:101d10000810a000e9ff37000820a000e7ff370007
:101d20000810a7000800a1000830a7000820a100a3
:101d30008200fb000103b100e98f50000c003e005f
:101d4000000178008000eb006a08b900b201fb00d6
:101d50000303b10080804100020078009201fb0083
:101d60000303b100e98f5100f7ff3600060037008a
:101d70008000eb00a3c2b300834f510002003a0081
:101d8000ce0078000000e8008005eb00e2c2b3005e
:101d9000904f110009003a0008e0a0006441510092
:101da000d04f1100030032000001780001027800da
:101db00006003700ce0578000000e800000178003a
:101dc000090037006a58b900808541000200780098
:101dd000b201fb000303b100e98f5100f9ff3600a7
:101de00084007800f5ff370032407800a2b79f00ea
:101df000c3c6b300834f5000250032000f003c00e3
:101e000032c6b300824f50008800320004003c000c
:101e10000004e000220232006b4151000f00370045
:101e200042c6b300824f50001700320065414100a6
:101e3000824f500094003a001300370032c7b300bd
:101e4000824f50001b00320007003c0064415100eb
:101e5000824f5000100032000241e800824f5000d3
:101e600089003a000f00370052c7b300824f50007c
:101e70008a00320063414100824f500082003a00e4
:101e8000e0df9f0009003700e0df9f00850037009a
:101e90000840a000d4ff3700e0df9f000860a000ea
:101ea00080003700e0df9f000850a0000870a0000d
:101eb0007c003700e0df9f004e00780000067800cd
:101ec0000000e00001003a00ccd721000c017800ae
:101ed0000000eb00010037000000e800e24178005c
:101ee0000304e000fcff3a00800678000b00e000ed
:101ef000030032008d8f5500010031008b06780001
:101f00008005eb008d8f5000010036008d8550005c
:101f1000680464002a003a00110037003a0090007b
:101f20000068a300070032000901780001022000c8
:101f30000a00780034ff07000000e00006003a00c5
:101f4000060037008a00780000022000db0107004d
:101f5000e10f4000010032008904e8008b05e90030
:101f60000b00e000edff3a008085eb001400370025
:101f70003a0090000068a300090032000c007800cd
:101f8000b000fb0000067800090178000a00780024
:101f90001dff07000000e00008003a0008003700bd
:101fa0008c0078003100fb00010678008a00780080
:101fb000c2010700e10f4000010032008904e8007f
:101fc0000d0078008006e9000000e000e8ff3a001c
:101fd0000800e000ad013200110037003a00900027
:101fe0000068a30007003200090178000102200008
:101ff0000a00780004ff07000000e00006003a0035
:10200000060037008a00780000022000ab010700bc
:10201000e10f4000010032008904e8008b05e9006f
:102020000b00e000edff3a00980137004e01780008
:10203000cf91de00c81ade004818dd004812de002d
:1020400004027000e4df9f000848a300080032008b
:102050000404e00006003200e14f420004003200b8
:10206000f4df9f0082e79f002d0020000200370070
:10207000f2df9f001d002000e2fd2f000f01410054
:102080000206e80099ff3700e0df9f00ecfd2f001b
:102090000f0646001d00200094ff3700e0df9f0080
:1020a000080cb30008017800020cb2007000640054
:1020b0000200e0000d003a000000e00002003200e3
:1020c0004e06be00020037004e067800cfe6de0066
:1020d000e00f5600e08f5e000a003d003800b300bc
:1020e00060061600e0861e00060037000000e000d3
:1020f000020032004e06be00020037004e06780095
:102100008006eb000b00e00005003a008c857600ad
:102110000bf0a7008b05ea008b05e900cf5dde0020
:1021200088017800030cb200e3b79f000004200090
:10213000808f51002300320003003c000300e000c8
:10214000080032002d003700000820006fb2970011
:10215000800f52000d003200000c2000800f520052
:1021600026003a0042d8210010c0b30064014100ab
:10217000b20f5600a28f5e001f0039000040e80039
:10218000ea4f5000f9ff3a001b00370010c0b300bf
:102190000201200003002000820f5600838f5e00a2
:1021a00015003900441add00cc11de0083017200f5
:1021b0004411dd000040e800e84f5000f6ff3a000f
:1021c0000d00370010c0b300820020000300200083
:1021d000820f5600838f5e0007003900431add002e
:1021e000cd11de00830172004311dd000040e800e4
:1021f000eb4f5000f6ff3a00e0df9f006fd99700e9
:102200000200fb008b0f500002003d00ebdf9f003f
:1022100003003700808f550001003d0080057800e5
:102220000100e0000300320063006400010032009e
:102230008100e90008e8a300050032008b8f500000
:10224000020034008b805000010037008000eb005a
:10225000efd997000300fb000002eb00d4b79f000a
:10226000808f50000200340000805000d0b79f00e3
:102270000828a30040003200610164000818a30090
:102280000f0032003a0090000068a3000600320000
:10229000b10220000200e000010032008180e8006d
:1022a000090178000d003700b00220000200e000b4
:1022b000010032000080e8008a0078000e0037003c
:1022c0000200e000100032003a0090000068a30015
:1022d0000700320009017800010220000a0078009e
:1022e00049fe07000000e00006003a000600370043
:1022f0008a00780000022000f0000700e10f400093
:10230000010032008904e8005fb097000000e0009f
:102310005a003200bcb79f00cdb79f0080067800fe
:102320003a0090000068a30007003200090178001d
:10233000010320000a00780033fe07000000e000df
:1023400006003a00060037008a00780000032000eb
:10235000da000700e10f4000010032008904e800c4
:102360008d06e900eeff3a00ddb79f003fb697000b
:10237000cfb6970041003700dfb197000300e000bf
:102380001a0032000838a30018003a00bcb79f00ba
:10239000cdb79f00830678003a0090000068a30044
:1023a0000700320009017800010220000a007800cd
:1023b00015fe07000000e00006003a0006003700a6
:1023c0008a00780000022000bc000700e10f4000f6
:1023d000010032008904e8008d06e900eeff3a00b2
:1023e000ddb79f003fb69700cfb69700610164004c
:1023f0000818a3000f0032003a0090000068a30004
:1024000006003200b10220000200e00001003200ac
:102410008180e800090178000d003700b00220003b
:102420000200e000010032000080e8008a0078002d
:102430000e0037000200e000100032003a00900069
:102440000068a300070032000901780001022000a3
:102450000a007800ecfd07000000e00006003a00ea
:10246000060037008a007800000220009300070071
:10247000e10f4000010032008904e8000b03e9008d
:102480006330b90000017800b2b79f004233dd002d
:1024900040d82100000343008e01780093b79f00cd
:1024a00008077800060478005c0037008b05e90017
:1024b000000420006fb29700800f520038003200f5
:1024c00003003c000400e000080032003e0037003a
:1024d00000082000efb09700808f500020003200ed
:1024e000000c2000808f500037003a000e48a300f7
:1024f000100032001802be000401be000c00be0035
:10250000f4b79f0085bf9f0053fd0700e0df9f00e9
:102510000000fb00cf80de007fb297008fba9700eb
:102520000401be0046fd07000006560081865e00dd
:102530000700370018017800110009000286d80052
:10254000a2002000110009000280d800e1df9f00f6
:102550006fd997000243b000e2df9f001a003700f6
:10256000b0d621000e58a30001003200a0d52100f2
:1025700041d82100810054000c01be008100e90017
:10258000030033008301d1000281d300fbff370039
:10259000ef006100e0c07800e1df9f000a00370033
:1025a0000c00be00bfb197008301e90003003300b7
:1025b0008100d1000080d300fbff3700674060003e
:1025c0000043b000e0df9f00ba0090006fda970090
:1025d0000400fb000168a300070032000901780035
:1025e000800078000a00780087fd07000000e00006
:1025f00005003a00050037008a0078002f00070028
:10260000e10f4000010032008904e8003fb097006c
:1026100063005000b0b79f00640454000b00e0005a
:10262000a2ff3a000e0478001fb797000838a300f5
:1026300016003200dfb097000100e0001300340004
:10264000010478003a0090000068a30007003200ff
:1026500009017800010220000a0078006afd0700e5
:102660000000e00006003a00060037008a0078000b
:102670000002200011000700e10f400001003200bd
:102680008904e8000804e900eeff3a002fb1970042
:1026900012407800e0df9f000004e0006dfd3a008a
:1026a000090078004f0778004f06be004f05be00b6
:1026b0004f04be006f01b10000000600889fbe00fd
:1026c00001047800b80090008084eb000118a3009a
:1026d0003a003200180190000198a30002003a006d
:1026e0000200e00035003a000190a000310498009b
:1026f00080047800f90fb2000200e00002003a0006
:1027000028009000000c7800ea8f540005003a0081
:102710000178a30003003a0088007800d000200070
:10272000e6ff070018009000d8009000810f5000cd
:102730000b0032000000e800100498001800780038
:1027400009487800000ce80011c0b30020e5210022
:1027500001487800ea8f540018003a00050037005d
:10276000880078000940780017000700800478008e
:1027700012003700380090000088a3000f003200dc
:1027800018019000a80090004800900031f907005f
:1027900098009000810f5000040032003800900033
:1027a0000003b300300498008084eb000000eb00cd
:1027b0001004980028009000000c780009007800b0
:1027c0004f04be00000006000200fa00889fbe0011
:1027d000a0ff9f0001047800380090000068a3006b
:1027e00033003a00e200600005003a000003b30045
:1027f00030049800110498000080eb002e00370090
:10280000d80490000900e00006003a001200200001
:10281000e6805700480090000ef907001904980060
:1028200023003700a80090000100e00008003a00f3
:1028300051e5210021049800010c780021002000be
:1028400051049800110498000030a0003004980052
:1028500018019000a800900048009000fdf80700c3
:10286000280090008080eb0011049800aff89700da
:1028700001487800000ce8002ff89700ea4f50005c
:102880000b003a00380090000088a30008003200d6
:1028900018019000a800900048009000edf8070093
:1028a0000000eb0010049800a8009000010c7800d4
:1028b000aff897000100fb004f04be000080fa0053
:0428c000000006000e
:020000040000fa
:1028c40052650000636500006976000065640000dd
:1028d4003a200000257800000a0d000000440000a2
:1028e40061740000615100007565000075650000a9
:1028f4003a20000025580000202500007520000023
:1029040025750000202500007520000025580000d2
:102914000a0d000000000000452d00005055000085
:10292400434b000020520000414e00004745000088
:10293400204100004e4400002042000045410000b8
:10294400524900004e47000020530000544100004b
:1029540052540000454400000a0d0000000000002d
:082964002575000020000000b1
:020000040000fa
:10296c00889fbe008a1f78008004780048012000f0
:10297c000a0220000800780004090700801c780077
:10298c000804e8008a0f5400faff3a004f0578005b
:10299c004f04be0000000600c05e2100f0ff0700df
:1029ac00a05e2100f8014000d00078004209de0052
:1029bc0002885000830f5000fbff3a000000060015
:1029cc00889fbe00800478000104fb007400440062
:1029dc00ee08070008044400c15e2100e1007c0001
:1029ec00010050004240a90002003400800c780025
:1029fc0001003700800ceb004f04be000000060005
:102a0c00e202a800e222a800e802a800e822a8003e
:102a1c00e982a800e9a2a800e9c2a800e9e2a8009e
:102a2c00c4a2a800c482a800c422a800c402a800a2
:102a3c00000006000000fb00cf80de00eb0f500012
:102a4c00e08f580060003e00006001000b00370072
:102a5c0011003700170037001d0037002300370026
:102a6c00290037002f003700350037003b003700b6
:102a7c0041003700470037004d003700e202a80044
:102a8c0040062000000000000000e900fdff3a00b5
:102a9c00e202a9004c003700e222a8004006200008
:102aac00000000000000e900fdff3a00e222a9004e
:102abc0045003700e802a800400620000000000096
:102acc000000e900fdff3a00e802a9003e003700d3
:102adc00e822a80040062000000000000000e900e9
:102aec00fdff3a00e822a90037003700e982a80070
:102afc0040062000000000000000e900fdff3a0045
:102b0c00e982a90030003700e9a2a80040062000a5
:102b1c00000000000000e900fdff3a00e9a2a90056
:102b2c0029003700e9c2a800400620000000000080
:102b3c000000e900fdff3a00e9c2a90022003700bd
:102b4c00e9e2a80040062000000000000000e900b7
:102b5c00fdff3a00e9e2a9001b003700c4a2a8005f
:102b6c0040062000000000000000e900fdff3a00d4
:102b7c00c4a2a90014003700c482a800400620009b
:102b8c00000000000000e900fdff3a00c482a9002b
:102b9c000d003700c422a8004006200000000000f1
:102bac000000e900fdff3a00c422a900060037002e
:102bbc00c402a80040062000000000000000e9004c
:102bcc00fdff3a00c402a90000000600889fbe0069
:102bdc008a9fbe008c9fbe008e1f78000004eb0005
:102bec000840780093ff07000804e800ec0f54003d
:102bfc00fbff3a004f08070013e1a9001221a900be
:102c0c0012c1a90080ff2f00a800b6000000a00090
:102c1c00400588008500a9009500a800f0fc2f0055
:102c2c001221b6000a21ef00cfc2ab000400320023
:102c3c0000fa2000700888000468ef0004003700d8
:102c4c00506621007008880010c0b30004e8b7007b
:102c5c0013e1a800e0842000fb020700203e2100c5
:102c6c00370307000b4821004a5621000004eb00f3
:102c7c0088047800ac4921002d4b2100ae4c21007a
:102c8c00094078006bff07000000eb00802d7800f6
:102c9c0000367c0080367c0000377c0041542100db
:102cac0080307c00400e200000c8b9002293200028
:102cbc0000004100e402070010c0b300004d780092
:102ccc008904e8000884e8006a054500ec8f54008c
:102cdc00ebff3a000c28ef001828ef000e28ef004d
:102cec001028ef0012a8ef001428ef001628ef00b0
:102cfc001a28ef000628ef0027ff0700a85e210026
:102d0c00780544002b4b290029512100d81f78004d
:102d1c008b1f78000900780088fb070009007800f9
:102d2c0050050700e48757008a0f5400f7ff3a005c
:102d3c00a1c0b30020512100014878000000e80038
:102d4c00d1c0b300014878000000e8000048eb0057
:102d5c0009007800430507004f0778004f06be00b6
:102d6c004f05be004f04be0000000600e202a900a1
:102d7c00e222a900e802a900e822a900e982a90040
:102d8c00e9a2a900e9c2a900e9e2a900c4a2a9002c
:102d9c00c482a900c422a900c402a9000000060034
:102dac000000fb00cf80de00eb0f5000e08f5800de
:102dbc0024003e00006001000b0037000c003700bf
:102dcc000d0037000e0037000f00370010003700e1
:102ddc0011003700120037001300370014003700c1
:102dec001500370016003700e202a9001500370065
:102dfc00e222a90013003700e802a90011003700f5
:102e0c00e822a9000f003700e982a9000d00370065
:102e1c00e9a2a9000b003700e9c2a900090037009c
:102e2c00e9e2a90007003700c4a2a9000500370099
:102e3c00c482a90003003700c422a9000100370096
:102e4c00c402a900000006000000fb00cf80de00d9
:102e5c00eb0f5000e08f580024003e000060010092
:102e6c000b0037000c0037000d0037000e00370048
:102e7c000f00370010003700110037001200370028
:102e8c001300370014003700150037001600370008
:102e9c00e202a80015003700e222a8001300370058
:102eac00e802a80011003700e822a8000f00370044
:102ebc00e982a8000d003700e9a2a8000b0037003a
:102ecc00e9c2a80009003700e9e2a80007003700b2
:102edc00c4a2a80005003700c482a8000300370074
:102eec00c422a80001003700c402a800000006009c
:102efc0080007800e08420006e02070000000600cd
:102f0c0080007800e08420005502070000000600d5
:102f1c008f02b000889fbe008a9fbe008c9fbe00af
:102f2c008e1f7800a0802000f1ff07000004e00055
:102f3c00d70132001a28ef0060408000e10f5000ea
:102f4c0030003200e20f5000750032000000e0004b
:102f5c00c1003a005a40800045408000c6408000c5
:102f6c0040562100a2492100430020008000eb00c4
:102f7c0001067800495421008045eb0001047800db
:102f8c002e4b21000d01200017c0b30090cf130071
:102f9c0015003a008352de00e1826200e98378007a
:102fac00878f520005003a001202e80004097800ed
:102fbc00e60f5200050032000b0037000b4878007a
:102fcc000603e800080978000700370008097800b4
:102fdc000db77800a44c210008b27800a74f21004f
:102fec0088b378001c0020006a0040000281e800d1
:102ffc008180e8008301e800f88f5000e2ff3a007e
:10300c00920037005a40800046408000ce4080003d
:10301c0040562100224b2100a349210044002000ee
:10302c008000eb001c002000010478002b482100dc
:10303c00ad4c21008e047800c9b79f001ec0b300b0
:10304c00904f17002a003a000453de00610363001e
:10305c00830278001300e00004003a0017002000ff
:10306c008709780086b57800190037008809780040
:10307c00eb837800870f5300100032009204780025
:10308c00708714008e34dd00d9b79f006d877800ef
:10309c000e8744008eb67800920478000909e90086
:1030ac000700e0000a003a00ae4f2100ee837800e2
:1030bc008703e80007b77800050037008043eb0072
:1030cc0007487800cfb497008904e800c9b79f007f
:1030dc001200e00006003a004e0020000e097800b5
:1030ec00880a7800254e210088b278002c00200038
:1030fc006a0040000281e8008180e8008381e800da
:10310c000402e800f88f5000ccff3a004fb797004c
:10311c0046408800ce4088006c4088004e00370046
:10312c005c40800047408000c6408000f6b79f009e
:10313c00e8408000d8b79f0040562100224b210068
:10314c00a3492100244e2100450020008000eb0003
:10315c00c1b79f00ad4f21001a0020002e4821005e
:10316c000003780019c0b30090cf140027003a0078
:10317c008563de00e1836300030478001300e00044
:10318c0003003a008a09780007b778000f0037006f
:10319c008004eb0089097800ee847800898f530055
:1031ac00050032009204e900893ddd00148a4500d7
:1031bc0009097800050037008044eb0009487800c5
:1031cc00ffb497008904e800f9b79f0082047800e7
:1031dc001200e0000d003a00ed8578009485450062
:1031ec00ef85650005003a004abb9f00a64c210004
:1031fc0066837800d6b79f00cab79f000003eb0028
:10320c00060c780008012000880c78006a00400049
:10321c000281e8008180e8008381e8000482e800f4
:10322c008502e800f88f5000cdff3a004740880037
:10323c00ffb49700c94088005fb79700ee40880044
:10324c004fb09700d04088000300370045408800fd
:10325c00c64088006c408800c0408000ec0f5000d5
:10326c0012003a001a28ef001828ef0049562100e6
:10327c000004eb004a0e20002c93200010c0b30079
:10328c00804c78000c28ef000ac0b9000000460002
:10329c00c1fc2f008f804000860107000804e80065
:1032ac00ea844400ec0f5400f4ff3a00d040800054
:1032bc00e10f5000f6003a000004eb000608e200b3
:1032cc00de003a00c1552100f1b79f00c2bb2100be
:1032dc00c2b79f00c3be2100b3b79f00c4c0b300e8
:1032ec00c4e79f00080778008042eb00c5df9f0011
:1032fc000443780086e79f00feaf9f009eb79f00b7
:10330c006066b8000c05be000004eb00e8a79f0047
:10331c00400e200000f4b9002193200008844000e6
:10332c0008007800770107000000e000fcff3a007d
:10333c00420e200002f0b9002393200000804100cf
:10334c00c1fc2f008f8040005a0107006fa297002c
:10335c00d4b79f000400e0002d00320016002000be
:10336c00ffb29700950f130031003a006120b800ae
:10337c0077f607000004be00cfb397001701be001c
:10338c0075f607000001be000a00be00a7f6070094
:10339c000005be003fb097001001be000800be0043
:1033ac006df607000001be000c00be009ff6070082
:1033bc000006be009fb097005fb19700828f50004f
:1033cc0009003100cee79f000fe29700c4df9f0099
:1033dc008ee79f0001037800f6af9f008203780010
:1033ec0097b79f00120037007fac9700dfb49700af
:1033fc00890f54000c003100cedf9f008fe0970046
:10340c00c1e79f0009017800f2af9f000800370068
:10341c0014002000ffb19700930f120004003a0033
:10342c00cee79f00020037000fe39700c6e79f002e
:10343c000e07e800ffb39700ea834300f7b79f003d
:10344c004fb4970064044400c8b79f00bfb4970002
:10345c00e4844400b9b79f00ec0f5700aaff3a0070
:10346c006011b8000a00be00cdf607006044b80039
:10347c000000e000040032000a01be000c00be0097
:10348c00c9f607000004be001fb797006170b800b2
:10349c002ff607000001be002ff607000001be004a
:1034ac002df607000006be007fa997006110b8003a
:1034bc0027f607000001be0027f607000001be003a
:1034cc0025f60700d0b79f00e1b79f008fe2970069
:1034dc000500fb004200dd00cec1210000004700ca
:1034ec001001be000800be004ff60700cbf6070027
:1034fc000005be004fdb97000600fb004200dd001c
:10350c00000747001e01be000800be0046f607007b
:10351c00c2f60700f0b79f0081bf9f000a01be00f2
:10352c000a00be000cf607000001be000c00be0035
:10353c00bcf607000005be007fb197008fb997005d
:10354c000200be0004f607000001be005fb0970049
:10355c00efb09700b3f607000001be000a00be00f2
:10356c0032f60700f1f60700f0f607000005be0082
:10357c00e3408000f3a79f0002002400c3612400f5
:10358c000800be00f4f507001df70700d0af9f0040
:10359c000448e20004003a000a00be0039f70700b4
:1035ac00a0af9f00040037000a00be0035f70700eb
:1035bc004200de00a0af9f001fb29700b4af9f0087
:1035cc00cfe2970085df9f0088af9f0099af9f00e7
:1035dc00ffa097000fa997009fa997002faa97000b
:1035ec009fb297004fab9700dfab9700203e2100b6
:1035fc00d9000700c80307000004e00001003200f6
:10360c00470307001a28ef001828ef004056210046
:10361c00830720008081410012c0b3008000eb00c2
:10362c000248780041b89f006a004000830f5000a8
:10363c00fbff3a000c28ef00150037002a932000fe
:10364c00c9552100400e200000c0b9000000450003
:10365c00ac0007000000e000faff3a006a40b90035
:10366c00e400400089804000420e200002c1b900f5
:10367c00020045008f0007000804e800ec0f54001e
:10368c00f0ff3a00e1408000c055210075040700ae
:10369c004f0778004f06be004f05be004f04be001a
:1036ac008f02b1000000060080007800203e21004f
:1036bc00ca000700000006000e00fa0090bf9f0031
:1036cc00a1bf9f00b2bf9f00c3bf9f00d4bf9f008c
:1036dc00e5bf9f00f6bf9f00ee805700203e210003
:1036ec00be0007000080fa000000060006c8bf00fc
:1036fc00000006000000fb003040880000000600bf
:10370c00c2442000020140008000eb000109780057
:10371c0093002000e2442000033079000281e8008d
:10372c000200400001087800000006000003be0003
:10373c0002452000e60279000001eb00e98f5200ff
:10374c0017003c00e3442000830143001302e8000f
:10375c00a2002000110009000202d800010178002b
:10376c008209780087007800430620000391b90095
:10377c000281e900820143000001eb0024032000d8
:10378c00b12978000201e800840f5100fcff3a00d7
:10379c0001452000010043000508e800120020004c
:1037ac000200780000000600881f780000047800f2
:1037bc0002452000e80179000001eb000300e00065
:1037cc0016003400c5442000850244002403200068
:1037dc001503780004b3b9008601410083814100d0
:1037ec00e89879000201e800840f5100f8ff3a00d4
:1037fc00c1442000010244009401e800a200200012
:10380c00110009008201d800010a7800014520004e
:10381c00010044001008e9001200200002007800aa
:10382c004f04780000000600000178001000200012
:10383c0001452000e28078000100e0000100340026
:10384c000000eb00000006008000eb0071a898005f
:10385c00d206200002b0980011b0980000000600bb
:10386c00800278000103780095b190000001eb0014
:10387c00d4062000848f51000c003c0005b1900050
:10388c000201e8000402e800110009000401d8005c
:10389c000101780082b29800020141008632790061
:1038ac008301e80093b29800120020000200780017
:1038bc00000006000002780094b190000001eb00bb
:1038cc000300e0000d00340074a9900002014100d7
:1038dc00e4087900f4a890008100e800e2062000da
:1038ec00110009008200d80071aa980094b09000d1
:1038fc008100e90011b2980012002000020078004b
:10390c0000000600800078001000200091b09000ac
:10391c000100e000010034000000eb000000060094
:10392c0010b09000000006008000eb0071a8980019
:10393c00d206200002b0980011b0980000000600da
:10394c008000eb005188980092002000628898005b
:10395c0071889800000006000e00fa00881f78009d
:10396c000004780081bf9f0092bf9f00a3bf9f00ff
:10397c00b4bf9f00c5bf9f00d6bf9f00e7bf9f008d
:10398c00788990008000eb00e90f51000f003c009b
:10399c00e88890008100e800a300200011000900d5
:1039ac008300d800618c98006e0ab9008400440032
:1039bc007080570006000900b0187800e100b100d3
:1039cc000201e800728c98001100200001007800c0
:1039dc004f0478000080fa00000006000002780016
:1039ec00f48990000001eb000300e00010003400ab
:1039fc00548990006e11b9000200420006000900c3
:103a0c00b0187800e100b100d48890008100e80083
:103a1c00a2002000110009008200d800518a9800f1
:103a2c00f48890008100e900718a9800120020004f
:103a3c0002007800000006008000780010002000d2
:103a4c00f18890000100e000010034000000eb0060
:103a5c00000006008000eb00011898001118980077
:103a6c002118980000000600a01a90000001eb003d
:103a7c000500e0000a003c00121898008001780054
:103a8c003182fb00841978000201e800ec0f510030
:103a9c00fbff3a008502e800251898001200200070
:103aac000200780000000600a01990000001eb0055
:103abc000300e0000e003400001a90006c22b900e4
:103acc008401410083814100e0d879000201e800c3
:103adc00ec0f5100f8ff3a008000eb000118980041
:103aec00a01890008100e900211898001200200015
:103afc000200780000000600800078001000200012
:103b0c00a11890000100e000010034000000eb005f
:103b1c000000060000004000e2dd210001317800c9
:103b2c001200200061df21008230780000000600c6
:103b3c00ef0eb000889fbe008a9fbe008c9fbe0017
:103b4c008e1f78004cf02f000f0646006ef32f00ee
:103b5c000f07470020f32f000080470080bf9f0015
:103b6c000e0178000c0078008000eb000128780032
:103b7c00012978008fb99700830f5000fbff3a00a2
:103b8c00e4fc2f000f0242000483e9007c81570003
:103b9c00060078008000eb0001287800820f5000ae
:103bac00fdff3a0049df2100f9b79f0041e32100f6
:103bbc0078814400090078008001eb00150020009a
:103bcc0014002000d00f120003003a0011027800fc
:103bdc00042add00848141008180e800820f5000be
:103bec00f7ff3a00b3079f00c31f9f00c3079f0056
:103bfc00d31f9f00d3079f00e31f9f00adf02f0042
:103c0c008f864600ebf32f008f8545000005eb00f7
:103c1c00dcb79f00060678008e047800c9b79f00b9
:103c2c0015003700540078000a00de0061006000c7
:103c3c00580178008204dd008981410019002000c0
:103c4c00d58f140004003a00800478000900a2000b
:103c5c000249dd009b0d4100d62b40008100e9009c
:103c6c00f0ff3a00030f78000a05e8008b85e800a6
:103c7c00f00f55000c0032008d86e8000d0778001f
:103c8c009d017800c0dd2100e0b79f0028e32100f2
:103c9c008c0378000c037800ffb2970000027800c8
:103cac00c1002000dfff37005fb697004fb79700c9
:103cbc00ef1397007f1397008f1a97001f1a970026
:103ccc00ff2e97008f3097009f319700c3b79f004e
:103cdc00af349700d9b79f000000eb00e8fc2f0031
:103cec000f0444004be321006adf2100bcb79f00a6
:103cfc0001067800e8007800ef806000f08010008a
:103d0c00013478006b017800c309de00e1816100a9
:103d1c008219dd0083834300c209de00e18161006a
:103d2c008219dd00030343008101d100e1816100b0
:103d3c008219dd0083824200e1816000821cdd007b
:103d4c0009024200ea047800e18f540014003a00a2
:103d5c008180ea00c30cde00e1846400824cdd004b
:103d6c0089864600c20cde00e1846400824cdd00d2
:103d7c00090646008100d100e18060008208dd0068
:103d8c00cfb4970081844400c9b79f000300a20000
:103d9c000219dd00dfb0970082804000d1b79f0090
:103dac000080e800f80f5000d2ff3a008c00780039
:103dbc003fb69700e7179f00f6179f00851f9f00df
:103dcc00941f9f00fd2f9f0081379f00cfb197005c
:103ddc0093379f005fb29700a4379f000000eb0061
:103dec00a01f9f00b01f9f00b0379f00c0379f00df
:103dfc00a0f62f000f0040005c087800de0478006d
:103e0c0019009800640040008fb89700810f56008d
:103e1c00f9ff3a00a0f62f000f004000c103070085
:103e2c0041df21000000eb006fb19700ffb197005c
:103e3c000029780080297800810f5100fcff3a009e
:103e4c004f0778004f06be004f05be004f04be0062
:103e5c00ef0eb10000000600c1dd210042df2100a1
:103e6c007882400013002000802878000329780015
:103e7c00848f5000fcff3a002dff07000000060065
:103e8c0007e2a8000742a90070002000ac20b70090
:103e9c008600a9009600a8000004290030108800b4
:103eac0000022000501088004802070000000600a5
:103ebc00881f78000000fb00cf80de00e2022000ab
:103ecc00820f5000e08f580093003e00006001000c
:103edc002e00370030003700320037003300370037
:103eec00350037003600370038003700390037000e
:103efc003b0037003c003700870037008600370056
:103f0c0085003700840037008300370082003700bb
:103f1c0081003700800037007f0037007e003700bb
:103f2c003400370037003700390037003a003700cb
:103f3c003c0037003d0037003f00370040003700a1
:103f4c004200370043003700450037004600370079
:103f5c0048003700490037004b0037004c00370051
:103f6c004e0037004f003700510037005200370029
:103f7c005400370055003700570037005800370001
:103f8c005a0037005b0037005d003700c0d42100b9
:103f9c00c5fd07006100370060ea80004800de00c4
:103fac005e00370060ea80005c003700c0ea8000e9
:103fbc004800de0059003700c0ea80005700370087
:103fcc0090ea80004800de005400370090ea800040
:103fdc0052003700a0ea80004800de004f00370096
:103fec00a0ea80004d00370060d521001040780019
:103ffc004a003700e183200040cd21004102070038
:10400c0046003700c0e680004800de004300370061
:10401c00c0e680004100370010e780004800de0059
:10402c003e00370010e780003c00370060e780005e
:10403c004800de003900370060e7800037003700a9
:10404c00b0e780004800de0034003700b0e78000a5
:10405c003200370000e880004800de002f003700f7
:10406c0000e880002d00370050e880004800de009a
:10407c002a00370050e8800028003700a0e88000b4
:10408c004800de0025003700a0e880002300370040
:10409c00f0e880004800de0020003700f0e88000e7
:1040ac001e00370040e980004800de001b0037008e
:1040bc0040e980001900370090e980004800de00dc
:1040cc001600370090e9800014003700e0e980000a
:1040dc004800de0011003700e0e980000f003700d7
:1040ec0030ea80004800de000c00370030ea800027
:1040fc000a003700f04180004800de00070037005e
:10410c00f80f2000f0418000000464002102070039
:10411c0008407800010037000040eb004f047800a5
:10412c0000000600ef4f50001b00320006003c0060
:10413c00ed4f50000e00320011003c00ec4f5000cf
:10414c001f003a0006003700f14f500016003200f5
:10415c0013003500f24f500019003a0015003700db
:10416c0001417800a0842000024878001d0037002f
:10417c0001417800c0832000024878001900370004
:10418c008180fb003cc8bf004800dd00008040007f
:10419c0031ff07001300370065fe070011003700e0
:1041ac00fdf907000f0037000140780051fd0700b2
:1041bc000c003700014078006b0007000900370045
:1041cc00eb4f500007003c008180fb00c2832000b5
:1041dc00124178004811dd00828040000000fb0095
:1041ec004cfe07000000060031e2a80031a2a80036
:1041fc003182a900f0cf2f003022b60030e2a900a6
:10420c0030c2a90030a2a9003082a9003062a900f6
:10421c0090ff2f003022b6003002a90033e2a90033
:10422c0033a2a90033c2a9003362a9003342a8000b
:10423c003322a900f0f32f003222b60032a2a900db
:10424c00a0022000c011880087e0a90087c0a90047
:10425c0097e0a80097c0a800000006000bf6070026
:10426c00000006000ff6070022f607000004e0002d
:10427c00fdff3a000000060000ac210072fd0700b3
:10428c0021e2a80021a2a8002182a900f0cf2f00d2
:10429c002022b60020e2a90020c2a90020a2a90079
:1042ac002082a9002062a90090ff2f002022b600d6
:1042bc002002a90023e2a90023a2a90023c2a9007d
:1042cc002362a9002342a8002322a900f0f32f00a7
:1042dc002222b60022a2a900a002200040118800d0
:1042ec008580a9008560a900f1ff280040058000a9
:1042fc0080806000000026000100700040058800ee
:10430c009580a8009560a8003a68ef0000ac2100e9
:10431c0085fd070000000600fbf507000000060005
:10432c00889fbe0028ab210019c0b30005003700e0
:10433c00c8418800a0832000094878001880fb0041
:10434c00f7f5070008007800d7fc07000004e00030
:10435c00f7ff3a004f04be000000060000ac21003d
:10436c0071fd0700000006002ee8b70000000600f3
:10437c003c00fa00881f78000000eb00a0bf9f00f3
:10438c00b0bf9f0000ac210065fd0700e40f50009a
:10439c005e003400ec80570000ac210045fd0700a6
:1043ac00afb897008180fb00a00a2000808f5000de
:1043bc0056003a00e880570000ac21003dfd070094
:1043cc004fb89700f24f500050003e00e680570067
:1043dc0000ac210037fd0700e480570000ac210041
:1043ec0034fd0700ea80570000ac210031fd0700c6
:1043fc00bfb897008180fb0050052000808f5000d3
:10440c0042003a00801f7800f80f20005fb8970038
:10441c00881f60003fb89700881f60001fb8970086
:10442c00881f60006fb09700881f6000104729003c
:10443c00801f780060fb2f000f004000bff50700c5
:10444c0060fb2f000f00400086ff07006fb0970045
:10445c0008046000ec875700ef0f54000c0032008a
:10446c0005003e00ec0f54000d003200ee0f54001e
:10447c001c003a0011003700f10f54000c00320000
:10448c0005003900f20f540016003a0012003700f4
:10449c00a7fd07001d0037003ff907001b00370080
:1044ac005fb897000080fb00480207001700370038
:1044bc002ff897008ffc070014003700efb8970017
:1044cc008180fb005fb897004800dd000080400051
:1044dc0061fe07000d0037002ff89700a2ff0700c0
:1044ec000a003700eb0f540008003e00f20f2000ca
:1044fc00efb9970082816100dfb89700c808dd0032
:10450c00818041000200600082fd07004f047800aa
:10451c000080fa00000006002ec8bf000000060054
:020000040000fa
:10452c00d41c000086000000000000004a080000b7
:10453c000200000002000000960000003c08000091
:10454c000800000000000000341e000018000000ed
:10455c000200000003000400000500000800090030
:10456c00000a00000b000c00000d00000e000f00f4
:10457c0000000000de1d0000300000000000000004
:10458c00a41b0000a8000000020000000f00320075
:10459c00004b000069008500009f00005bff790064
:1045ac00ff97ff00b3ffce00fff1ff00ed46770051
:1045bc003fc18d00243fed0083843e00ed838400d9
:1045cc00be6c97002ebf1900ff6ebf00ed46770042
:1045dc00bff7040035bfed008384be008e59660022
:1045ec003ec18d00243fed0046773f00ed838400f3
:1045fc003e761b00443fed0046773f00ed467700ca
:10460c003f043a003b3f03007cb73e00ed8384003f
:10461c00bef7040035bfed004677bf00507079003f
:10462c00bf761b0044bfed008384be00850a860064
:10463c003ef966005f3f37008da73f008192ea008c
:10464c003ffc8f001440cc009a314000874e38005c
:10465c00c0e2cb0016c0810092eabf000305ac009b
:10466c00bff966005fbf85000a86be004e080000d9
:10467c00b60d000000000000000800001e00000045
:10468c000000000004160000ae0400000000000052
:10469c001e08000010000000000000004c1c000070
:1046ac008800000000000000440800000600000024
:1046bc0000000000b21a0000f20000000000000030
:1046cc002e0800000e00000000000000ac1d0000d1
:1046dc0032000000000000004c0800000200000046
:1046ec00000000004c1e000006000000000000004e
:1046fc005a1d000052000000020000003031320050
:10470c0033343500363738003941420043444500d4
:10471c00460030003132330034353600373839003a
:10472c00616263006465660000286e00756c6c0045
:10473c002900000001000000000a000000006400d5
:10474c0000000000e8030000001027000000a0009b
:10475c008601000040420f00008096009800000087
:10476c00e1f5050000ca9a003b0000000e1e000097
:10477c002600000002000000531e000000531e0023
:10478c000900000000020000551e000000551e002c
:10479c000e020100000000000000000000000000fc
:1047ac0006020200000000000e1e0000521e000057
:1047bc000600000000000000581e0000020000006f
:0c47cc00020000000100000000000000de
:020000040000fa
:1047d8000000eb0060e2880090e2880070e2880048
:1047e80080e2880070e6880090e6880080e688000d
:1047f80060c5210082072000000141008000eb0015
:1048080001087800310098001100980021009800f4
:104818006a004000820f5000f9ff3a004868ef0034
:1048280000000600ec8747008e1f7800a0bf9f009d
:10483800b1bf9f00c2bf9f00d3bf9f006c875700c6
:104848003e00be0060e2880071e288001e00be00e3
:1048580080e2880091e28800a4e288004f0778008f
:10486800cf00b10000000600889fbe008001eb0069
:1048780066c52100850720000301400003024300ac
:104888003204be00088abe004400b000321a780024
:10489800321278001201780022029800ea81410061
:1048a800858f5100f4ff3a003142880010c0b300f0
:1048b80048e8b7004f04be00000006000600fa00f2
:1048c800d0bf9f00e1bf9f005fb89700efb8970087
:1048d80070e6880081e6880092e688000080fa0089
:1048e8000000060062e2800073e280000298be00c9
:1048f80082e2800093e280000298be00a3e280007a
:104908000308780000000600889fbe000041eb0005
:104918008384200093417800e1cf510012003a00cf
:104928008001eb0066c521008507200003014300d4
:10493800030240003204be00088abe004400b000f2
:10494800321a780032127800120178002202980098
:10495800ea814100858f5100f4ff3a003942800016
:104968008908780012c0b300024078004f04be00e6
:104978000000060072e6800083e680000288be0020
:1049880093e680002300980000000600c0c42100c0
:104998000008eb00000006004868ef000000060071
:1049a800e0cc21000008eb0000000600204288004f
:1049b800000006002042800000000600cdc2a800ca
:1049c8006800a800c662a900c682a900c6a2a900fc
:1049d800c702a900c722a900c742a900c762a90047
:1049e800c782a900c7a2a900c7c2a900c7e2a90037
:1049f800c602a900ca62a900ca82a900caa2a9005f
:104a0800cb02a900cb22a900cb42a900cb62a90006
:104a1800cb82a900cba2a900cbc2a900cbe2a900f6
:104a2800ca02a900d282a800d2a2a800d2c2a800b5
:104a3800d2e2a800d302a800d322a800d342a8003b
:104a4800d362a800d382a800d3a2a800d3c2a8002a
:104a5800d3e2a800de02a900de22a900e402a90030
:104a6800e422a900e582a900e5a2a900e5c2a900ff
:104a7800e5e2a900c0a2a900c082a900c022a9003d
:104a8800c002a900e202a900e222a900e802a900e6
:104a9800e822a900e982a900e9a2a900e9c2a900bf
:104aa800e9e2a900c4a2a900c482a900c422a900fd
:104ab800c402a900c062a900df82a900c462a900db
:104ac800e382a800e442a800e462a80040a7a90085
:104ad80000052000303a8800f0f32f004427b60084
:104ae80000fe2f004427b600a10920003200200054
:104af80080072000337420008049780081497800bd
:104b0800824978007105200012002000600420000e
:104b18002374200080497800814978008249780010
:104b28000200270001002300133a800003006100ff
:104b3800810f5000fcff3a00000006001800fa0040
:104b4800889fbe008a9fbe00fa0020000b0020004c
:104b58000004eb00491f200021003700000000007e
:104b68000000e900fdff3a0000fe2f000f004000a2
:104b78007cf707002fb09700bfb0970080806800cf
:104b88001fb097000fb197000200680080804000b6
:104b98004fb097005fb19700000069008080400027
:104ba8006fb097007fb197000000690080804000d7
:104bb8000fb897001fb99700000069008080400077
:104bc8002fb897003fb997000000690000804000a7
:104bd8000004440061055500e0855d0002003200d4
:104be80009007800ddff370008007800eaf30700c5
:104bf8004f05be004f04be000080fa00000006000a
:104c08006eff07009ffc0700780007009bfd070068
:104c180076fd0700c0da2100e148290022000900da
:104c2800315878003002b1003102b1008efd070022
:104c380036000700e6f70700c0ff0700400620001f
:104c480063000700c462a900c5fd0700c9fd07008d
:104c5800b0f80700fdff370011e1a9001021a900f5
:104c680010c1a9000621ef00f0fc2f001021b600aa
:104c780080ff2f008421b60091052000610888007c
:104c8800c1022000110c8800010c88008461a90071
:104c98008401b6006000b300200c8800f1ff2800f2
:104ca8003005800080806000000025000100700051
:104cb8003005880084e0a90094e0a90011e1a8006b
:104cc800006621008ffa07000000060005e1a90030
:104cd8000421a90004c1a900f0ff2800a400b6001f
:104ce80000e0a000200588008460a9009460a80066
:104cf800f0fc2f000421b6000021ef0000fa20008c
:104d08001008880005e1a80000000600d2ff07008f
:104d1800eeff070000000600800078000066210012
:104d2800a2fa070000000600800078000066210053
:104d38007ffa070000000600f000200050198800e4
:104d4800f3ff21002032200010886100f1cf2f00ee
:104d58000232200012896000000e20002023b700d4
:104d68002043a9002143a8002232200012896100b3
:104d78002343a90025e3a900a0c0b30024e3b7009a
:104d880095a0a90021e3a800000006000000060085
:104d98007f00600001fe2f004219800082806000c1
:104da80081007000411988002023a800803e20005f
:104db800000000000000e900fdff3a002023a900e0
:104dc8002003ab00feff3200001880000000060040
:104dd800c842a90041128000401288004002ab007e
:104de800feff3200c842a80000000600dee2a8006c
:104df800df02a900c642a9006022ef004382a90091
:104e08004362a9004342a9004322a9004302a80023
:104e180042e2a90042c2a90042a2a80030fe2f0027
:104e28004222b600c0ff2f004202b6000000a000d8
:104e38001012880000002800001288000000eb0013
:084e4800e3ff07000000060073
:020000040000fa
:0200000401f009
:04000c00a000000050
:020000040000fa
:0200000401f009
:0400100045000000a7
:020000040000fa
:0200000401f009
:040014005f00000089
:00000001FF
